
examples/rtos-ii/TP3-POO/out/TP3-POO.elf:     file format elf32-littlearm
examples/rtos-ii/TP3-POO/out/TP3-POO.elf
architecture: arm, flags 0x00000112:
EXEC_P, HAS_SYMS, D_PAGED
start address 0x1a0014f1

Program Header:
0x70000001 off    0x00016814 vaddr 0x1a006814 paddr 0x1a006814 align 2**2
         filesz 0x00000008 memsz 0x00000008 flags r--
    LOAD off    0x00000000 vaddr 0x10000000 paddr 0x10000000 align 2**16
         filesz 0x000000b4 memsz 0x000032c0 flags rw-
    LOAD off    0x00010000 vaddr 0x1a000000 paddr 0x1a000000 align 2**16
         filesz 0x0000681c memsz 0x0000681c flags rwx
    LOAD off    0x00020000 vaddr 0x10000000 paddr 0x1a00681c align 2**16
         filesz 0x00000250 memsz 0x00000250 flags rw-
private flags = 5000400: [Version5 EABI] [hard-float ABI]

Sections:
Idx Name          Size      VMA       LMA       File off  Algn
  0 .text         00006810  1a000000  1a000000  00010000  2**4
                  CONTENTS, ALLOC, LOAD, READONLY, CODE
  1 .data         00000250  10000000  1a00681c  00020000  2**2
                  CONTENTS, ALLOC, LOAD, DATA
  2 .data_RAM2    00000000  10080000  10080000  00020250  2**2
                  CONTENTS
  3 .data_RAM3    00000000  20000000  20000000  00020250  2**2
                  CONTENTS
  4 .data_RAM4    00000000  20008000  20008000  00020250  2**2
                  CONTENTS
  5 .data_RAM5    00000000  2000c000  2000c000  00020250  2**2
                  CONTENTS
  6 .bss          00003070  10000250  10000250  00000250  2**2
                  ALLOC
  7 .bss_RAM2     00000000  10080000  10080000  00020250  2**2
                  CONTENTS
  8 .bss_RAM3     00000000  20000000  20000000  00020250  2**2
                  CONTENTS
  9 .bss_RAM4     00000000  20008000  20008000  00020250  2**2
                  CONTENTS
 10 .bss_RAM5     00000000  2000c000  2000c000  00020250  2**2
                  CONTENTS
 11 .init_array   00000004  1a006810  1a006810  00016810  2**2
                  CONTENTS, ALLOC, LOAD, DATA
 12 .ARM.exidx    00000008  1a006814  1a006814  00016814  2**2
                  CONTENTS, ALLOC, LOAD, READONLY, DATA
 13 .uninit_RESERVED 00000000  10000000  10000000  00020250  2**2
                  CONTENTS
 14 .noinit_RAM2  00000000  10080000  10080000  00020250  2**2
                  CONTENTS
 15 .noinit_RAM3  00000000  20000000  20000000  00020250  2**2
                  CONTENTS
 16 .noinit_RAM4  00000000  20008000  20008000  00020250  2**2
                  CONTENTS
 17 .noinit_RAM5  00000000  2000c000  2000c000  00020250  2**2
                  CONTENTS
 18 .noinit       00000000  100032c0  100032c0  00020250  2**2
                  CONTENTS
 19 .debug_info   0003b9c8  00000000  00000000  00020250  2**0
                  CONTENTS, READONLY, DEBUGGING
 20 .debug_abbrev 00006a3f  00000000  00000000  0005bc18  2**0
                  CONTENTS, READONLY, DEBUGGING
 21 .debug_loc    0000cb40  00000000  00000000  00062657  2**0
                  CONTENTS, READONLY, DEBUGGING
 22 .debug_aranges 00001180  00000000  00000000  0006f197  2**0
                  CONTENTS, READONLY, DEBUGGING
 23 .debug_ranges 00001248  00000000  00000000  00070317  2**0
                  CONTENTS, READONLY, DEBUGGING
 24 .debug_macro  000132d3  00000000  00000000  0007155f  2**0
                  CONTENTS, READONLY, DEBUGGING
 25 .debug_line   00019216  00000000  00000000  00084832  2**0
                  CONTENTS, READONLY, DEBUGGING
 26 .debug_str    00031552  00000000  00000000  0009da48  2**0
                  CONTENTS, READONLY, DEBUGGING
 27 .comment      0000007f  00000000  00000000  000cef9a  2**0
                  CONTENTS, READONLY
 28 .ARM.attributes 00000037  00000000  00000000  000cf019  2**0
                  CONTENTS, READONLY
 29 .debug_frame  000035cc  00000000  00000000  000cf050  2**2
                  CONTENTS, READONLY, DEBUGGING
SYMBOL TABLE:
1a000000 l    d  .text	00000000 .text
10000000 l    d  .data	00000000 .data
10080000 l    d  .data_RAM2	00000000 .data_RAM2
20000000 l    d  .data_RAM3	00000000 .data_RAM3
20008000 l    d  .data_RAM4	00000000 .data_RAM4
2000c000 l    d  .data_RAM5	00000000 .data_RAM5
10000250 l    d  .bss	00000000 .bss
10080000 l    d  .bss_RAM2	00000000 .bss_RAM2
20000000 l    d  .bss_RAM3	00000000 .bss_RAM3
20008000 l    d  .bss_RAM4	00000000 .bss_RAM4
2000c000 l    d  .bss_RAM5	00000000 .bss_RAM5
1a006810 l    d  .init_array	00000000 .init_array
1a006814 l    d  .ARM.exidx	00000000 .ARM.exidx
10000000 l    d  .uninit_RESERVED	00000000 .uninit_RESERVED
10080000 l    d  .noinit_RAM2	00000000 .noinit_RAM2
20000000 l    d  .noinit_RAM3	00000000 .noinit_RAM3
20008000 l    d  .noinit_RAM4	00000000 .noinit_RAM4
2000c000 l    d  .noinit_RAM5	00000000 .noinit_RAM5
100032c0 l    d  .noinit	00000000 .noinit
00000000 l    d  .debug_info	00000000 .debug_info
00000000 l    d  .debug_abbrev	00000000 .debug_abbrev
00000000 l    d  .debug_loc	00000000 .debug_loc
00000000 l    d  .debug_aranges	00000000 .debug_aranges
00000000 l    d  .debug_ranges	00000000 .debug_ranges
00000000 l    d  .debug_macro	00000000 .debug_macro
00000000 l    d  .debug_line	00000000 .debug_line
00000000 l    d  .debug_str	00000000 .debug_str
00000000 l    d  .comment	00000000 .comment
00000000 l    d  .ARM.attributes	00000000 .ARM.attributes
00000000 l    d  .debug_frame	00000000 .debug_frame
00000000 l    df *ABS*	00000000 armv7m_startup.c
00000000 l    df *ABS*	00000000 vendor_interrupt.c
00000000 l    df *ABS*	00000000 sapi_uart.c
1a004120 l     F .text	000000a4 uartProcessIRQ
10002e10 l     O .bss	00000004 rxIsrCallbackUART0
10002e14 l     O .bss	00000004 rxIsrCallbackUART2
10002e18 l     O .bss	00000004 rxIsrCallbackUART3
10002e1c l     O .bss	00000004 txIsrCallbackUART0
10002e20 l     O .bss	00000004 txIsrCallbackUART2
10002e24 l     O .bss	00000004 txIsrCallbackUART3
1a00653c l     O .text	00000048 lpcUarts
00000000 l    df *ABS*	00000000 crp.c
00000000 l    df *ABS*	00000000 Driver.c
1a000300 l     F .text	000000cc onRx
1a0003cc l     F .text	000000b0 uartUsbSendCallback
10000250 l     O .bss	00000068 DataToSend
100002b8 l     O .bss	00000008 infoDriver
100002c0 l     O .bss	00000001 rxStatus
100002c4 l     O .bss	00000070 rxbuff
00000000 l    df *ABS*	00000000 service.c
1a000610 l     F .text	00000044 cargarStructTx
1a000654 l     F .text	00000070 EncolaReporte
1a0007e4 l     F .text	00000054 cargarRemainingStack
1a00099c l     F .text	00000048 cargarRemainingHeap
10000334 l     O .bss	0000000c Datos.14733
10000340 l     O .bss	00000070 buffEncRep
100003b0 l     O .bss	00000004 paqueteId.14743
100003b4 l     O .bss	00000004 token.14734
00000000 l    df *ABS*	00000000 broadcast.c
100003b8 l     O .bss	00000004 estadoBroadcast
00000000 l    df *ABS*	00000000 pulsadores.c
100003bc l     O .bss	00000004 mod
100003c0 l     O .bss	00000004 nPulsadores
00000000 l    df *ABS*	00000000 leds.c
00000000 l    df *ABS*	00000000 modulos.c
00000000 l    df *ABS*	00000000 TimerService.c
00000000 l    df *ABS*	00000000 eventos.c
1a00132c l     F .text	00000030 getColaEventos
1a00135c l     F .text	00000006 getManejadorEventos
00000000 l    df *ABS*	00000000 Rtos2_TP1.c
00000000 l    df *ABS*	00000000 system.c
100003cc l     O .bss	00000004 heap_end.5778
00000000 l    df *ABS*	00000000 heap_4.c
1a001644 l     F .text	00000064 prvHeapInit
100003d4 l     O .bss	00002000 ucHeap
1a0016a8 l     F .text	00000058 prvInsertBlockIntoFreeList
100003d0 l     O .bss	00000004 pxEnd
100023d4 l     O .bss	00000004 xBlockAllocatedBit
100023d8 l     O .bss	00000004 xFreeBytesRemaining
100023dc l     O .bss	00000004 xMinimumEverFreeBytesRemaining
100023e0 l     O .bss	00000008 xStart
00000000 l    df *ABS*	00000000 queue.c
1a001830 l     F .text	00000012 prvGetDisinheritPriorityAfterTimeout
1a001842 l     F .text	0000001e prvIsQueueFull
1a001860 l     F .text	0000001a prvIsQueueEmpty
1a00187a l     F .text	00000076 prvCopyDataToQueue
1a0018f0 l     F .text	00000024 prvCopyDataFromQueue
1a001914 l     F .text	0000006e prvUnlockQueue
1a0019f4 l     F .text	00000022 prvInitialiseNewQueue
00000000 l    df *ABS*	00000000 list.c
00000000 l    df *ABS*	00000000 static_provider.c
100023e8 l     O .bss	00000168 uxIdleTaskStack.10726
10002550 l     O .bss	000005a0 uxTimerTaskStack.10733
10002af0 l     O .bss	00000060 xIdleTaskTCB.10725
10002b50 l     O .bss	00000060 xTimerTaskTCB.10732
00000000 l    df *ABS*	00000000 hooks.c
00000000 l    df *ABS*	00000000 tasks.c
1a002050 l     F .text	00000014 prvTaskCheckFreeStackSpace
1a002064 l     F .text	0000002c prvResetNextTaskUnblockTime
1a002090 l     F .text	00000092 prvInitialiseNewTask
1a002124 l     F .text	00000068 prvInitialiseTaskLists
1a00218c l     F .text	000000ac prvAddNewTaskToReadyList
1a002238 l     F .text	00000024 prvDeleteTCB
1a00225c l     F .text	0000004c prvCheckTasksWaitingTermination
1a0022a8 l     F .text	00000028 prvIdleTask
1a0022d0 l     F .text	00000098 prvAddCurrentTaskToDelayedList
10002bb4 l     O .bss	00000004 pxDelayedTaskList
10002bb8 l     O .bss	00000004 pxOverflowDelayedTaskList
10002bbc l     O .bss	0000008c pxReadyTasksLists
10002c48 l     O .bss	00000004 uxCurrentNumberOfTasks
10002c4c l     O .bss	00000004 uxDeletedTasksWaitingCleanUp
10002c50 l     O .bss	00000004 uxPendedTicks
10002c54 l     O .bss	00000004 uxSchedulerSuspended
10002c58 l     O .bss	00000004 uxTaskNumber
10002c5c l     O .bss	00000004 uxTopReadyPriority
10002c60 l     O .bss	00000014 xDelayedTaskList1
10002c74 l     O .bss	00000014 xDelayedTaskList2
10002c88 l     O .bss	00000004 xNextTaskUnblockTime
10002c8c l     O .bss	00000004 xNumOfOverflows
10002c90 l     O .bss	00000014 xPendingReadyList
10002ca4 l     O .bss	00000004 xSchedulerRunning
10002ca8 l     O .bss	00000014 xSuspendedTaskList
10002cbc l     O .bss	00000014 xTasksWaitingTermination
10002cd0 l     O .bss	00000004 xTickCount
10002cd4 l     O .bss	00000004 xYieldPending
00000000 l    df *ABS*	00000000 timers.c
1a002db0 l     F .text	00000020 prvGetNextExpireTime
1a002dd0 l     F .text	00000048 prvInsertTimerInActiveList
1a002e18 l     F .text	00000070 prvCheckForValidListAndQueue
1a003160 l     F .text	00000016 prvTimerTask
1a002f3c l     F .text	00000064 prvSwitchTimerLists
1a002fa0 l     F .text	0000002c prvSampleTimeNow
1a002fcc l     F .text	0000004c prvProcessExpiredTimer
1a003018 l     F .text	00000074 prvProcessTimerOrBlockTask
1a00308c l     F .text	000000d4 prvProcessReceivedCommands
10002cd8 l     O .bss	00000004 pxCurrentTimerList
10002cdc l     O .bss	00000004 pxOverflowTimerList
10002ce0 l     O .bss	000000a0 ucStaticTimerQueueStorage.11811
10002d80 l     O .bss	00000014 xActiveTimerList1
10002d94 l     O .bss	00000014 xActiveTimerList2
10002da8 l     O .bss	00000004 xLastTime.11764
10002dac l     O .bss	00000050 xStaticTimerQueue.11810
10002dfc l     O .bss	00000004 xTimerQueue
10002e00 l     O .bss	00000004 xTimerTaskHandle
00000000 l    df *ABS*	00000000 port.c
1a003176 l     F .text	00000020 prvTaskExitError
1a003198 l     F .text	00000022 prvPortStartFirstTask
1a0031c0 l     F .text	0000000e vPortEnableVFP
1a003220 l       .text	00000000 pxCurrentTCBConst2
1a0032c0 l       .text	00000000 pxCurrentTCBConst
10000000 l     O .data	00000004 uxCriticalNesting
00000000 l    df *ABS*	00000000 freertos_cm_support.c
00000000 l    df *ABS*	00000000 board.c
1a003390 l     F .text	00000044 Board_LED_Init
1a0033d4 l     F .text	00000040 Board_TEC_Init
1a003414 l     F .text	00000040 Board_GPIO_Init
1a003454 l     F .text	00000030 Board_ADC_Init
1a003484 l     F .text	00000038 Board_SPI_Init
1a0034bc l     F .text	00000024 Board_I2C_Init
1a0063c8 l     O .text	00000008 GpioButtons
1a0063d0 l     O .text	0000000c GpioLeds
1a0063dc l     O .text	00000012 GpioPorts
00000000 l    df *ABS*	00000000 board_sysinit.c
1a0063f4 l     O .text	00000004 InitClkStates
1a0063f8 l     O .text	00000074 pinmuxing
00000000 l    df *ABS*	00000000 uart_18xx_43xx.c
1a003630 l     F .text	0000002c Chip_UART_GetIndex
1a00646c l     O .text	00000008 UART_BClock
1a006474 l     O .text	00000008 UART_PClock
00000000 l    df *ABS*	00000000 adc_18xx_43xx.c
1a0037d8 l     F .text	00000014 Chip_ADC_GetClockIndex
1a0037ec l     F .text	00000032 getClkDiv
00000000 l    df *ABS*	00000000 clock_18xx_43xx.c
1a0038a0 l     F .text	000000a4 pll_calc_divs
1a003944 l     F .text	0000010c pll_get_frac
1a003a50 l     F .text	0000004c Chip_Clock_FindBaseClock
1a003cc4 l     F .text	00000022 Chip_Clock_GetDivRate
10002e08 l     O .bss	00000008 audio_usb_pll_freq
1a006488 l     O .text	0000006c periph_to_base
00000000 l    df *ABS*	00000000 chip_18xx_43xx.c
00000000 l    df *ABS*	00000000 sysinit_18xx_43xx.c
1a0064f4 l     O .text	00000048 InitClkStates
00000000 l    df *ABS*	00000000 gpio_18xx_43xx.c
00000000 l    df *ABS*	00000000 ssp_18xx_43xx.c
1a003f9c l     F .text	00000014 Chip_SSP_GetClockIndex
1a003fb0 l     F .text	00000018 Chip_SSP_GetPeriphClockIndex
00000000 l    df *ABS*	00000000 i2c_18xx_43xx.c
10000004 l     O .data	00000038 i2c
00000000 l    df *ABS*	00000000 sysinit.c
00000000 l    df *ABS*	00000000 sapi_cyclesCounter.c
1000003c l     O .data	00000004 ClockSpeed
00000000 l    df *ABS*	00000000 sapi_timer.c
1a004420 l     F .text	00000002 errorOcurred
1a004422 l     F .text	00000002 doNothing
10000040 l     O .data	00000040 timer_dd
00000000 l    df *ABS*	00000000 sapi_gpio.c
1a00452c l     F .text	00000034 gpioObtainPinInit
00000000 l    df *ABS*	00000000 sapi_usb_device.c
10002e28 l     O .bss	00000004 g_hUsb
00000000 l    df *ABS*	00000000 sapi_board.c
00000000 l    df *ABS*	00000000 _aeabi_uldivmod.o
00000000 l    df *ABS*	00000000 libgcc2.c
00000000 l    df *ABS*	00000000 _dvmd_tls.o
00000000 l    df *ABS*	00000000 atoi.c
00000000 l    df *ABS*	00000000 fflush.c
00000000 l    df *ABS*	00000000 findfp.c
1a004cd0 l     F .text	00000048 std
00000000 l    df *ABS*	00000000 fwalk.c
00000000 l    df *ABS*	00000000 init.c
00000000 l    df *ABS*	00000000 locale.c
00000000 l    df *ABS*	00000000 mbtowc_r.c
00000000 l    df *ABS*	00000000 memcpy-stub.c
00000000 l    df *ABS*	00000000 memset.c
00000000 l    df *ABS*	00000000 nano-mallocr.c
00000000 l    df *ABS*	00000000 nano-mallocr.c
00000000 l    df *ABS*	00000000 printf.c
00000000 l    df *ABS*	00000000 puts.c
00000000 l    df *ABS*	00000000 sprintf.c
00000000 l    df *ABS*	00000000 stdio.c
00000000 l    df *ABS*	00000000 lib_a-strlen.o
00000000 l    df *ABS*	00000000 strtol.c
1a00523a l     F .text	000000f6 _strtol_l.isra.0
00000000 l    df *ABS*	00000000 wbuf.c
00000000 l    df *ABS*	00000000 wctomb_r.c
00000000 l    df *ABS*	00000000 wsetup.c
00000000 l    df *ABS*	00000000 makebuf.c
00000000 l    df *ABS*	00000000 mlock.c
00000000 l    df *ABS*	00000000 nano-vfprintf.c
00000000 l    df *ABS*	00000000 nano-vfprintf.c
1a005868 l     F .text	0000002e __sfputc_r
00000000 l    df *ABS*	00000000 nano-vfprintf_i.c
00000000 l    df *ABS*	00000000 lib_a-memchr.o
00000000 l    df *ABS*	00000000 memmove.c
00000000 l    df *ABS*	00000000 nano-mallocr.c
00000000 l    df *ABS*	00000000 nano-mallocr.c
00000000 l    df *ABS*	00000000 impure.c
10000084 l     O .data	00000060 impure_data
00000000 l    df *ABS*	00000000 ctype_.c
00000000 l    df *ABS*	00000000 
1a006814 l       .init_array	00000000 __init_array_end
1a006810 l       .bss_RAM5	00000000 __preinit_array_end
1a006810 l       .init_array	00000000 __init_array_start
1a006810 l       .bss_RAM5	00000000 __preinit_array_start
1a005f1e g     F .text	00000010 _malloc_usable_size_r
1a0005dc g     F .text	00000034 write_Package_ToQueueMinus
1a003ae8 g     F .text	0000001c Chip_Clock_GetDividerSource
1a001260 g     F .text	00000038 IniciarTodosLosModulos
1a001590 g     F .text	00000012 _isatty_r
1a00509c g     F .text	000000b8 _puts_r
1a0044a4 g     F .text	00000044 TIMER2_IRQHandler
1a004368 g     F .text	00000014 uartRxRead
1a0015a2 g     F .text	0000000a _lseek_r
1a000184  w    F .text	00000002 DebugMon_Handler
1a0001ba  w    F .text	00000002 RIT_IRQHandler
1a001824 g     F .text	0000000c xPortGetFreeHeapSize
1a080000 g       *ABS*	00000000 __top_MFlashA512
1a0001ba  w    F .text	00000002 ADCHS_IRQHandler
1a000114 g       .text	00000000 __section_table_start
1a0001ba  w    F .text	00000002 FLASH_EEPROM_IRQHandler
1a003244 g     F .text	00000014 vPortExitCritical
1a0001ba  w    F .text	00000002 I2C0_IRQHandler
1a00506c g     F .text	00000030 printf
1a003576 g     F .text	00000008 __stdio_init
100030d0 g     O .bss	00000004 colaEventosPrioridadAlta
10002e34 g     O .bss	00000008 infoDriverTx
1a0051fe g     F .text	00000024 __sseek
1a004d50 g     F .text	00000060 __sinit
1a0029b4 g     F .text	00000078 vTaskGetInfo
1a00535c g     F .text	000000a4 __swbuf_r
100030d4 g     O .bss	00000004 colaEventosPrioridadMedia
1a00017a  w    F .text	00000002 HardFault_Handler
1a001ed8 g     F .text	00000052 vQueueWaitForMessageRestricted
1a004d24 g     F .text	0000002c __sfmoreglue
1a000000 g       *ABS*	00000000 __vectors_start__
1a003892 g     F .text	0000000c Chip_ADC_SetResolution
1a0055c2 g     F .text	00000002 __malloc_unlock
1a0032c4 g     F .text	0000002c SysTick_Handler
1a0036b0 g     F .text	00000040 Chip_UART_SetBaud
1a0014ec  w    F .text	00000002 initialise_monitor_handles
1a0001ba  w    F .text	00000002 SDIO_IRQHandler
1a003518 g     F .text	0000001c Board_UARTGetChar
1a0001ba  w    F .text	00000002 ATIMER_IRQHandler
1a005ea0 g     F .text	00000032 memmove
1a003260 g     F .text	00000064 PendSV_Handler
10002eb0 g     O .bss	0000006a packet
1a004eb4 g     F .text	0000001c __locale_ctype_ptr
1a001b88 g     F .text	0000006e xQueueGenericSendFromISR
1a000178  w    F .text	00000002 NMI_Handler
1a00681c g       .ARM.exidx	00000000 __exidx_end
1a000150 g       .text	00000000 __data_section_table_end
1a0001ba  w    F .text	00000002 I2C1_IRQHandler
1a001362 g     F .text	00000022 EsperarEvento
1a0001ba  w    F .text	00000002 UART1_IRQHandler
1a001114 g     F .text	0000002c GPIO5_IRQHandler
1a0001ba  w    F .text	00000002 CAN1_IRQHandler
10002bb0 g     O .bss	00000004 pxCurrentTCB
1a001586 g     F .text	0000000a _fstat_r
53ff639e g       *ABS*	00000000 __valid_user_code_checksum
1a00681c g       .ARM.exidx	00000000 _etext
1a0001ba  w    F .text	00000002 USB1_IRQHandler
1a0001ba  w    F .text	00000002 I2S0_IRQHandler
1a002938 g     F .text	00000018 vTaskInternalSetTimeOutState
10002e3c g     O .bss	00000004 xSemNewPacket
1a0042e0 g     F .text	00000028 uartCallbackClr
1a0044e8 g     F .text	00000044 TIMER3_IRQHandler
1a003d66 g     F .text	0000000c Chip_Clock_GetBaseClocktHz
1a0001bc g     F .text	0000000a UART0_IRQHandler
1a0001a8 g     F .text	00000012 bss_init
1a003328 g     F .text	00000048 xPortStartScheduler
1a004ef4 g     F .text	00000016 memcpy
1a002880 g     F .text	0000001c vTaskPlaceOnEventList
1a0001ba  w    F .text	00000002 SGPIO_IRQHandler
1a004d18 g     F .text	0000000c _cleanup_r
1a005678 g     F .text	000001f0 _svfprintf_r
1a0008e8 g     F .text	000000b4 read_process_Package_FromQueueMinus
1a0032f0  w    F .text	00000038 vPortSetupTimerInterrupt
1a004868 g     F .text	00000000 .hidden __aeabi_uldivmod
100032c0 g       .noinit	00000000 _noinit
1a005154 g     F .text	00000010 puts
1a0017d8 g     F .text	0000004c vPortFree
100032b8 g     O .bss	00000004 SystemCoreClock
1a00365c g     F .text	00000054 Chip_UART_Init
1a001d68 g     F .text	00000148 xQueueSemaphoreTake
1a0001ba  w    F .text	00000002 ADC0_IRQHandler
1a0013a8 g     F .text	0000002a EncolarEventoFromISR
1a0012a2 g     F .text	00000018 TimerDisarm
1a000180  w    F .text	00000002 UsageFault_Handler
1a003de4 g     F .text	0000004c Chip_Clock_GetRate
100003c4 g     O .bss	00000004 ultimoModulo
1a001f46 g     F .text	00000018 vListInsertEnd
1a001140 g     F .text	00000028 GPIO6_IRQHandler
100030d8 g     O .bss	00000190 modulos
1a0035b8 g     F .text	0000006c Board_SetupClocking
20008000 g       *ABS*	00000000 __top_RamAHB32
1a004898 g     F .text	000002cc .hidden __udivmoddi4
1a001624 g     F .text	00000020 _sbrk_r
1a0063c4 g     O .text	00000004 ExtRateIn
1a0001ba  w    F .text	00000002 IntDefaultHandler
1a000300 g       .text	00000000 __CRP_WORD_END__
100030c8 g     O .bss	00000008 vectorLeds
1a0015ac g     F .text	0000004e _read_r
1a006274 g     O .text	00000013 pulsadorApretado
1a001f40 g     F .text	00000006 vListInitialiseItem
1a00106c g     F .text	0000002c GPIO1_IRQHandler
10002e40 g     O .bss	0000006a paquete
1a001c5c g     F .text	0000010c xQueueReceive
10003278 g     O .bss	00000040 xQueueRegistry
1a0013e2 g     F .text	00000022 TareaDespachadoraEventos
1a001fd4 g     F .text	00000018 vApplicationGetTimerTaskMemory
1a000ec0 g     F .text	00000050 DriverPulsadores
1a0001ba  w    F .text	00000002 SSP0_IRQHandler
1a000a64 g     F .text	000001dc Create_And_Assign_Queue
1a004338 g     F .text	00000018 uartRxReady
10002f1c g     O .bss	00000004 xSemaphoreFinMedicion
1a006814 g       .ARM.exidx	00000000 __exidx_start
1a0002fc g     O .text	00000004 CRP_WORD
1a0066cc g     O .text	00000004 _global_impure_ptr
1a005ed2 g     F .text	0000004c _realloc_r
1a004e64 g     F .text	00000048 __libc_init_array
10003034 g     O .bss	00000060 vectorPulsadores
1a0001ba  w    F .text	00000002 ADC1_IRQHandler
1a001700 g     F .text	000000d8 pvPortMalloc
1a003534 g     F .text	00000030 Board_Init
1a00157a  w    F .text	00000002 _init
1a001f2a g     F .text	00000016 vListInitialise
1a000114 g       .text	00000000 __data_section_table
1a005330 g     F .text	0000002c strtol
1a0025c4 g     F .text	0000000c xTaskGetTickCount
1a001a70 g     F .text	00000118 xQueueGenericSend
1a0001ba  w    F .text	00000002 RTC_IRQHandler
100032c0 g       .bss	00000000 _ebss
1a004424 g     F .text	00000040 TIMER0_IRQHandler
1a0014f0 g     F .text	00000088 Reset_Handler
20010000 g       *ABS*	00000000 __top_RamAHB_ETB16
1a0001ba  w    F .text	00000002 SPI_IRQHandler
1a004094 g     F .text	00000038 Chip_I2C_SetClockRate
1a002b10 g     F .text	00000080 xTaskPriorityDisinherit
1a0001ba  w    F .text	00000002 LCD_IRQHandler
1a003a9c g     F .text	0000004c Chip_Clock_EnableCrystal
10002f20 g     O .bss	00000004 queueMinusculizar
1a001194 g     F .text	00000012 LedInit
10008000 g       *ABS*	00000000 __top_RamLoc32
1a0028c0 g     F .text	00000078 xTaskRemoveFromEventList
1a002018  w    F .text	0000001c vApplicationMallocFailedHook
1a00018a g     F .text	0000001e data_init
1a0012bc g     F .text	00000070 vApplicationTickHook
1a000c40 g     F .text	00000070 EncolaNotificacion
100003c8 g     O .bss	00000004 xHandlePrintQueue
1a004464 g     F .text	00000040 TIMER1_IRQHandler
1a00666c g     O .text	00000020 __sf_fake_stderr
1a004070 g     F .text	00000024 Chip_I2C_Init
1a002408 g     F .text	000000c4 vTaskDelete
1a00440c g     F .text	0000000a UART2_IRQHandler
1a001384 g     F .text	00000024 EncolarEvento
1a000f10 g     F .text	00000134 My_IRQ_Init
1a003c58 g     F .text	0000006c Chip_Clock_GetMainPLLHz
1a0055c4 g     F .text	000000b4 __ssputs_r
1a006584 g     O .text	000000e6 gpioPinsInit
1a0041c4 g     F .text	00000090 uartInterrupt
1a001fec  w    F .text	0000002c vAssertCalled
1a002c1c g     F .text	0000001c pvTaskIncrementMutexHeldCount
1a003fc8 g     F .text	00000012 Chip_SSP_SetClockRate
1a000cb0 g     F .text	000000f0 ManejadorEventosBroadcast
1a005896 g     F .text	00000024 __sfputs_r
1a001098 g     F .text	00000028 GPIO2_IRQHandler
1a005e00 g     F .text	00000000 memchr
1a002950 g     F .text	00000058 xTaskCheckForTimeOut
1a004f1c g     F .text	0000009c _free_r
1a003d40 g     F .text	00000026 Chip_Clock_GetBaseClock
1a002a58 g     F .text	000000b8 xTaskPriorityInherit
1a0011a8 g     F .text	0000002c DriverLedsInit
1a006288 g     O .text	00000013 pulsadorLiberado
10000250 g       .bss	00000000 _bss
1a003860 g     F .text	00000032 Chip_ADC_SetSampleRate
10002e04 g     O .bss	00000004 freeRtosInterruptCallback
1a0025b4 g     F .text	00000010 vTaskSuspendAll
1a0024cc g     F .text	0000006c eTaskGetState
1a0025d0 g     F .text	0000000c xTaskGetTickCountFromISR
1a00052c g     F .text	0000007c Print_Queue
1a004308 g     F .text	00000030 uartSetPendingInterrupt
1a0001ba  w    F .text	00000002 I2S1_IRQHandler
1a003fda g     F .text	0000003e Chip_SSP_SetBitRate
1a001f92 g     F .text	00000028 uxListRemove
1a003f98 g     F .text	00000002 Chip_GPIO_Init
1a0063f0 g     O .text	00000004 OscRateIn
1a004390 g     F .text	0000007c uartInit
1a00629c g     O .text	00000014 tiempoPulsado
1a002368 g     F .text	00000038 xTaskCreateStatic
100032c0 g       .noinit	00000000 _end_noinit
10008000 g       *ABS*	00000000 _vStackTop
1a0009e4 g     F .text	00000080 Initialize_Service
1a0027d0 g     F .text	000000b0 vTaskSwitchContext
1a0001ba  w    F .text	00000002 SSP1_IRQHandler
1a001a16 g     F .text	0000001e xQueueGenericCreateStatic
1a00289c g     F .text	00000024 vTaskPlaceOnEventListRestricted
1a000178 g       .text	00000000 __bss_section_table_end
1a0013d2 g     F .text	00000010 DespacharEvento
1a00157c g     F .text	0000000a _close_r
1a000e04 g     F .text	000000bc FSM_Pulsador
1a004560 g     F .text	000001ac gpioInit
1a002c38 g     F .text	00000098 xTaskNotifyWait
1a001fbc g     F .text	00000018 vApplicationGetIdleTaskMemory
1a001204 g     F .text	00000024 DriverLeds
1a002ee4 g     F .text	00000058 xTimerGenericCommand
1a00541c g     F .text	000000dc __swsetup_r
1a002034  w    F .text	0000001c vApplicationStackOverflowHook
1a004b64  w    F .text	00000002 .hidden __aeabi_ldiv0
1a0011d4 g     F .text	00000018 LedOn
1a004db0 g     F .text	00000078 __sfp
1a0051a4 g     F .text	00000022 __sread
1a0047e0 g     F .text	0000001c USB0_IRQHandler
1a0010c0 g     F .text	0000002c GPIO3_IRQHandler
10003094 g     O .bss	00000004 Cola_Lecturas
1a0055c0 g     F .text	00000002 __malloc_lock
1a003504 g     F .text	00000014 Board_UARTPutChar
1a0001ba  w    F .text	00000002 SCT_IRQHandler
1a004c7c g     F .text	00000054 _fflush_r
1a00668c g     O .text	00000020 __sf_fake_stdin
1a003b04 g     F .text	0000001c Chip_Clock_GetDividerDivisor
1a0002fc g       .text	00000000 __CRP_WORD_START__
1a004f0a g     F .text	00000010 memset
1a00017c  w    F .text	00000002 MemManage_Handler
10002f24 g     O .bss	00000004 queueMedirPerformance
1a001404 g     F .text	000000e8 main
1000326c g     O .bss	00000004 ModuloLeds
1a0001ba  w    F .text	00000002 WDT_IRQHandler
1a001f5e g     F .text	00000034 vListInsert
2000c000 g       *ABS*	00000000 __top_RamAHB16
1a0006c4 g     F .text	00000120 process_Package_FromQueuePerformance
1008a000 g       *ABS*	00000000 __top_RamLoc40
1a003200 g     F .text	00000024 SVC_Handler
1a005222 g     F .text	00000008 __sclose
1a002e88 g     F .text	0000005c xTimerCreateTimerTask
1a004fb8 g     F .text	000000b4 _malloc_r
1a005400 g     F .text	0000001a __ascii_wctomb
1a004350 g     F .text	00000018 uartTxReady
1a003d74 g     F .text	0000003c Chip_Clock_EnableOpts
1a001168 g     F .text	0000002c GPIO7_IRQHandler
1a00356e g     F .text	00000008 __stdio_getchar
1a002a2c g     F .text	0000000c xTaskGetCurrentTaskHandle
1a001a34 g     F .text	0000003a xQueueGenericCreate
1a003b20 g     F .text	000000b8 Chip_Clock_GetClockInputHz
1a003bd8 g     F .text	00000080 Chip_Clock_CalcMainPLLValue
1a0040cc g     F .text	00000038 SystemInit
1a0001ba  w    F .text	00000002 SPIFI_IRQHandler
10002f28 g     O .bss	00000004 queueTransmitUart
1a002cd0 g     F .text	000000e0 xTaskGenericNotifyFromISR
1a0001ba  w    F .text	00000002 QEI_IRQHandler
1a000150 g       .text	00000000 __bss_section_table
10002f2c g     O .bss	00000068 bufferTransmitir
1a00470c g     F .text	0000006a gpioWrite
1a001578  w    F .text	00000002 _fini
1a00506c g     F .text	00000030 iprintf
1a0026ec g     F .text	000000e4 xTaskResumeAll
1a005164 g     F .text	00000040 sprintf
1a002538 g     F .text	0000007c vTaskStartScheduler
1a003820 g     F .text	00000040 Chip_ADC_Init
100032bc g     O .bss	00000004 g_pUsbApi
1a003580 g     F .text	00000038 Board_SetupMuxing
1a0036f0 g     F .text	000000e8 Chip_UART_SetBaudFDR
1a0015fa g     F .text	00000028 _write_r
10003268 g     O .bss	00000004 colaEventosPrioridadBaja
1a0005a8 g     F .text	00000034 write_Package_ToQueueMayus
10002f94 g     O .bss	00000004 queueRecieveUart
1a0001ba  w    F .text	00000002 ETH_IRQHandler
1a005ae8 g     F .text	000000ea _printf_common
10000080 g     O .data	00000004 _impure_ptr
1a004b70 g     F .text	0000010c __sflush_r
10000000 g       .uninit_RESERVED	00000000 _end_uninit_RESERVED
1a005678 g     F .text	000001f0 _svfiprintf_r
1a00437c g     F .text	00000014 uartTxWrite
1a0001ba  w    F .text	00000002 CAN0_IRQHandler
1a004ed0 g     F .text	00000024 __ascii_mbtowc
10000000 g       .data	00000000 _data
10002eac g     O .bss	00000004 pDataToSend
1a0029a8 g     F .text	0000000c vTaskMissedYield
100032c0 g       .bss	00000000 _pvHeapStart
1a000da0 g     F .text	0000002c PulsadorInit
1a000178 g       .text	00000000 __section_table_end
1a004018 g     F .text	00000038 Chip_SSP_Init
1a000dcc g     F .text	00000038 DriverPulsadoresInit
1a001eb0 g     F .text	00000028 vQueueAddToRegistry
1a0001ba  w    F .text	00000002 GINT0_IRQHandler
1a0025dc g     F .text	00000110 xTaskIncrementTick
1a0054f8 g     F .text	00000048 __swhatbuf_r
1a003370 g     F .text	00000020 DAC_IRQHandler
1a0034e0 g     F .text	00000024 Board_Debug_Init
1a00047c g     F .text	000000b0 Initialize_UART
1a003564 g     F .text	0000000a __stdio_putchar
1a001984 g     F .text	00000070 xQueueGenericReset
10000250 g       .data	00000000 _edata
1a004050 g     F .text	00000020 Chip_I2C_EventHandler
1a0001ba  w    F .text	00000002 M0SUB_IRQHandler
1a0023a0 g     F .text	00000066 xTaskCreate
10002f98 g     O .bss	00000004 queueMayusculizar
1a003e44 g     F .text	00000154 Chip_SetupCoreClock
1a0051c6 g     F .text	00000038 __swrite
1a001044 g     F .text	00000028 GPIO0_IRQHandler
1a0058bc g     F .text	0000022c _vfiprintf_r
1a000000 g     O .text	00000040 g_pfnVectors
1a004e28 g     F .text	0000003c _fwalk_reent
1a003e30 g     F .text	00000014 SystemCoreClockUpdate
10003270 g     O .bss	00000004 ModuloBroadcast
1a0001ba  w    F .text	00000002 DMA_IRQHandler
1a0001ba  w    F .text	00000002 EVRT_IRQHandler
1b080000 g       *ABS*	00000000 __top_MFlashB512
1a0066ac g     O .text	00000020 __sf_fake_stdout
1a005164 g     F .text	00000040 siprintf
1a004b68 g     F .text	00000008 atoi
1a002a38 g     F .text	00000020 xTaskGetSchedulerState
1a0066da g     O .text	00000101 _ctype_
1a002b90 g     F .text	0000008c vTaskPriorityDisinheritAfterTimeout
10003274 g     O .bss	00000004 ModuloDriverPulsadores
1a004b64  w    F .text	00000002 .hidden __aeabi_idiv0
1a004254 g     F .text	0000008c uartCallbackSet
1a000838 g     F .text	000000b0 read_process_Package_FromQueueMayus
1a0011ec g     F .text	00000018 LedOff
1a00017e  w    F .text	00000002 BusFault_Handler
1a005540 g     F .text	00000080 __smakebuf_r
10002f9c g     O .bss	00000096 repBuff
1a00522a g     F .text	00000010 strlen
1a0031d4 g     F .text	0000002c pxPortInitialiseStack
1a005bd4 g     F .text	00000224 _printf_i
1a004eac g     F .text	00000006 __locale_ctype_ptr_l
1a003db0 g     F .text	00000034 Chip_Clock_Enable
1a001228 g     F .text	00000038 RegistrarModulo
1a004416 g     F .text	0000000a UART3_IRQHandler
10002e30 g     O .bss	00000004 __malloc_sbrk_start
1a0001ba  w    F .text	00000002 MCPWM_IRQHandler
1a0001ba  w    F .text	00000002 M0APP_IRQHandler
1a004776 g     F .text	00000068 gpioRead
1a0047fc g     F .text	0000006c boardInit
1a003224 g     F .text	00000020 vPortEnterCritical
10002e2c g     O .bss	00000004 __malloc_free_list
10003098 g     O .bss	00000030 Buttons_SM
1a000040 g     O .text	000000d4 g_pfnVendorVectors
1a0058bc g     F .text	0000022c _vfprintf_r
1a0001ba  w    F .text	00000002 GINT1_IRQHandler
1a001298 g     F .text	0000000a TimerArmRepetitivo
100000e4 g     O .data	0000016c __global_locale
1a003ce8 g     F .text	00000058 Chip_Clock_SetBaseClock
1a004104 g     F .text	0000001c cyclesCounterInit
1a0010ec g     F .text	00000028 GPIO4_IRQHandler
1a001bf6 g     F .text	00000064 xQueueGiveFromISR
1a003624 g     F .text	0000000c Board_SystemInit



Disassembly of section .text:

1a000000 <g_pfnVectors>:
1a000000:	00 80 00 10 f1 14 00 1a 79 01 00 1a 7b 01 00 1a     ........y...{...
1a000010:	7d 01 00 1a 7f 01 00 1a 81 01 00 1a 9e 63 ff 53     }............c.S
	...
1a00002c:	01 32 00 1a 85 01 00 1a 00 00 00 00 61 32 00 1a     .2..........a2..
1a00003c:	c5 32 00 1a                                         .2..

1a000040 <g_pfnVendorVectors>:
1a000040:	71 33 00 1a bb 01 00 1a bb 01 00 1a 00 00 00 00     q3..............
1a000050:	bb 01 00 1a bb 01 00 1a bb 01 00 1a bb 01 00 1a     ................
1a000060:	e1 47 00 1a bb 01 00 1a bb 01 00 1a bb 01 00 1a     .G..............
1a000070:	25 44 00 1a 65 44 00 1a a5 44 00 1a e9 44 00 1a     %D..eD...D...D..
1a000080:	bb 01 00 1a bb 01 00 1a bb 01 00 1a bb 01 00 1a     ................
1a000090:	bb 01 00 1a bb 01 00 1a bb 01 00 1a bb 01 00 1a     ................
1a0000a0:	bd 01 00 1a bb 01 00 1a 0d 44 00 1a 17 44 00 1a     .........D...D..
1a0000b0:	bb 01 00 1a bb 01 00 1a bb 01 00 1a bb 01 00 1a     ................
1a0000c0:	45 10 00 1a 6d 10 00 1a 99 10 00 1a c1 10 00 1a     E...m...........
1a0000d0:	ed 10 00 1a 15 11 00 1a 41 11 00 1a 69 11 00 1a     ........A...i...
1a0000e0:	bb 01 00 1a bb 01 00 1a bb 01 00 1a bb 01 00 1a     ................
1a0000f0:	00 00 00 00 bb 01 00 1a bb 01 00 1a bb 01 00 1a     ................
1a000100:	00 00 00 00 bb 01 00 1a bb 01 00 1a bb 01 00 1a     ................
1a000110:	bb 01 00 1a                                         ....

1a000114 <__data_section_table>:
1a000114:	1a00681c 	.word	0x1a00681c
1a000118:	10000000 	.word	0x10000000
1a00011c:	00000250 	.word	0x00000250
1a000120:	1a00681c 	.word	0x1a00681c
1a000124:	10080000 	.word	0x10080000
1a000128:	00000000 	.word	0x00000000
1a00012c:	1a00681c 	.word	0x1a00681c
1a000130:	20000000 	.word	0x20000000
1a000134:	00000000 	.word	0x00000000
1a000138:	1a00681c 	.word	0x1a00681c
1a00013c:	20008000 	.word	0x20008000
1a000140:	00000000 	.word	0x00000000
1a000144:	1a00681c 	.word	0x1a00681c
1a000148:	2000c000 	.word	0x2000c000
1a00014c:	00000000 	.word	0x00000000

1a000150 <__bss_section_table>:
1a000150:	10000250 	.word	0x10000250
1a000154:	00003070 	.word	0x00003070
1a000158:	10080000 	.word	0x10080000
1a00015c:	00000000 	.word	0x00000000
1a000160:	20000000 	.word	0x20000000
1a000164:	00000000 	.word	0x00000000
1a000168:	20008000 	.word	0x20008000
1a00016c:	00000000 	.word	0x00000000
1a000170:	2000c000 	.word	0x2000c000
1a000174:	00000000 	.word	0x00000000

1a000178 <NMI_Handler>:
        __asm__ volatile("wfi");
    }
}

__attribute__ ((section(".after_vectors")))
void NMI_Handler(void) {
1a000178:	e7fe      	b.n	1a000178 <NMI_Handler>

1a00017a <HardFault_Handler>:
    while (1) {
    }
}
__attribute__ ((section(".after_vectors")))
void HardFault_Handler(void) {
1a00017a:	e7fe      	b.n	1a00017a <HardFault_Handler>

1a00017c <MemManage_Handler>:
    while (1) {
    }
}
__attribute__ ((section(".after_vectors")))
void MemManage_Handler(void) {
1a00017c:	e7fe      	b.n	1a00017c <MemManage_Handler>

1a00017e <BusFault_Handler>:
    while (1) {
    }
}
__attribute__ ((section(".after_vectors")))
void BusFault_Handler(void) {
1a00017e:	e7fe      	b.n	1a00017e <BusFault_Handler>

1a000180 <UsageFault_Handler>:
    while (1) {
    }
}
__attribute__ ((section(".after_vectors")))
void UsageFault_Handler(void) {
1a000180:	e7fe      	b.n	1a000180 <UsageFault_Handler>
    while (1) {
    }
}
__attribute__ ((section(".after_vectors")))
void SVC_Handler(void) {
1a000182:	e7fe      	b.n	1a000182 <UsageFault_Handler+0x2>

1a000184 <DebugMon_Handler>:
    while (1) {
    }
}
__attribute__ ((section(".after_vectors")))
void DebugMon_Handler(void) {
1a000184:	e7fe      	b.n	1a000184 <DebugMon_Handler>
    while (1) {
    }
}
__attribute__ ((section(".after_vectors")))
void PendSV_Handler(void) {
1a000186:	e7fe      	b.n	1a000186 <DebugMon_Handler+0x2>
    while (1) {
    }
}
__attribute__ ((section(".after_vectors")))
void SysTick_Handler(void) {
1a000188:	e7fe      	b.n	1a000188 <DebugMon_Handler+0x4>

1a00018a <data_init>:
    for (loop = 0; loop < len; loop = loop + 4)
1a00018a:	2300      	movs	r3, #0
1a00018c:	4293      	cmp	r3, r2
1a00018e:	d20a      	bcs.n	1a0001a6 <data_init+0x1c>
void data_init(unsigned int romstart, unsigned int start, unsigned int len) {
1a000190:	b410      	push	{r4}
        *pulDest++ = *pulSrc++;
1a000192:	6804      	ldr	r4, [r0, #0]
1a000194:	600c      	str	r4, [r1, #0]
    for (loop = 0; loop < len; loop = loop + 4)
1a000196:	3304      	adds	r3, #4
        *pulDest++ = *pulSrc++;
1a000198:	3004      	adds	r0, #4
1a00019a:	3104      	adds	r1, #4
    for (loop = 0; loop < len; loop = loop + 4)
1a00019c:	4293      	cmp	r3, r2
1a00019e:	d3f8      	bcc.n	1a000192 <data_init+0x8>
}
1a0001a0:	f85d 4b04 	ldr.w	r4, [sp], #4
1a0001a4:	4770      	bx	lr
1a0001a6:	4770      	bx	lr

1a0001a8 <bss_init>:
    for (loop = 0; loop < len; loop = loop + 4)
1a0001a8:	2300      	movs	r3, #0
1a0001aa:	e003      	b.n	1a0001b4 <bss_init+0xc>
        *pulDest++ = 0;
1a0001ac:	2200      	movs	r2, #0
1a0001ae:	6002      	str	r2, [r0, #0]
    for (loop = 0; loop < len; loop = loop + 4)
1a0001b0:	3304      	adds	r3, #4
        *pulDest++ = 0;
1a0001b2:	3004      	adds	r0, #4
    for (loop = 0; loop < len; loop = loop + 4)
1a0001b4:	428b      	cmp	r3, r1
1a0001b6:	d3f9      	bcc.n	1a0001ac <bss_init+0x4>
}
1a0001b8:	4770      	bx	lr

1a0001ba <ADC0_IRQHandler>:
    CAN0_IRQHandler,          // 67
    QEI_IRQHandler,           // 68
};

__attribute__ ((section(".after_vectors")))
void IntDefaultHandler(void) {
1a0001ba:	e7fe      	b.n	1a0001ba <ADC0_IRQHandler>

1a0001bc <UART0_IRQHandler>:
__attribute__ ((section(".after_vectors")))

// UART0 (GPIO1 y GPIO2 or RS485/Profibus)
// 0x28 0x000000A0 - Handler for ISR UART0 (IRQ 24)
void UART0_IRQHandler(void)
{
1a0001bc:	b508      	push	{r3, lr}
   uartProcessIRQ( UART_GPIO );
1a0001be:	2000      	movs	r0, #0
1a0001c0:	f003 ffae 	bl	1a004120 <uartProcessIRQ>
}
1a0001c4:	bd08      	pop	{r3, pc}
1a0001c6:	ffff ffff 			; <UNDEFINED> instruction: 0xffffffff
1a0001ca:	ffff ffff 			; <UNDEFINED> instruction: 0xffffffff
1a0001ce:	ffff ffff 			; <UNDEFINED> instruction: 0xffffffff
1a0001d2:	ffff ffff 			; <UNDEFINED> instruction: 0xffffffff
1a0001d6:	ffff ffff 			; <UNDEFINED> instruction: 0xffffffff
1a0001da:	ffff ffff 			; <UNDEFINED> instruction: 0xffffffff
1a0001de:	ffff ffff 			; <UNDEFINED> instruction: 0xffffffff
1a0001e2:	ffff ffff 			; <UNDEFINED> instruction: 0xffffffff
1a0001e6:	ffff ffff 			; <UNDEFINED> instruction: 0xffffffff
1a0001ea:	ffff ffff 			; <UNDEFINED> instruction: 0xffffffff
1a0001ee:	ffff ffff 			; <UNDEFINED> instruction: 0xffffffff
1a0001f2:	ffff ffff 			; <UNDEFINED> instruction: 0xffffffff
1a0001f6:	ffff ffff 			; <UNDEFINED> instruction: 0xffffffff
1a0001fa:	ffff ffff 			; <UNDEFINED> instruction: 0xffffffff
1a0001fe:	ffff ffff 			; <UNDEFINED> instruction: 0xffffffff
1a000202:	ffff ffff 			; <UNDEFINED> instruction: 0xffffffff
1a000206:	ffff ffff 			; <UNDEFINED> instruction: 0xffffffff
1a00020a:	ffff ffff 			; <UNDEFINED> instruction: 0xffffffff
1a00020e:	ffff ffff 			; <UNDEFINED> instruction: 0xffffffff
1a000212:	ffff ffff 			; <UNDEFINED> instruction: 0xffffffff
1a000216:	ffff ffff 			; <UNDEFINED> instruction: 0xffffffff
1a00021a:	ffff ffff 			; <UNDEFINED> instruction: 0xffffffff
1a00021e:	ffff ffff 			; <UNDEFINED> instruction: 0xffffffff
1a000222:	ffff ffff 			; <UNDEFINED> instruction: 0xffffffff
1a000226:	ffff ffff 			; <UNDEFINED> instruction: 0xffffffff
1a00022a:	ffff ffff 			; <UNDEFINED> instruction: 0xffffffff
1a00022e:	ffff ffff 			; <UNDEFINED> instruction: 0xffffffff
1a000232:	ffff ffff 			; <UNDEFINED> instruction: 0xffffffff
1a000236:	ffff ffff 			; <UNDEFINED> instruction: 0xffffffff
1a00023a:	ffff ffff 			; <UNDEFINED> instruction: 0xffffffff
1a00023e:	ffff ffff 			; <UNDEFINED> instruction: 0xffffffff
1a000242:	ffff ffff 			; <UNDEFINED> instruction: 0xffffffff
1a000246:	ffff ffff 			; <UNDEFINED> instruction: 0xffffffff
1a00024a:	ffff ffff 			; <UNDEFINED> instruction: 0xffffffff
1a00024e:	ffff ffff 			; <UNDEFINED> instruction: 0xffffffff
1a000252:	ffff ffff 			; <UNDEFINED> instruction: 0xffffffff
1a000256:	ffff ffff 			; <UNDEFINED> instruction: 0xffffffff
1a00025a:	ffff ffff 			; <UNDEFINED> instruction: 0xffffffff
1a00025e:	ffff ffff 			; <UNDEFINED> instruction: 0xffffffff
1a000262:	ffff ffff 			; <UNDEFINED> instruction: 0xffffffff
1a000266:	ffff ffff 			; <UNDEFINED> instruction: 0xffffffff
1a00026a:	ffff ffff 			; <UNDEFINED> instruction: 0xffffffff
1a00026e:	ffff ffff 			; <UNDEFINED> instruction: 0xffffffff
1a000272:	ffff ffff 			; <UNDEFINED> instruction: 0xffffffff
1a000276:	ffff ffff 			; <UNDEFINED> instruction: 0xffffffff
1a00027a:	ffff ffff 			; <UNDEFINED> instruction: 0xffffffff
1a00027e:	ffff ffff 			; <UNDEFINED> instruction: 0xffffffff
1a000282:	ffff ffff 			; <UNDEFINED> instruction: 0xffffffff
1a000286:	ffff ffff 			; <UNDEFINED> instruction: 0xffffffff
1a00028a:	ffff ffff 			; <UNDEFINED> instruction: 0xffffffff
1a00028e:	ffff ffff 			; <UNDEFINED> instruction: 0xffffffff
1a000292:	ffff ffff 			; <UNDEFINED> instruction: 0xffffffff
1a000296:	ffff ffff 			; <UNDEFINED> instruction: 0xffffffff
1a00029a:	ffff ffff 			; <UNDEFINED> instruction: 0xffffffff
1a00029e:	ffff ffff 			; <UNDEFINED> instruction: 0xffffffff
1a0002a2:	ffff ffff 			; <UNDEFINED> instruction: 0xffffffff
1a0002a6:	ffff ffff 			; <UNDEFINED> instruction: 0xffffffff
1a0002aa:	ffff ffff 			; <UNDEFINED> instruction: 0xffffffff
1a0002ae:	ffff ffff 			; <UNDEFINED> instruction: 0xffffffff
1a0002b2:	ffff ffff 			; <UNDEFINED> instruction: 0xffffffff
1a0002b6:	ffff ffff 			; <UNDEFINED> instruction: 0xffffffff
1a0002ba:	ffff ffff 			; <UNDEFINED> instruction: 0xffffffff
1a0002be:	ffff ffff 			; <UNDEFINED> instruction: 0xffffffff
1a0002c2:	ffff ffff 			; <UNDEFINED> instruction: 0xffffffff
1a0002c6:	ffff ffff 			; <UNDEFINED> instruction: 0xffffffff
1a0002ca:	ffff ffff 			; <UNDEFINED> instruction: 0xffffffff
1a0002ce:	ffff ffff 			; <UNDEFINED> instruction: 0xffffffff
1a0002d2:	ffff ffff 			; <UNDEFINED> instruction: 0xffffffff
1a0002d6:	ffff ffff 			; <UNDEFINED> instruction: 0xffffffff
1a0002da:	ffff ffff 			; <UNDEFINED> instruction: 0xffffffff
1a0002de:	ffff ffff 			; <UNDEFINED> instruction: 0xffffffff
1a0002e2:	ffff ffff 			; <UNDEFINED> instruction: 0xffffffff
1a0002e6:	ffff ffff 			; <UNDEFINED> instruction: 0xffffffff
1a0002ea:	ffff ffff 			; <UNDEFINED> instruction: 0xffffffff
1a0002ee:	ffff ffff 			; <UNDEFINED> instruction: 0xffffffff
1a0002f2:	ffff ffff 			; <UNDEFINED> instruction: 0xffffffff
1a0002f6:	ffff ffff 			; <UNDEFINED> instruction: 0xffffffff
1a0002fa:	Address 0x000000001a0002fa is out of bounds.


1a0002fc <CRP_WORD>:
1a0002fc:	ffff ffff                                   ....

1a000300 <onRx>:
/* Función que se ejecuta con la interrupción de dato recibido por la UART
 * Implementa FSM para llenar el paquete con los datos recibidos
 * Al detectar un EOF libera el semáforo para que la tarea principal envíe la cola con el mensaje
 */

static void onRx(void *noUsado) {
1a000300:	b510      	push	{r4, lr}
1a000302:	b082      	sub	sp, #8
	static uint8_t contador;
	uint8_t datoRecibido, i;
	infoDriverRx_t *pinfo;
	uint32_t tiempo_medido;

	BaseType_t xHigherPriorityTaskWoken = pdFALSE;
1a000304:	2300      	movs	r3, #0
1a000306:	9301      	str	r3, [sp, #4]
	xHigherPriorityTaskWoken = pdFALSE;

	while (uartRxReady(UART_USB)) {
1a000308:	e004      	b.n	1a000314 <onRx+0x14>
		tiempo_medido = xTaskGetTickCount();
		datoRecibido = uartRxRead(UART_USB);

		switch (rxStatus) {
		case WAIT_SOF: /* espera por el SOF */
			if (datoRecibido == SOF_) /*si el dato recibido es SOF inicia contador y pasa a esperar el EOF*/
1a00030a:	287b      	cmp	r0, #123	; 0x7b
1a00030c:	d02d      	beq.n	1a00036a <onRx+0x6a>
				else
					rxStatus = WAIT_SOF;//la longitud es excesiva, reinicia la FSM a esperar el SOF
				break;
			}
		}
		portYIELD_FROM_ISR(xHigherPriorityTaskWoken);
1a00030e:	9b01      	ldr	r3, [sp, #4]
1a000310:	2b00      	cmp	r3, #0
1a000312:	d145      	bne.n	1a0003a0 <onRx+0xa0>
	while (uartRxReady(UART_USB)) {
1a000314:	2003      	movs	r0, #3
1a000316:	f004 f80f 	bl	1a004338 <uartRxReady>
1a00031a:	2800      	cmp	r0, #0
1a00031c:	d049      	beq.n	1a0003b2 <onRx+0xb2>
		tiempo_medido = xTaskGetTickCount();
1a00031e:	f002 f951 	bl	1a0025c4 <xTaskGetTickCount>
1a000322:	4604      	mov	r4, r0
		datoRecibido = uartRxRead(UART_USB);
1a000324:	2003      	movs	r0, #3
1a000326:	f004 f81f 	bl	1a004368 <uartRxRead>
		switch (rxStatus) {
1a00032a:	4b23      	ldr	r3, [pc, #140]	; (1a0003b8 <onRx+0xb8>)
1a00032c:	781b      	ldrb	r3, [r3, #0]
1a00032e:	2b00      	cmp	r3, #0
1a000330:	d0eb      	beq.n	1a00030a <onRx+0xa>
1a000332:	2b01      	cmp	r3, #1
1a000334:	d1eb      	bne.n	1a00030e <onRx+0xe>
			switch (datoRecibido) {
1a000336:	287b      	cmp	r0, #123	; 0x7b
1a000338:	d020      	beq.n	1a00037c <onRx+0x7c>
1a00033a:	287d      	cmp	r0, #125	; 0x7d
1a00033c:	d122      	bne.n	1a000384 <onRx+0x84>
				if (rxbuff.largo < LEN) {
1a00033e:	4b1f      	ldr	r3, [pc, #124]	; (1a0003bc <onRx+0xbc>)
1a000340:	781a      	ldrb	r2, [r3, #0]
1a000342:	2a67      	cmp	r2, #103	; 0x67
1a000344:	d8e3      	bhi.n	1a00030e <onRx+0xe>
					infoDriver.tiempo_recepcion_ETX = tiempo_medido; //registra el tiempo de recepcion del STX
1a000346:	4b1e      	ldr	r3, [pc, #120]	; (1a0003c0 <onRx+0xc0>)
1a000348:	605c      	str	r4, [r3, #4]
					memcpy(&rxbuff.buff[rxbuff.largo], &infoDriver,
1a00034a:	491c      	ldr	r1, [pc, #112]	; (1a0003bc <onRx+0xbc>)
1a00034c:	440a      	add	r2, r1
1a00034e:	cb03      	ldmia	r3!, {r0, r1}
1a000350:	f8c2 0001 	str.w	r0, [r2, #1]
1a000354:	f8c2 1005 	str.w	r1, [r2, #5]
					xSemaphoreGiveFromISR(xSemNewPacket,
1a000358:	a901      	add	r1, sp, #4
1a00035a:	4b1a      	ldr	r3, [pc, #104]	; (1a0003c4 <onRx+0xc4>)
1a00035c:	6818      	ldr	r0, [r3, #0]
1a00035e:	f001 fc4a 	bl	1a001bf6 <xQueueGiveFromISR>
					rxStatus = WAIT_SOF;			//vuelve a esperar el SOF
1a000362:	4b15      	ldr	r3, [pc, #84]	; (1a0003b8 <onRx+0xb8>)
1a000364:	2200      	movs	r2, #0
1a000366:	701a      	strb	r2, [r3, #0]
1a000368:	e7d1      	b.n	1a00030e <onRx+0xe>
				infoDriver.tiempo_recepcion_STX = tiempo_medido;
1a00036a:	4b15      	ldr	r3, [pc, #84]	; (1a0003c0 <onRx+0xc0>)
1a00036c:	601c      	str	r4, [r3, #0]
				rxbuff.largo = 0;
1a00036e:	4b13      	ldr	r3, [pc, #76]	; (1a0003bc <onRx+0xbc>)
1a000370:	2200      	movs	r2, #0
1a000372:	701a      	strb	r2, [r3, #0]
				rxStatus = WAIT_EOF;
1a000374:	4b10      	ldr	r3, [pc, #64]	; (1a0003b8 <onRx+0xb8>)
1a000376:	2201      	movs	r2, #1
1a000378:	701a      	strb	r2, [r3, #0]
1a00037a:	e7c8      	b.n	1a00030e <onRx+0xe>
				rxbuff.largo = 0;
1a00037c:	4b0f      	ldr	r3, [pc, #60]	; (1a0003bc <onRx+0xbc>)
1a00037e:	2200      	movs	r2, #0
1a000380:	701a      	strb	r2, [r3, #0]
				break;
1a000382:	e7c4      	b.n	1a00030e <onRx+0xe>
				if (rxbuff.largo < LEN)
1a000384:	4b0d      	ldr	r3, [pc, #52]	; (1a0003bc <onRx+0xbc>)
1a000386:	781b      	ldrb	r3, [r3, #0]
1a000388:	2b67      	cmp	r3, #103	; 0x67
1a00038a:	d805      	bhi.n	1a000398 <onRx+0x98>
					rxbuff.buff[rxbuff.largo++] = datoRecibido;
1a00038c:	4a0b      	ldr	r2, [pc, #44]	; (1a0003bc <onRx+0xbc>)
1a00038e:	1c59      	adds	r1, r3, #1
1a000390:	7011      	strb	r1, [r2, #0]
1a000392:	4413      	add	r3, r2
1a000394:	7058      	strb	r0, [r3, #1]
1a000396:	e7ba      	b.n	1a00030e <onRx+0xe>
					rxStatus = WAIT_SOF;//la longitud es excesiva, reinicia la FSM a esperar el SOF
1a000398:	4b07      	ldr	r3, [pc, #28]	; (1a0003b8 <onRx+0xb8>)
1a00039a:	2200      	movs	r2, #0
1a00039c:	701a      	strb	r2, [r3, #0]
1a00039e:	e7b6      	b.n	1a00030e <onRx+0xe>
		portYIELD_FROM_ISR(xHigherPriorityTaskWoken);
1a0003a0:	4b09      	ldr	r3, [pc, #36]	; (1a0003c8 <onRx+0xc8>)
1a0003a2:	f04f 5280 	mov.w	r2, #268435456	; 0x10000000
1a0003a6:	601a      	str	r2, [r3, #0]
1a0003a8:	f3bf 8f4f 	dsb	sy
1a0003ac:	f3bf 8f6f 	isb	sy
1a0003b0:	e7b0      	b.n	1a000314 <onRx+0x14>
	}
}
1a0003b2:	b002      	add	sp, #8
1a0003b4:	bd10      	pop	{r4, pc}
1a0003b6:	bf00      	nop
1a0003b8:	100002c0 	.word	0x100002c0
1a0003bc:	100002c4 	.word	0x100002c4
1a0003c0:	100002b8 	.word	0x100002b8
1a0003c4:	10002e3c 	.word	0x10002e3c
1a0003c8:	e000ed04 	.word	0xe000ed04

1a0003cc <uartUsbSendCallback>:

//---- Se ejecuta cada vez que hay una interrupción por buffer de envío vacío
// envía todos los caracteres apuntados por pDataToSend hasta que encuentra el EOF_

void uartUsbSendCallback(void *unused) {
1a0003cc:	b500      	push	{lr}
1a0003ce:	b085      	sub	sp, #20

	BaseType_t xHigherPriorityTaskWoken = pdFALSE;
1a0003d0:	2300      	movs	r3, #0
1a0003d2:	9303      	str	r3, [sp, #12]

	while (*pDataToSend != EOF_) {
1a0003d4:	e007      	b.n	1a0003e6 <uartUsbSendCallback+0x1a>
		if (uartTxReady(UART_USB)) {
			if (*pDataToSend == SOF_)
				infoDriverTx.tiempo_emision_STX = xTaskGetTickCount();//registra tiempo de emision de SOF
			uartTxWrite(UART_USB, *pDataToSend++);
1a0003d6:	4a25      	ldr	r2, [pc, #148]	; (1a00046c <uartUsbSendCallback+0xa0>)
1a0003d8:	6813      	ldr	r3, [r2, #0]
1a0003da:	1c59      	adds	r1, r3, #1
1a0003dc:	6011      	str	r1, [r2, #0]
1a0003de:	7819      	ldrb	r1, [r3, #0]
1a0003e0:	2003      	movs	r0, #3
1a0003e2:	f003 ffcb 	bl	1a00437c <uartTxWrite>
	while (*pDataToSend != EOF_) {
1a0003e6:	4b21      	ldr	r3, [pc, #132]	; (1a00046c <uartUsbSendCallback+0xa0>)
1a0003e8:	681b      	ldr	r3, [r3, #0]
1a0003ea:	781b      	ldrb	r3, [r3, #0]
1a0003ec:	2b7d      	cmp	r3, #125	; 0x7d
1a0003ee:	d00d      	beq.n	1a00040c <uartUsbSendCallback+0x40>
		if (uartTxReady(UART_USB)) {
1a0003f0:	2003      	movs	r0, #3
1a0003f2:	f003 ffad 	bl	1a004350 <uartTxReady>
1a0003f6:	b148      	cbz	r0, 1a00040c <uartUsbSendCallback+0x40>
			if (*pDataToSend == SOF_)
1a0003f8:	4b1c      	ldr	r3, [pc, #112]	; (1a00046c <uartUsbSendCallback+0xa0>)
1a0003fa:	681b      	ldr	r3, [r3, #0]
1a0003fc:	781b      	ldrb	r3, [r3, #0]
1a0003fe:	2b7b      	cmp	r3, #123	; 0x7b
1a000400:	d1e9      	bne.n	1a0003d6 <uartUsbSendCallback+0xa>
				infoDriverTx.tiempo_emision_STX = xTaskGetTickCount();//registra tiempo de emision de SOF
1a000402:	f002 f8df 	bl	1a0025c4 <xTaskGetTickCount>
1a000406:	4b1a      	ldr	r3, [pc, #104]	; (1a000470 <uartUsbSendCallback+0xa4>)
1a000408:	6018      	str	r0, [r3, #0]
1a00040a:	e7e4      	b.n	1a0003d6 <uartUsbSendCallback+0xa>

		} else
			break;
	}
	if (*pDataToSend == EOF_) {
1a00040c:	4b17      	ldr	r3, [pc, #92]	; (1a00046c <uartUsbSendCallback+0xa0>)
1a00040e:	681b      	ldr	r3, [r3, #0]
1a000410:	781b      	ldrb	r3, [r3, #0]
1a000412:	2b7d      	cmp	r3, #125	; 0x7d
1a000414:	d00c      	beq.n	1a000430 <uartUsbSendCallback+0x64>
			//aca se notifica a la tarea que se completó la transmisión y se desbloquea
			xTaskNotifyFromISR(xHandlePrintQueue, TX_BIT, eSetBits,
					&xHigherPriorityTaskWoken);
		}
	}
	portYIELD_FROM_ISR(xHigherPriorityTaskWoken);
1a000416:	9b03      	ldr	r3, [sp, #12]
1a000418:	b13b      	cbz	r3, 1a00042a <uartUsbSendCallback+0x5e>
1a00041a:	4b16      	ldr	r3, [pc, #88]	; (1a000474 <uartUsbSendCallback+0xa8>)
1a00041c:	f04f 5280 	mov.w	r2, #268435456	; 0x10000000
1a000420:	601a      	str	r2, [r3, #0]
1a000422:	f3bf 8f4f 	dsb	sy
1a000426:	f3bf 8f6f 	isb	sy
}
1a00042a:	b005      	add	sp, #20
1a00042c:	f85d fb04 	ldr.w	pc, [sp], #4
		if (uartTxReady(UART_USB)) {
1a000430:	2003      	movs	r0, #3
1a000432:	f003 ff8d 	bl	1a004350 <uartTxReady>
1a000436:	2800      	cmp	r0, #0
1a000438:	d0ed      	beq.n	1a000416 <uartUsbSendCallback+0x4a>
			infoDriverTx.tiempo_emision_ETX = xTaskGetTickCount();//registra tiempo de emision de EOF
1a00043a:	f002 f8c3 	bl	1a0025c4 <xTaskGetTickCount>
1a00043e:	4b0c      	ldr	r3, [pc, #48]	; (1a000470 <uartUsbSendCallback+0xa4>)
1a000440:	6058      	str	r0, [r3, #4]
			uartTxWrite(UART_USB, *pDataToSend);
1a000442:	4b0a      	ldr	r3, [pc, #40]	; (1a00046c <uartUsbSendCallback+0xa0>)
1a000444:	681b      	ldr	r3, [r3, #0]
1a000446:	7819      	ldrb	r1, [r3, #0]
1a000448:	2003      	movs	r0, #3
1a00044a:	f003 ff97 	bl	1a00437c <uartTxWrite>
			uartCallbackClr(UART_USB, UART_TRANSMITER_FREE);
1a00044e:	2101      	movs	r1, #1
1a000450:	2003      	movs	r0, #3
1a000452:	f003 ff45 	bl	1a0042e0 <uartCallbackClr>
			xTaskNotifyFromISR(xHandlePrintQueue, TX_BIT, eSetBits,
1a000456:	4b08      	ldr	r3, [pc, #32]	; (1a000478 <uartUsbSendCallback+0xac>)
1a000458:	6818      	ldr	r0, [r3, #0]
1a00045a:	ab03      	add	r3, sp, #12
1a00045c:	9300      	str	r3, [sp, #0]
1a00045e:	2300      	movs	r3, #0
1a000460:	2201      	movs	r2, #1
1a000462:	4611      	mov	r1, r2
1a000464:	f002 fc34 	bl	1a002cd0 <xTaskGenericNotifyFromISR>
1a000468:	e7d5      	b.n	1a000416 <uartUsbSendCallback+0x4a>
1a00046a:	bf00      	nop
1a00046c:	10002eac 	.word	0x10002eac
1a000470:	10002e34 	.word	0x10002e34
1a000474:	e000ed04 	.word	0xe000ed04
1a000478:	100003c8 	.word	0x100003c8

1a00047c <Initialize_UART>:
void Initialize_UART(void* taskParmPtr) {
1a00047c:	b508      	push	{r3, lr}
	if ((xSemNewPacket = xSemaphoreCreateBinary()) == NULL)
1a00047e:	2203      	movs	r2, #3
1a000480:	2100      	movs	r1, #0
1a000482:	2001      	movs	r0, #1
1a000484:	f001 fad6 	bl	1a001a34 <xQueueGenericCreate>
1a000488:	4b1f      	ldr	r3, [pc, #124]	; (1a000508 <Initialize_UART+0x8c>)
1a00048a:	6018      	str	r0, [r3, #0]
1a00048c:	b910      	cbnz	r0, 1a000494 <Initialize_UART+0x18>
		printf("Error al crear semaforo NewPacket");
1a00048e:	481f      	ldr	r0, [pc, #124]	; (1a00050c <Initialize_UART+0x90>)
1a000490:	f004 fdec 	bl	1a00506c <iprintf>
	uartConfig(UART_USB, VX_BAUDIOS);
1a000494:	f44f 31e1 	mov.w	r1, #115200	; 0x1c200
1a000498:	2003      	movs	r0, #3
1a00049a:	f003 ff79 	bl	1a004390 <uartInit>
	uartCallbackSet(UART_USB, UART_RECEIVE, onRx, NULL);
1a00049e:	2300      	movs	r3, #0
1a0004a0:	4a1b      	ldr	r2, [pc, #108]	; (1a000510 <Initialize_UART+0x94>)
1a0004a2:	4619      	mov	r1, r3
1a0004a4:	2003      	movs	r0, #3
1a0004a6:	f003 fed5 	bl	1a004254 <uartCallbackSet>
	uartInterrupt(UART_USB, true);
1a0004aa:	2101      	movs	r1, #1
1a0004ac:	2003      	movs	r0, #3
1a0004ae:	f003 fe89 	bl	1a0041c4 <uartInterrupt>
	if ((queueRecieveUart = xQueueCreate(2, sizeof(rxbuff))) == NULL)
1a0004b2:	2200      	movs	r2, #0
1a0004b4:	2170      	movs	r1, #112	; 0x70
1a0004b6:	2002      	movs	r0, #2
1a0004b8:	f001 fabc 	bl	1a001a34 <xQueueGenericCreate>
1a0004bc:	4b15      	ldr	r3, [pc, #84]	; (1a000514 <Initialize_UART+0x98>)
1a0004be:	6018      	str	r0, [r3, #0]
1a0004c0:	b910      	cbnz	r0, 1a0004c8 <Initialize_UART+0x4c>
		printf("error al crear la queue queueRecieveUart");
1a0004c2:	4815      	ldr	r0, [pc, #84]	; (1a000518 <Initialize_UART+0x9c>)
1a0004c4:	f004 fdd2 	bl	1a00506c <iprintf>
	if ((queueTransmitUart = xQueueCreate(3, sizeof(DataToSend))) == NULL)
1a0004c8:	2200      	movs	r2, #0
1a0004ca:	2168      	movs	r1, #104	; 0x68
1a0004cc:	2003      	movs	r0, #3
1a0004ce:	f001 fab1 	bl	1a001a34 <xQueueGenericCreate>
1a0004d2:	4b12      	ldr	r3, [pc, #72]	; (1a00051c <Initialize_UART+0xa0>)
1a0004d4:	6018      	str	r0, [r3, #0]
1a0004d6:	b910      	cbnz	r0, 1a0004de <Initialize_UART+0x62>
		printf("error al crear la queue queueTransmitUart");
1a0004d8:	4811      	ldr	r0, [pc, #68]	; (1a000520 <Initialize_UART+0xa4>)
1a0004da:	f004 fdc7 	bl	1a00506c <iprintf>
		if ( xSemaphoreTake( xSemNewPacket, portMAX_DELAY) == pdTRUE) {
1a0004de:	f04f 31ff 	mov.w	r1, #4294967295	; 0xffffffff
1a0004e2:	4b09      	ldr	r3, [pc, #36]	; (1a000508 <Initialize_UART+0x8c>)
1a0004e4:	6818      	ldr	r0, [r3, #0]
1a0004e6:	f001 fc3f 	bl	1a001d68 <xQueueSemaphoreTake>
1a0004ea:	2801      	cmp	r0, #1
1a0004ec:	d1f7      	bne.n	1a0004de <Initialize_UART+0x62>
			if (xQueueSend(queueRecieveUart, (void *) &rxbuff,1) != pdTRUE) {
1a0004ee:	2300      	movs	r3, #0
1a0004f0:	2201      	movs	r2, #1
1a0004f2:	490c      	ldr	r1, [pc, #48]	; (1a000524 <Initialize_UART+0xa8>)
1a0004f4:	4807      	ldr	r0, [pc, #28]	; (1a000514 <Initialize_UART+0x98>)
1a0004f6:	6800      	ldr	r0, [r0, #0]
1a0004f8:	f001 faba 	bl	1a001a70 <xQueueGenericSend>
1a0004fc:	2801      	cmp	r0, #1
1a0004fe:	d0ee      	beq.n	1a0004de <Initialize_UART+0x62>
				printf("error al enviar por cola queueRecieveUart");
1a000500:	4809      	ldr	r0, [pc, #36]	; (1a000528 <Initialize_UART+0xac>)
1a000502:	f004 fdb3 	bl	1a00506c <iprintf>
1a000506:	e7ea      	b.n	1a0004de <Initialize_UART+0x62>
1a000508:	10002e3c 	.word	0x10002e3c
1a00050c:	1a005f30 	.word	0x1a005f30
1a000510:	1a000301 	.word	0x1a000301
1a000514:	10002f94 	.word	0x10002f94
1a000518:	1a005f54 	.word	0x1a005f54
1a00051c:	10002f28 	.word	0x10002f28
1a000520:	1a005f80 	.word	0x1a005f80
1a000524:	100002c4 	.word	0x100002c4
1a000528:	1a005fac 	.word	0x1a005fac

1a00052c <Print_Queue>:
 *
 * NOTA: Como no se puede usar mutex en una función de atención a interrupción se usa una altenativa superadora a
 * los event groups llamada RTOS Task Notification. Es más eficiente, tiene menos overhead y ocupa menos memoria.
 *
 */
void Print_Queue(void* taskParmPtr) {
1a00052c:	b530      	push	{r4, r5, lr}
1a00052e:	b09d      	sub	sp, #116	; 0x74
	BaseType_t xStatus;
	buff_t txDatos;
	static uint8_t tamanio = 0;
	const TickType_t xMaxBlockTime = pdMS_TO_TICKS(200);
	while (TRUE) {
		xStatus = xQueueReceive(queueTransmitUart, &txDatos, portMAX_DELAY);
1a000530:	f04f 32ff 	mov.w	r2, #4294967295	; 0xffffffff
1a000534:	4669      	mov	r1, sp
1a000536:	4b17      	ldr	r3, [pc, #92]	; (1a000594 <Print_Queue+0x68>)
1a000538:	6818      	ldr	r0, [r3, #0]
1a00053a:	f001 fb8f 	bl	1a001c5c <xQueueReceive>
		if (xStatus == pdPASS) {
1a00053e:	2801      	cmp	r0, #1
1a000540:	d1f6      	bne.n	1a000530 <Print_Queue+0x4>
			pDataToSend = &DataToSend[0];
1a000542:	4d15      	ldr	r5, [pc, #84]	; (1a000598 <Print_Queue+0x6c>)
1a000544:	4b15      	ldr	r3, [pc, #84]	; (1a00059c <Print_Queue+0x70>)
1a000546:	601d      	str	r5, [r3, #0]
			DataToSend[0] = SOF_;
1a000548:	4628      	mov	r0, r5
1a00054a:	237b      	movs	r3, #123	; 0x7b
1a00054c:	f800 3b01 	strb.w	r3, [r0], #1
			memcpy(&DataToSend[1], &txDatos.buff[0], txDatos.largo);
1a000550:	f89d 4000 	ldrb.w	r4, [sp]
1a000554:	4622      	mov	r2, r4
1a000556:	f10d 0101 	add.w	r1, sp, #1
1a00055a:	f004 fccb 	bl	1a004ef4 <memcpy>
			DataToSend[txDatos.largo + 1] = EOF_;
1a00055e:	3401      	adds	r4, #1
1a000560:	237d      	movs	r3, #125	; 0x7d
1a000562:	552b      	strb	r3, [r5, r4]
			uartCallbackSet(UART_USB, UART_TRANSMITER_FREE, uartUsbSendCallback,
1a000564:	2300      	movs	r3, #0
1a000566:	4a0e      	ldr	r2, [pc, #56]	; (1a0005a0 <Print_Queue+0x74>)
1a000568:	2101      	movs	r1, #1
1a00056a:	2003      	movs	r0, #3
1a00056c:	f003 fe72 	bl	1a004254 <uartCallbackSet>
			NULL);

			uartSetPendingInterrupt(UART_USB);
1a000570:	2003      	movs	r0, #3
1a000572:	f003 fec9 	bl	1a004308 <uartSetPendingInterrupt>
			//aca se bloquea esperando la notificación proveniente de uartUsbSendCallback indicando que
			//se terminó de transmitir el paquete por la uart
			xResult = xTaskNotifyWait(0, 0xffffffff, NULL, xMaxBlockTime);
1a000576:	23c8      	movs	r3, #200	; 0xc8
1a000578:	2200      	movs	r2, #0
1a00057a:	f04f 31ff 	mov.w	r1, #4294967295	; 0xffffffff
1a00057e:	4610      	mov	r0, r2
1a000580:	f002 fb5a 	bl	1a002c38 <xTaskNotifyWait>
			xSemaphoreGive( xSemaphoreFinMedicion);
1a000584:	2300      	movs	r3, #0
1a000586:	461a      	mov	r2, r3
1a000588:	4619      	mov	r1, r3
1a00058a:	4806      	ldr	r0, [pc, #24]	; (1a0005a4 <Print_Queue+0x78>)
1a00058c:	6800      	ldr	r0, [r0, #0]
1a00058e:	f001 fa6f 	bl	1a001a70 <xQueueGenericSend>
1a000592:	e7cd      	b.n	1a000530 <Print_Queue+0x4>
1a000594:	10002f28 	.word	0x10002f28
1a000598:	10000250 	.word	0x10000250
1a00059c:	10002eac 	.word	0x10002eac
1a0005a0:	1a0003cd 	.word	0x1a0003cd
1a0005a4:	10002f1c 	.word	0x10002f1c

1a0005a8 <write_Package_ToQueueMayus>:
}
/*===================== Tipo de Operación Mayusculizar =====================*/

void write_Package_ToQueueMayus(void* taskParmPtr)

{
1a0005a8:	b510      	push	{r4, lr}
1a0005aa:	4604      	mov	r4, r0
1a0005ac:	e003      	b.n	1a0005b6 <write_Package_ToQueueMayus+0xe>
				portMAX_DELAY);

		if (xStatus != pdPASS) {
			printf(" No se escribieron datos en la cola mayusculizar.\r\n");
		}
		vTaskDelete(xTaskGetCurrentTaskHandle());
1a0005ae:	f002 fa3d 	bl	1a002a2c <xTaskGetCurrentTaskHandle>
1a0005b2:	f001 ff29 	bl	1a002408 <vTaskDelete>
		xStatus = xQueueSendToBack(queueMayusculizar, taskParmPtr,
1a0005b6:	2300      	movs	r3, #0
1a0005b8:	f04f 32ff 	mov.w	r2, #4294967295	; 0xffffffff
1a0005bc:	4621      	mov	r1, r4
1a0005be:	4805      	ldr	r0, [pc, #20]	; (1a0005d4 <write_Package_ToQueueMayus+0x2c>)
1a0005c0:	6800      	ldr	r0, [r0, #0]
1a0005c2:	f001 fa55 	bl	1a001a70 <xQueueGenericSend>
		if (xStatus != pdPASS) {
1a0005c6:	2801      	cmp	r0, #1
1a0005c8:	d0f1      	beq.n	1a0005ae <write_Package_ToQueueMayus+0x6>
			printf(" No se escribieron datos en la cola mayusculizar.\r\n");
1a0005ca:	4803      	ldr	r0, [pc, #12]	; (1a0005d8 <write_Package_ToQueueMayus+0x30>)
1a0005cc:	f004 fdc2 	bl	1a005154 <puts>
1a0005d0:	e7ed      	b.n	1a0005ae <write_Package_ToQueueMayus+0x6>
1a0005d2:	bf00      	nop
1a0005d4:	10002f98 	.word	0x10002f98
1a0005d8:	1a0061e8 	.word	0x1a0061e8

1a0005dc <write_Package_ToQueueMinus>:

/*===================== Tipo de Operación Minusculizar =====================*/

void write_Package_ToQueueMinus(void* taskParmPtr)

{
1a0005dc:	b510      	push	{r4, lr}
1a0005de:	4604      	mov	r4, r0
1a0005e0:	e003      	b.n	1a0005ea <write_Package_ToQueueMinus+0xe>
				portMAX_DELAY);

		if (xStatus != pdPASS) {
			printf(" No se escribieron datos en la cola minusculizar.\r\n");
		}
		vTaskDelete(xTaskGetCurrentTaskHandle());
1a0005e2:	f002 fa23 	bl	1a002a2c <xTaskGetCurrentTaskHandle>
1a0005e6:	f001 ff0f 	bl	1a002408 <vTaskDelete>
		xStatus = xQueueSendToBack(queueMinusculizar, taskParmPtr,
1a0005ea:	2300      	movs	r3, #0
1a0005ec:	f04f 32ff 	mov.w	r2, #4294967295	; 0xffffffff
1a0005f0:	4621      	mov	r1, r4
1a0005f2:	4805      	ldr	r0, [pc, #20]	; (1a000608 <write_Package_ToQueueMinus+0x2c>)
1a0005f4:	6800      	ldr	r0, [r0, #0]
1a0005f6:	f001 fa3b 	bl	1a001a70 <xQueueGenericSend>
		if (xStatus != pdPASS) {
1a0005fa:	2801      	cmp	r0, #1
1a0005fc:	d0f1      	beq.n	1a0005e2 <write_Package_ToQueueMinus+0x6>
			printf(" No se escribieron datos en la cola minusculizar.\r\n");
1a0005fe:	4803      	ldr	r0, [pc, #12]	; (1a00060c <write_Package_ToQueueMinus+0x30>)
1a000600:	f004 fda8 	bl	1a005154 <puts>
1a000604:	e7ed      	b.n	1a0005e2 <write_Package_ToQueueMinus+0x6>
1a000606:	bf00      	nop
1a000608:	10002f20 	.word	0x10002f20
1a00060c:	1a00621c 	.word	0x1a00621c

1a000610 <cargarStructTx>:
}

/* Estas funciones llenan la estructura buff_t con los datos que se pasarán al driver para que los
 * transmita por la UART con el formato especificado*/

static void cargarStructTx(buff_t *buff, datos_t *ReceivedStructure) {
1a000610:	b530      	push	{r4, r5, lr}
1a000612:	b083      	sub	sp, #12
1a000614:	4604      	mov	r4, r0
1a000616:	460d      	mov	r5, r1
	uint8_t myStr[5];
	buff->largo = ReceivedStructure->tamanio + 3;
1a000618:	684b      	ldr	r3, [r1, #4]
1a00061a:	3303      	adds	r3, #3
1a00061c:	7003      	strb	r3, [r0, #0]
	buff->buff[0] = ReceivedStructure->op;
1a00061e:	780b      	ldrb	r3, [r1, #0]
1a000620:	7043      	strb	r3, [r0, #1]
	sprintf(&myStr[0], "%2u", ReceivedStructure->tamanio);
1a000622:	684a      	ldr	r2, [r1, #4]
1a000624:	490a      	ldr	r1, [pc, #40]	; (1a000650 <cargarStructTx+0x40>)
1a000626:	4668      	mov	r0, sp
1a000628:	f004 fd9c 	bl	1a005164 <siprintf>

	if (myStr[0] == ' ')
1a00062c:	f89d 3000 	ldrb.w	r3, [sp]
1a000630:	2b20      	cmp	r3, #32
1a000632:	d00a      	beq.n	1a00064a <cargarStructTx+0x3a>
		buff->buff[1] = '0';
	else
		buff->buff[1] = myStr[0];
1a000634:	70a3      	strb	r3, [r4, #2]
	buff->buff[2] = myStr[1];
1a000636:	f89d 3001 	ldrb.w	r3, [sp, #1]
1a00063a:	70e3      	strb	r3, [r4, #3]
	memcpy(&buff->buff[3], ReceivedStructure->pDatos, buff->largo);
1a00063c:	7822      	ldrb	r2, [r4, #0]
1a00063e:	68a9      	ldr	r1, [r5, #8]
1a000640:	1d20      	adds	r0, r4, #4
1a000642:	f004 fc57 	bl	1a004ef4 <memcpy>
}
1a000646:	b003      	add	sp, #12
1a000648:	bd30      	pop	{r4, r5, pc}
		buff->buff[1] = '0';
1a00064a:	2330      	movs	r3, #48	; 0x30
1a00064c:	70a3      	strb	r3, [r4, #2]
1a00064e:	e7f2      	b.n	1a000636 <cargarStructTx+0x26>
1a000650:	1a006180 	.word	0x1a006180

1a000654 <EncolaReporte>:

}

static buff_t buffEncRep;

void EncolaReporte(datos_t reporte, QueueHandle_t cola) {
1a000654:	b530      	push	{r4, r5, lr}
1a000656:	b087      	sub	sp, #28
1a000658:	ac01      	add	r4, sp, #4
1a00065a:	e884 0007 	stmia.w	r4, {r0, r1, r2}
1a00065e:	461d      	mov	r5, r3
	uint8_t myStr[5];

	buffEncRep.largo = reporte.tamanio + 3;
1a000660:	9a02      	ldr	r2, [sp, #8]
1a000662:	1cd1      	adds	r1, r2, #3
1a000664:	4b14      	ldr	r3, [pc, #80]	; (1a0006b8 <EncolaReporte+0x64>)
1a000666:	7019      	strb	r1, [r3, #0]
	buffEncRep.buff[0] = reporte.op;
1a000668:	f89d 1004 	ldrb.w	r1, [sp, #4]
1a00066c:	7059      	strb	r1, [r3, #1]
	sprintf(&myStr[0], "%2u", reporte.tamanio);
1a00066e:	4913      	ldr	r1, [pc, #76]	; (1a0006bc <EncolaReporte+0x68>)
1a000670:	a804      	add	r0, sp, #16
1a000672:	f004 fd77 	bl	1a005164 <siprintf>

	if (myStr[0] == ' ')
1a000676:	f89d 3010 	ldrb.w	r3, [sp, #16]
1a00067a:	2b20      	cmp	r3, #32
1a00067c:	d018      	beq.n	1a0006b0 <EncolaReporte+0x5c>
		buffEncRep.buff[1] = '0';
	else
		buffEncRep.buff[1] = myStr[0];
1a00067e:	4a0e      	ldr	r2, [pc, #56]	; (1a0006b8 <EncolaReporte+0x64>)
1a000680:	7093      	strb	r3, [r2, #2]
	buffEncRep.buff[2] = myStr[1];
1a000682:	f89d 3011 	ldrb.w	r3, [sp, #17]
1a000686:	4c0c      	ldr	r4, [pc, #48]	; (1a0006b8 <EncolaReporte+0x64>)
1a000688:	70e3      	strb	r3, [r4, #3]
	memcpy(&buffEncRep.buff[3], reporte.pDatos, buffEncRep.largo);
1a00068a:	4620      	mov	r0, r4
1a00068c:	f810 2b04 	ldrb.w	r2, [r0], #4
1a000690:	9903      	ldr	r1, [sp, #12]
1a000692:	f004 fc2f 	bl	1a004ef4 <memcpy>

	if (xQueueSend(cola, &buffEncRep, 1) != pdTRUE) {
1a000696:	2300      	movs	r3, #0
1a000698:	2201      	movs	r2, #1
1a00069a:	4621      	mov	r1, r4
1a00069c:	4628      	mov	r0, r5
1a00069e:	f001 f9e7 	bl	1a001a70 <xQueueGenericSend>
1a0006a2:	2801      	cmp	r0, #1
1a0006a4:	d002      	beq.n	1a0006ac <EncolaReporte+0x58>
		printf("error al enviar por cola queueTransmitUart");
1a0006a6:	4806      	ldr	r0, [pc, #24]	; (1a0006c0 <EncolaReporte+0x6c>)
1a0006a8:	f004 fce0 	bl	1a00506c <iprintf>
	}
}
1a0006ac:	b007      	add	sp, #28
1a0006ae:	bd30      	pop	{r4, r5, pc}
		buffEncRep.buff[1] = '0';
1a0006b0:	4b01      	ldr	r3, [pc, #4]	; (1a0006b8 <EncolaReporte+0x64>)
1a0006b2:	2230      	movs	r2, #48	; 0x30
1a0006b4:	709a      	strb	r2, [r3, #2]
1a0006b6:	e7e4      	b.n	1a000682 <EncolaReporte+0x2e>
1a0006b8:	10000340 	.word	0x10000340
1a0006bc:	1a006180 	.word	0x1a006180
1a0006c0:	1a0060b8 	.word	0x1a0060b8

1a0006c4 <process_Package_FromQueuePerformance>:
void process_Package_FromQueuePerformance(void* taskParmPtr) {
1a0006c4:	b570      	push	{r4, r5, r6, lr}
1a0006c6:	b0a4      	sub	sp, #144	; 0x90
1a0006c8:	e067      	b.n	1a00079a <process_Package_FromQueuePerformance+0xd6>
					*ptr = toupper(*ptr); /* Función que convierte los datos a mayúsculas*/
1a0006ca:	f806 5b01 	strb.w	r5, [r6], #1
				for (i = 0; i < xReceivedStructure->datos->tamanio; i++) {
1a0006ce:	3401      	adds	r4, #1
1a0006d0:	b2e4      	uxtb	r4, r4
1a0006d2:	9b23      	ldr	r3, [sp, #140]	; 0x8c
1a0006d4:	6a1b      	ldr	r3, [r3, #32]
1a0006d6:	685a      	ldr	r2, [r3, #4]
1a0006d8:	4294      	cmp	r4, r2
1a0006da:	da0a      	bge.n	1a0006f2 <process_Package_FromQueuePerformance+0x2e>
					*ptr = toupper(*ptr); /* Función que convierte los datos a mayúsculas*/
1a0006dc:	7835      	ldrb	r5, [r6, #0]
1a0006de:	f004 fbe9 	bl	1a004eb4 <__locale_ctype_ptr>
1a0006e2:	4428      	add	r0, r5
1a0006e4:	7843      	ldrb	r3, [r0, #1]
1a0006e6:	f003 0303 	and.w	r3, r3, #3
1a0006ea:	2b02      	cmp	r3, #2
1a0006ec:	d1ed      	bne.n	1a0006ca <process_Package_FromQueuePerformance+0x6>
1a0006ee:	3d20      	subs	r5, #32
1a0006f0:	e7eb      	b.n	1a0006ca <process_Package_FromQueuePerformance+0x6>
				xReceivedStructure->datos->op=RESP_MEAS_PERFORMANCE;
1a0006f2:	2235      	movs	r2, #53	; 0x35
1a0006f4:	701a      	strb	r2, [r3, #0]
				cargarStructTx(&buff, xReceivedStructure->datos);
1a0006f6:	9b23      	ldr	r3, [sp, #140]	; 0x8c
1a0006f8:	6a19      	ldr	r1, [r3, #32]
1a0006fa:	a807      	add	r0, sp, #28
1a0006fc:	f7ff ff88 	bl	1a000610 <cargarStructTx>
				if (xQueueSend(queueTransmitUart, &buff,
1a000700:	2300      	movs	r3, #0
1a000702:	2201      	movs	r2, #1
1a000704:	a907      	add	r1, sp, #28
1a000706:	482f      	ldr	r0, [pc, #188]	; (1a0007c4 <process_Package_FromQueuePerformance+0x100>)
1a000708:	6800      	ldr	r0, [r0, #0]
1a00070a:	f001 f9b1 	bl	1a001a70 <xQueueGenericSend>
1a00070e:	2801      	cmp	r0, #1
1a000710:	d131      	bne.n	1a000776 <process_Package_FromQueuePerformance+0xb2>
				xReceivedStructure->tiempo_fin = xTaskGetTickCount(); //registra cuando se envían los datos por la cola de transmision
1a000712:	9c23      	ldr	r4, [sp, #140]	; 0x8c
1a000714:	f001 ff56 	bl	1a0025c4 <xTaskGetTickCount>
1a000718:	6160      	str	r0, [r4, #20]
				xSemaphoreTake(xSemaphoreFinMedicion,1);
1a00071a:	4c2b      	ldr	r4, [pc, #172]	; (1a0007c8 <process_Package_FromQueuePerformance+0x104>)
1a00071c:	2101      	movs	r1, #1
1a00071e:	6820      	ldr	r0, [r4, #0]
1a000720:	f001 fb22 	bl	1a001d68 <xQueueSemaphoreTake>
				if ( xSemaphoreTake(xSemaphoreFinMedicion,portMAX_DELAY) == pdTRUE) {
1a000724:	f04f 31ff 	mov.w	r1, #4294967295	; 0xffffffff
1a000728:	6820      	ldr	r0, [r4, #0]
1a00072a:	f001 fb1d 	bl	1a001d68 <xQueueSemaphoreTake>
1a00072e:	2801      	cmp	r0, #1
1a000730:	d128      	bne.n	1a000784 <process_Package_FromQueuePerformance+0xc0>
					xReceivedStructure->tiempo_salida =	infoDriverTx.tiempo_emision_STX;
1a000732:	9923      	ldr	r1, [sp, #140]	; 0x8c
1a000734:	4b25      	ldr	r3, [pc, #148]	; (1a0007cc <process_Package_FromQueuePerformance+0x108>)
1a000736:	6818      	ldr	r0, [r3, #0]
1a000738:	6188      	str	r0, [r1, #24]
					xReceivedStructure->tiempo_transmision = infoDriverTx.tiempo_emision_ETX;
1a00073a:	685d      	ldr	r5, [r3, #4]
1a00073c:	61cd      	str	r5, [r1, #28]
					 reporte.op = REP_PERFORMANCE;
1a00073e:	2336      	movs	r3, #54	; 0x36
1a000740:	f88d 3010 	strb.w	r3, [sp, #16]
					 reporte.pDatos = repBuff;
1a000744:	4c22      	ldr	r4, [pc, #136]	; (1a0007d0 <process_Package_FromQueuePerformance+0x10c>)
1a000746:	9406      	str	r4, [sp, #24]
					 sprintf(repBuff,"Tiempos: llega=%d, recep=%d, ini=%d, fin=%d, sal=%d, trans=%d",
1a000748:	68cb      	ldr	r3, [r1, #12]
1a00074a:	688a      	ldr	r2, [r1, #8]
1a00074c:	9503      	str	r5, [sp, #12]
1a00074e:	9002      	str	r0, [sp, #8]
1a000750:	6948      	ldr	r0, [r1, #20]
1a000752:	9001      	str	r0, [sp, #4]
1a000754:	6909      	ldr	r1, [r1, #16]
1a000756:	9100      	str	r1, [sp, #0]
1a000758:	491e      	ldr	r1, [pc, #120]	; (1a0007d4 <process_Package_FromQueuePerformance+0x110>)
1a00075a:	4620      	mov	r0, r4
1a00075c:	f004 fd02 	bl	1a005164 <siprintf>
					 reporte.tamanio = strlen(repBuff);
1a000760:	4620      	mov	r0, r4
1a000762:	f004 fd62 	bl	1a00522a <strlen>
1a000766:	9005      	str	r0, [sp, #20]
					 EncolaReporte(reporte, queueTransmitUart);
1a000768:	4b16      	ldr	r3, [pc, #88]	; (1a0007c4 <process_Package_FromQueuePerformance+0x100>)
1a00076a:	681b      	ldr	r3, [r3, #0]
1a00076c:	aa04      	add	r2, sp, #16
1a00076e:	ca07      	ldmia	r2, {r0, r1, r2}
1a000770:	f7ff ff70 	bl	1a000654 <EncolaReporte>
1a000774:	e006      	b.n	1a000784 <process_Package_FromQueuePerformance+0xc0>
					printf("error al enviar por cola queueTransmitUart");
1a000776:	4818      	ldr	r0, [pc, #96]	; (1a0007d8 <process_Package_FromQueuePerformance+0x114>)
1a000778:	f004 fc78 	bl	1a00506c <iprintf>
1a00077c:	e7c9      	b.n	1a000712 <process_Package_FromQueuePerformance+0x4e>
			printf("No se leyeron datos de la cola.\r\n");
1a00077e:	4817      	ldr	r0, [pc, #92]	; (1a0007dc <process_Package_FromQueuePerformance+0x118>)
1a000780:	f004 fce8 	bl	1a005154 <puts>
		vPortFree(xReceivedStructure->datos);
1a000784:	9b23      	ldr	r3, [sp, #140]	; 0x8c
1a000786:	6a18      	ldr	r0, [r3, #32]
1a000788:	f001 f826 	bl	1a0017d8 <vPortFree>
		vPortFree(xReceivedStructure);
1a00078c:	9823      	ldr	r0, [sp, #140]	; 0x8c
1a00078e:	f001 f823 	bl	1a0017d8 <vPortFree>
		vTaskDelete(xTaskGetCurrentTaskHandle());
1a000792:	f002 f94b 	bl	1a002a2c <xTaskGetCurrentTaskHandle>
1a000796:	f001 fe37 	bl	1a002408 <vTaskDelete>
		xStatus = xQueueReceive(queueMedirPerformance, &xReceivedStructure,
1a00079a:	f04f 32ff 	mov.w	r2, #4294967295	; 0xffffffff
1a00079e:	a923      	add	r1, sp, #140	; 0x8c
1a0007a0:	4b0f      	ldr	r3, [pc, #60]	; (1a0007e0 <process_Package_FromQueuePerformance+0x11c>)
1a0007a2:	6818      	ldr	r0, [r3, #0]
1a0007a4:	f001 fa5a 	bl	1a001c5c <xQueueReceive>
		if (xStatus == pdPASS) {
1a0007a8:	2801      	cmp	r0, #1
1a0007aa:	d1e8      	bne.n	1a00077e <process_Package_FromQueuePerformance+0xba>
			if (xReceivedStructure->datos->op == MEASURE_PERFORMANCE) { //verifica que todo esta OK
1a0007ac:	9c23      	ldr	r4, [sp, #140]	; 0x8c
1a0007ae:	6a23      	ldr	r3, [r4, #32]
1a0007b0:	f993 2000 	ldrsb.w	r2, [r3]
1a0007b4:	2a34      	cmp	r2, #52	; 0x34
1a0007b6:	d1e5      	bne.n	1a000784 <process_Package_FromQueuePerformance+0xc0>
				ptr = xReceivedStructure->datos->pDatos; //si es asi, convierte a mayúsculas
1a0007b8:	689e      	ldr	r6, [r3, #8]
				xReceivedStructure->tiempo_inicio = xTaskGetTickCount(); //registra cuando se extrae el puntero a los datos a procesar
1a0007ba:	f001 ff03 	bl	1a0025c4 <xTaskGetTickCount>
1a0007be:	6120      	str	r0, [r4, #16]
				for (i = 0; i < xReceivedStructure->datos->tamanio; i++) {
1a0007c0:	2400      	movs	r4, #0
1a0007c2:	e786      	b.n	1a0006d2 <process_Package_FromQueuePerformance+0xe>
1a0007c4:	10002f28 	.word	0x10002f28
1a0007c8:	10002f1c 	.word	0x10002f1c
1a0007cc:	10002e34 	.word	0x10002e34
1a0007d0:	10002f9c 	.word	0x10002f9c
1a0007d4:	1a006184 	.word	0x1a006184
1a0007d8:	1a0060b8 	.word	0x1a0060b8
1a0007dc:	1a0061c4 	.word	0x1a0061c4
1a0007e0:	10002f24 	.word	0x10002f24

1a0007e4 <cargarRemainingStack>:
static void cargarRemainingStack(buff_t *pbuff) {
1a0007e4:	b510      	push	{r4, lr}
1a0007e6:	b08c      	sub	sp, #48	; 0x30
1a0007e8:	4604      	mov	r4, r0
	vTaskGetInfo(xTaskGetCurrentTaskHandle(), &xTaskDetails, pdTRUE, eInvalid);
1a0007ea:	f002 f91f 	bl	1a002a2c <xTaskGetCurrentTaskHandle>
1a0007ee:	2305      	movs	r3, #5
1a0007f0:	2201      	movs	r2, #1
1a0007f2:	4669      	mov	r1, sp
1a0007f4:	f002 f8de 	bl	1a0029b4 <vTaskGetInfo>
	pbuff->largo = sprintf(&pbuff->buff[3], "Unused Stack = %d", xi) + 3;
1a0007f8:	f8bd 2020 	ldrh.w	r2, [sp, #32]
1a0007fc:	490c      	ldr	r1, [pc, #48]	; (1a000830 <cargarRemainingStack+0x4c>)
1a0007fe:	1d20      	adds	r0, r4, #4
1a000800:	f004 fcb0 	bl	1a005164 <siprintf>
1a000804:	1cc2      	adds	r2, r0, #3
1a000806:	b2d2      	uxtb	r2, r2
1a000808:	7022      	strb	r2, [r4, #0]
	pbuff->buff[0] = '3';
1a00080a:	2333      	movs	r3, #51	; 0x33
1a00080c:	7063      	strb	r3, [r4, #1]
	sprintf(&xstr[0], "%2u", pbuff->largo);
1a00080e:	4909      	ldr	r1, [pc, #36]	; (1a000834 <cargarRemainingStack+0x50>)
1a000810:	a809      	add	r0, sp, #36	; 0x24
1a000812:	f004 fca7 	bl	1a005164 <siprintf>
	if (xstr[0] == ' ')
1a000816:	f89d 3024 	ldrb.w	r3, [sp, #36]	; 0x24
1a00081a:	2b20      	cmp	r3, #32
1a00081c:	d005      	beq.n	1a00082a <cargarRemainingStack+0x46>
		pbuff->buff[1] = xstr[0];
1a00081e:	70a3      	strb	r3, [r4, #2]
	pbuff->buff[2] = xstr[1];
1a000820:	f89d 3025 	ldrb.w	r3, [sp, #37]	; 0x25
1a000824:	70e3      	strb	r3, [r4, #3]
}
1a000826:	b00c      	add	sp, #48	; 0x30
1a000828:	bd10      	pop	{r4, pc}
		pbuff->buff[1] = '0';
1a00082a:	2330      	movs	r3, #48	; 0x30
1a00082c:	70a3      	strb	r3, [r4, #2]
1a00082e:	e7f7      	b.n	1a000820 <cargarRemainingStack+0x3c>
1a000830:	1a00616c 	.word	0x1a00616c
1a000834:	1a006180 	.word	0x1a006180

1a000838 <read_process_Package_FromQueueMayus>:
{
1a000838:	b570      	push	{r4, r5, r6, lr}
1a00083a:	b0a0      	sub	sp, #128	; 0x80
1a00083c:	e03c      	b.n	1a0008b8 <read_process_Package_FromQueueMayus+0x80>
					*ptr = toupper(*ptr); /* Función que convierte los datos a mayúsculas*/
1a00083e:	f806 5b01 	strb.w	r5, [r6], #1
				for (i = 0; i < xReceivedStructure.tamanio; i++) {
1a000842:	3401      	adds	r4, #1
1a000844:	b2e4      	uxtb	r4, r4
1a000846:	9b1e      	ldr	r3, [sp, #120]	; 0x78
1a000848:	429c      	cmp	r4, r3
1a00084a:	da0a      	bge.n	1a000862 <read_process_Package_FromQueueMayus+0x2a>
					*ptr = toupper(*ptr); /* Función que convierte los datos a mayúsculas*/
1a00084c:	7835      	ldrb	r5, [r6, #0]
1a00084e:	f004 fb31 	bl	1a004eb4 <__locale_ctype_ptr>
1a000852:	4428      	add	r0, r5
1a000854:	7843      	ldrb	r3, [r0, #1]
1a000856:	f003 0303 	and.w	r3, r3, #3
1a00085a:	2b02      	cmp	r3, #2
1a00085c:	d1ef      	bne.n	1a00083e <read_process_Package_FromQueueMayus+0x6>
1a00085e:	3d20      	subs	r5, #32
1a000860:	e7ed      	b.n	1a00083e <read_process_Package_FromQueueMayus+0x6>
				cargarStructTx(&buff, &xReceivedStructure);
1a000862:	a91d      	add	r1, sp, #116	; 0x74
1a000864:	a801      	add	r0, sp, #4
1a000866:	f7ff fed3 	bl	1a000610 <cargarStructTx>
				if (xQueueSend(queueTransmitUart, &buff,
1a00086a:	2300      	movs	r3, #0
1a00086c:	2201      	movs	r2, #1
1a00086e:	a901      	add	r1, sp, #4
1a000870:	4819      	ldr	r0, [pc, #100]	; (1a0008d8 <read_process_Package_FromQueueMayus+0xa0>)
1a000872:	6800      	ldr	r0, [r0, #0]
1a000874:	f001 f8fc 	bl	1a001a70 <xQueueGenericSend>
1a000878:	2801      	cmp	r0, #1
1a00087a:	d10f      	bne.n	1a00089c <read_process_Package_FromQueueMayus+0x64>
				cargarRemainingStack(&buff);
1a00087c:	a801      	add	r0, sp, #4
1a00087e:	f7ff ffb1 	bl	1a0007e4 <cargarRemainingStack>
				if (xQueueSend(queueTransmitUart, &buff,
1a000882:	2300      	movs	r3, #0
1a000884:	2201      	movs	r2, #1
1a000886:	a901      	add	r1, sp, #4
1a000888:	4813      	ldr	r0, [pc, #76]	; (1a0008d8 <read_process_Package_FromQueueMayus+0xa0>)
1a00088a:	6800      	ldr	r0, [r0, #0]
1a00088c:	f001 f8f0 	bl	1a001a70 <xQueueGenericSend>
1a000890:	2801      	cmp	r0, #1
1a000892:	d00a      	beq.n	1a0008aa <read_process_Package_FromQueueMayus+0x72>
					printf("error al enviar por cola queueRecieveUart");
1a000894:	4811      	ldr	r0, [pc, #68]	; (1a0008dc <read_process_Package_FromQueueMayus+0xa4>)
1a000896:	f004 fbe9 	bl	1a00506c <iprintf>
1a00089a:	e006      	b.n	1a0008aa <read_process_Package_FromQueueMayus+0x72>
					printf("error al enviar por cola queueRecieveUart");
1a00089c:	480f      	ldr	r0, [pc, #60]	; (1a0008dc <read_process_Package_FromQueueMayus+0xa4>)
1a00089e:	f004 fbe5 	bl	1a00506c <iprintf>
1a0008a2:	e7eb      	b.n	1a00087c <read_process_Package_FromQueueMayus+0x44>
			printf("No se leyeron datos de la cola.\r\n");
1a0008a4:	480e      	ldr	r0, [pc, #56]	; (1a0008e0 <read_process_Package_FromQueueMayus+0xa8>)
1a0008a6:	f004 fc55 	bl	1a005154 <puts>
		vPortFree(xReceivedStructure.pDatos);
1a0008aa:	981f      	ldr	r0, [sp, #124]	; 0x7c
1a0008ac:	f000 ff94 	bl	1a0017d8 <vPortFree>
		vTaskDelete(xTaskGetCurrentTaskHandle());
1a0008b0:	f002 f8bc 	bl	1a002a2c <xTaskGetCurrentTaskHandle>
1a0008b4:	f001 fda8 	bl	1a002408 <vTaskDelete>
		xStatus = xQueueReceive(queueMayusculizar, &xReceivedStructure,
1a0008b8:	f04f 32ff 	mov.w	r2, #4294967295	; 0xffffffff
1a0008bc:	a91d      	add	r1, sp, #116	; 0x74
1a0008be:	4b09      	ldr	r3, [pc, #36]	; (1a0008e4 <read_process_Package_FromQueueMayus+0xac>)
1a0008c0:	6818      	ldr	r0, [r3, #0]
1a0008c2:	f001 f9cb 	bl	1a001c5c <xQueueReceive>
		if (xStatus == pdPASS)
1a0008c6:	2801      	cmp	r0, #1
1a0008c8:	d1ec      	bne.n	1a0008a4 <read_process_Package_FromQueueMayus+0x6c>
			if (xReceivedStructure.op == UPPERCASE) {
1a0008ca:	f99d 3074 	ldrsb.w	r3, [sp, #116]	; 0x74
1a0008ce:	2b30      	cmp	r3, #48	; 0x30
1a0008d0:	d1eb      	bne.n	1a0008aa <read_process_Package_FromQueueMayus+0x72>
				ptr = xReceivedStructure.pDatos;
1a0008d2:	9e1f      	ldr	r6, [sp, #124]	; 0x7c
				for (i = 0; i < xReceivedStructure.tamanio; i++) {
1a0008d4:	2400      	movs	r4, #0
1a0008d6:	e7b6      	b.n	1a000846 <read_process_Package_FromQueueMayus+0xe>
1a0008d8:	10002f28 	.word	0x10002f28
1a0008dc:	1a005fac 	.word	0x1a005fac
1a0008e0:	1a0061c4 	.word	0x1a0061c4
1a0008e4:	10002f98 	.word	0x10002f98

1a0008e8 <read_process_Package_FromQueueMinus>:
{
1a0008e8:	b570      	push	{r4, r5, r6, lr}
1a0008ea:	b0a0      	sub	sp, #128	; 0x80
1a0008ec:	e034      	b.n	1a000958 <read_process_Package_FromQueueMinus+0x70>
				ptr = xReceivedStructure.pDatos;
1a0008ee:	9e1f      	ldr	r6, [sp, #124]	; 0x7c
				for (i = 0; i < xReceivedStructure.tamanio; i++) {
1a0008f0:	2400      	movs	r4, #0
1a0008f2:	e003      	b.n	1a0008fc <read_process_Package_FromQueueMinus+0x14>
					*ptr = tolower(*ptr); /* Función que convierte los datos a minúsculas*/
1a0008f4:	f806 5b01 	strb.w	r5, [r6], #1
				for (i = 0; i < xReceivedStructure.tamanio; i++) {
1a0008f8:	3401      	adds	r4, #1
1a0008fa:	b2e4      	uxtb	r4, r4
1a0008fc:	9b1e      	ldr	r3, [sp, #120]	; 0x78
1a0008fe:	429c      	cmp	r4, r3
1a000900:	da0a      	bge.n	1a000918 <read_process_Package_FromQueueMinus+0x30>
					*ptr = tolower(*ptr); /* Función que convierte los datos a minúsculas*/
1a000902:	7835      	ldrb	r5, [r6, #0]
1a000904:	f004 fad6 	bl	1a004eb4 <__locale_ctype_ptr>
1a000908:	4428      	add	r0, r5
1a00090a:	7843      	ldrb	r3, [r0, #1]
1a00090c:	f003 0303 	and.w	r3, r3, #3
1a000910:	2b01      	cmp	r3, #1
1a000912:	d1ef      	bne.n	1a0008f4 <read_process_Package_FromQueueMinus+0xc>
1a000914:	3520      	adds	r5, #32
1a000916:	e7ed      	b.n	1a0008f4 <read_process_Package_FromQueueMinus+0xc>
				cargarStructTx(&buff, &xReceivedStructure);
1a000918:	a91d      	add	r1, sp, #116	; 0x74
1a00091a:	a801      	add	r0, sp, #4
1a00091c:	f7ff fe78 	bl	1a000610 <cargarStructTx>
				if (xQueueSend(queueTransmitUart, &buff,
1a000920:	2300      	movs	r3, #0
1a000922:	2201      	movs	r2, #1
1a000924:	a901      	add	r1, sp, #4
1a000926:	4819      	ldr	r0, [pc, #100]	; (1a00098c <read_process_Package_FromQueueMinus+0xa4>)
1a000928:	6800      	ldr	r0, [r0, #0]
1a00092a:	f001 f8a1 	bl	1a001a70 <xQueueGenericSend>
1a00092e:	2801      	cmp	r0, #1
1a000930:	d123      	bne.n	1a00097a <read_process_Package_FromQueueMinus+0x92>
				cargarRemainingStack(&buff);
1a000932:	a801      	add	r0, sp, #4
1a000934:	f7ff ff56 	bl	1a0007e4 <cargarRemainingStack>
				if (xQueueSend(queueTransmitUart, &buff,
1a000938:	2300      	movs	r3, #0
1a00093a:	2201      	movs	r2, #1
1a00093c:	a901      	add	r1, sp, #4
1a00093e:	4813      	ldr	r0, [pc, #76]	; (1a00098c <read_process_Package_FromQueueMinus+0xa4>)
1a000940:	6800      	ldr	r0, [r0, #0]
1a000942:	f001 f895 	bl	1a001a70 <xQueueGenericSend>
1a000946:	2801      	cmp	r0, #1
1a000948:	d11b      	bne.n	1a000982 <read_process_Package_FromQueueMinus+0x9a>
		vPortFree(xReceivedStructure.pDatos);
1a00094a:	981f      	ldr	r0, [sp, #124]	; 0x7c
1a00094c:	f000 ff44 	bl	1a0017d8 <vPortFree>
		vTaskDelete(xTaskGetCurrentTaskHandle());
1a000950:	f002 f86c 	bl	1a002a2c <xTaskGetCurrentTaskHandle>
1a000954:	f001 fd58 	bl	1a002408 <vTaskDelete>
		xStatus = xQueueReceive(queueMinusculizar, &xReceivedStructure,
1a000958:	f04f 32ff 	mov.w	r2, #4294967295	; 0xffffffff
1a00095c:	a91d      	add	r1, sp, #116	; 0x74
1a00095e:	4b0c      	ldr	r3, [pc, #48]	; (1a000990 <read_process_Package_FromQueueMinus+0xa8>)
1a000960:	6818      	ldr	r0, [r3, #0]
1a000962:	f001 f97b 	bl	1a001c5c <xQueueReceive>
		if (xStatus == pdPASS) {
1a000966:	2801      	cmp	r0, #1
1a000968:	d1ef      	bne.n	1a00094a <read_process_Package_FromQueueMinus+0x62>
			if (xReceivedStructure.op == LOWERCASE) {
1a00096a:	f99d 3074 	ldrsb.w	r3, [sp, #116]	; 0x74
1a00096e:	2b31      	cmp	r3, #49	; 0x31
1a000970:	d0bd      	beq.n	1a0008ee <read_process_Package_FromQueueMinus+0x6>
				printf("No se leyeron datos de la cola.\r\n");
1a000972:	4808      	ldr	r0, [pc, #32]	; (1a000994 <read_process_Package_FromQueueMinus+0xac>)
1a000974:	f004 fbee 	bl	1a005154 <puts>
1a000978:	e7e7      	b.n	1a00094a <read_process_Package_FromQueueMinus+0x62>
					printf("error al enviar por cola queueRecieveUart");
1a00097a:	4807      	ldr	r0, [pc, #28]	; (1a000998 <read_process_Package_FromQueueMinus+0xb0>)
1a00097c:	f004 fb76 	bl	1a00506c <iprintf>
1a000980:	e7d7      	b.n	1a000932 <read_process_Package_FromQueueMinus+0x4a>
					printf("error al enviar por cola queueRecieveUart");
1a000982:	4805      	ldr	r0, [pc, #20]	; (1a000998 <read_process_Package_FromQueueMinus+0xb0>)
1a000984:	f004 fb72 	bl	1a00506c <iprintf>
1a000988:	e7df      	b.n	1a00094a <read_process_Package_FromQueueMinus+0x62>
1a00098a:	bf00      	nop
1a00098c:	10002f28 	.word	0x10002f28
1a000990:	10002f20 	.word	0x10002f20
1a000994:	1a0061c4 	.word	0x1a0061c4
1a000998:	1a005fac 	.word	0x1a005fac

1a00099c <cargarRemainingHeap>:
static void cargarRemainingHeap(buff_t *pbuff) {
1a00099c:	b510      	push	{r4, lr}
1a00099e:	b084      	sub	sp, #16
1a0009a0:	4604      	mov	r4, r0
	remainingHeap = xPortGetFreeHeapSize();
1a0009a2:	f000 ff3f 	bl	1a001824 <xPortGetFreeHeapSize>
	pbuff->largo = sprintf(&pbuff->buff[3], "Remainig Heap= %d", remainingHeap)
1a0009a6:	4602      	mov	r2, r0
1a0009a8:	490c      	ldr	r1, [pc, #48]	; (1a0009dc <cargarRemainingHeap+0x40>)
1a0009aa:	1d20      	adds	r0, r4, #4
1a0009ac:	f004 fbda 	bl	1a005164 <siprintf>
			+ 3;
1a0009b0:	1cc2      	adds	r2, r0, #3
1a0009b2:	b2d2      	uxtb	r2, r2
	pbuff->largo = sprintf(&pbuff->buff[3], "Remainig Heap= %d", remainingHeap)
1a0009b4:	7022      	strb	r2, [r4, #0]
	pbuff->buff[0] = '3';
1a0009b6:	2333      	movs	r3, #51	; 0x33
1a0009b8:	7063      	strb	r3, [r4, #1]
	sprintf(&xstr[0], "%2u", pbuff->largo);
1a0009ba:	4909      	ldr	r1, [pc, #36]	; (1a0009e0 <cargarRemainingHeap+0x44>)
1a0009bc:	a801      	add	r0, sp, #4
1a0009be:	f004 fbd1 	bl	1a005164 <siprintf>
	if (xstr[0] == ' ')
1a0009c2:	f89d 3004 	ldrb.w	r3, [sp, #4]
1a0009c6:	2b20      	cmp	r3, #32
1a0009c8:	d005      	beq.n	1a0009d6 <cargarRemainingHeap+0x3a>
		pbuff->buff[1] = xstr[0];
1a0009ca:	70a3      	strb	r3, [r4, #2]
	pbuff->buff[2] = xstr[1];
1a0009cc:	f89d 3005 	ldrb.w	r3, [sp, #5]
1a0009d0:	70e3      	strb	r3, [r4, #3]
}
1a0009d2:	b004      	add	sp, #16
1a0009d4:	bd10      	pop	{r4, pc}
		pbuff->buff[1] = '0';
1a0009d6:	2330      	movs	r3, #48	; 0x30
1a0009d8:	70a3      	strb	r3, [r4, #2]
1a0009da:	e7f7      	b.n	1a0009cc <cargarRemainingHeap+0x30>
1a0009dc:	1a006158 	.word	0x1a006158
1a0009e0:	1a006180 	.word	0x1a006180

1a0009e4 <Initialize_Service>:
void Initialize_Service(void* taskParmPtr) {
1a0009e4:	b508      	push	{r3, lr}
	xSemaphoreFinMedicion = xSemaphoreCreateBinary();
1a0009e6:	2203      	movs	r2, #3
1a0009e8:	2100      	movs	r1, #0
1a0009ea:	2001      	movs	r0, #1
1a0009ec:	f001 f822 	bl	1a001a34 <xQueueGenericCreate>
1a0009f0:	4b15      	ldr	r3, [pc, #84]	; (1a000a48 <Initialize_Service+0x64>)
1a0009f2:	6018      	str	r0, [r3, #0]
	if ((queueMayusculizar = xQueueCreate(1, sizeof(datos_t))) == NULL) {
1a0009f4:	2200      	movs	r2, #0
1a0009f6:	210c      	movs	r1, #12
1a0009f8:	2001      	movs	r0, #1
1a0009fa:	f001 f81b 	bl	1a001a34 <xQueueGenericCreate>
1a0009fe:	4b13      	ldr	r3, [pc, #76]	; (1a000a4c <Initialize_Service+0x68>)
1a000a00:	6018      	str	r0, [r3, #0]
1a000a02:	b1a0      	cbz	r0, 1a000a2e <Initialize_Service+0x4a>
	if ((queueMinusculizar = xQueueCreate(1, sizeof(datos_t))) == NULL) {
1a000a04:	2200      	movs	r2, #0
1a000a06:	210c      	movs	r1, #12
1a000a08:	2001      	movs	r0, #1
1a000a0a:	f001 f813 	bl	1a001a34 <xQueueGenericCreate>
1a000a0e:	4b10      	ldr	r3, [pc, #64]	; (1a000a50 <Initialize_Service+0x6c>)
1a000a10:	6018      	str	r0, [r3, #0]
1a000a12:	b180      	cbz	r0, 1a000a36 <Initialize_Service+0x52>
	if ((queueMedirPerformance = xQueueCreate(1, sizeof(token_t *))) == NULL) {
1a000a14:	2200      	movs	r2, #0
1a000a16:	2104      	movs	r1, #4
1a000a18:	2001      	movs	r0, #1
1a000a1a:	f001 f80b 	bl	1a001a34 <xQueueGenericCreate>
1a000a1e:	4b0d      	ldr	r3, [pc, #52]	; (1a000a54 <Initialize_Service+0x70>)
1a000a20:	6018      	str	r0, [r3, #0]
1a000a22:	b160      	cbz	r0, 1a000a3e <Initialize_Service+0x5a>
	vTaskDelete(xTaskGetCurrentTaskHandle());
1a000a24:	f002 f802 	bl	1a002a2c <xTaskGetCurrentTaskHandle>
1a000a28:	f001 fcee 	bl	1a002408 <vTaskDelete>
}
1a000a2c:	bd08      	pop	{r3, pc}
		printf("error al crear la queue Mayusculizar");
1a000a2e:	480a      	ldr	r0, [pc, #40]	; (1a000a58 <Initialize_Service+0x74>)
1a000a30:	f004 fb1c 	bl	1a00506c <iprintf>
1a000a34:	e7e6      	b.n	1a000a04 <Initialize_Service+0x20>
		printf("error al crear la queue Minusculizar");
1a000a36:	4809      	ldr	r0, [pc, #36]	; (1a000a5c <Initialize_Service+0x78>)
1a000a38:	f004 fb18 	bl	1a00506c <iprintf>
1a000a3c:	e7ea      	b.n	1a000a14 <Initialize_Service+0x30>
		printf("error al crear la queue Transmitir");
1a000a3e:	4808      	ldr	r0, [pc, #32]	; (1a000a60 <Initialize_Service+0x7c>)
1a000a40:	f004 fb14 	bl	1a00506c <iprintf>
1a000a44:	e7ee      	b.n	1a000a24 <Initialize_Service+0x40>
1a000a46:	bf00      	nop
1a000a48:	10002f1c 	.word	0x10002f1c
1a000a4c:	10002f98 	.word	0x10002f98
1a000a50:	10002f20 	.word	0x10002f20
1a000a54:	10002f24 	.word	0x10002f24
1a000a58:	1a0060e4 	.word	0x1a0060e4
1a000a5c:	1a00610c 	.word	0x1a00610c
1a000a60:	1a006134 	.word	0x1a006134

1a000a64 <Create_And_Assign_Queue>:
void Create_And_Assign_Queue(void* taskParmPtr) {
1a000a64:	b570      	push	{r4, r5, r6, lr}
1a000a66:	b0be      	sub	sp, #248	; 0xf8
	Datos.pDatos = NULL;
1a000a68:	2400      	movs	r4, #0
1a000a6a:	4b5f      	ldr	r3, [pc, #380]	; (1a000be8 <Create_And_Assign_Queue+0x184>)
1a000a6c:	609c      	str	r4, [r3, #8]
	cargarRemainingHeap(&buff);
1a000a6e:	a806      	add	r0, sp, #24
1a000a70:	f7ff ff94 	bl	1a00099c <cargarRemainingHeap>
	if (xQueueSend(queueTransmitUart, &buff,
1a000a74:	4623      	mov	r3, r4
1a000a76:	2201      	movs	r2, #1
1a000a78:	a906      	add	r1, sp, #24
1a000a7a:	485c      	ldr	r0, [pc, #368]	; (1a000bec <Create_And_Assign_Queue+0x188>)
1a000a7c:	6800      	ldr	r0, [r0, #0]
1a000a7e:	f000 fff7 	bl	1a001a70 <xQueueGenericSend>
1a000a82:	2801      	cmp	r0, #1
1a000a84:	d006      	beq.n	1a000a94 <Create_And_Assign_Queue+0x30>
		printf("error al enviar por cola queueTransmitUart");
1a000a86:	485a      	ldr	r0, [pc, #360]	; (1a000bf0 <Create_And_Assign_Queue+0x18c>)
1a000a88:	f004 faf0 	bl	1a00506c <iprintf>
1a000a8c:	e002      	b.n	1a000a94 <Create_And_Assign_Queue+0x30>
					printf("error al ejecutar el pvPortMalloc");
1a000a8e:	4859      	ldr	r0, [pc, #356]	; (1a000bf4 <Create_And_Assign_Queue+0x190>)
1a000a90:	f004 faec 	bl	1a00506c <iprintf>
		xStatus = xQueueReceive(queueRecieveUart, &rx_uart, portMAX_DELAY); //
1a000a94:	f04f 32ff 	mov.w	r2, #4294967295	; 0xffffffff
1a000a98:	a922      	add	r1, sp, #136	; 0x88
1a000a9a:	4b57      	ldr	r3, [pc, #348]	; (1a000bf8 <Create_And_Assign_Queue+0x194>)
1a000a9c:	6818      	ldr	r0, [r3, #0]
1a000a9e:	f001 f8dd 	bl	1a001c5c <xQueueReceive>
		if (xStatus == pdPASS) {
1a000aa2:	2801      	cmp	r0, #1
1a000aa4:	d1f6      	bne.n	1a000a94 <Create_And_Assign_Queue+0x30>
			Datos.op = rx_uart.buff[0];	//carga Datos con el código de operación
1a000aa6:	f99d 3089 	ldrsb.w	r3, [sp, #137]	; 0x89
1a000aaa:	4c4f      	ldr	r4, [pc, #316]	; (1a000be8 <Create_And_Assign_Queue+0x184>)
1a000aac:	7023      	strb	r3, [r4, #0]
			xstr[0] = rx_uart.buff[1];
1a000aae:	f89d 308a 	ldrb.w	r3, [sp, #138]	; 0x8a
1a000ab2:	f88d 3014 	strb.w	r3, [sp, #20]
			xstr[1] = rx_uart.buff[2];
1a000ab6:	f89d 308b 	ldrb.w	r3, [sp, #139]	; 0x8b
1a000aba:	f88d 3015 	strb.w	r3, [sp, #21]
			xstr[3] = '\0';
1a000abe:	2300      	movs	r3, #0
1a000ac0:	f88d 3017 	strb.w	r3, [sp, #23]
			Datos.tamanio = atoi(&xstr[0]);	//carga Datos con la longitud en formato entero
1a000ac4:	a805      	add	r0, sp, #20
1a000ac6:	f004 f84f 	bl	1a004b68 <atoi>
1a000aca:	6060      	str	r0, [r4, #4]
			if ((Datos.tamanio == rx_uart.largo - 3)
1a000acc:	f89d 3088 	ldrb.w	r3, [sp, #136]	; 0x88
1a000ad0:	3b03      	subs	r3, #3
1a000ad2:	4298      	cmp	r0, r3
1a000ad4:	d1de      	bne.n	1a000a94 <Create_And_Assign_Queue+0x30>
					&& (Datos.op <= MAX_COD_OP)) {
1a000ad6:	f994 3000 	ldrsb.w	r3, [r4]
1a000ada:	2b35      	cmp	r3, #53	; 0x35
1a000adc:	dcda      	bgt.n	1a000a94 <Create_And_Assign_Queue+0x30>
				if ((Datos.pDatos = pvPortMalloc(Datos.tamanio)) == NULL)
1a000ade:	f000 fe0f 	bl	1a001700 <pvPortMalloc>
1a000ae2:	60a0      	str	r0, [r4, #8]
1a000ae4:	2800      	cmp	r0, #0
1a000ae6:	d0d2      	beq.n	1a000a8e <Create_And_Assign_Queue+0x2a>
					memcpy(Datos.pDatos, &rx_uart.buff[3], Datos.tamanio);
1a000ae8:	4c3f      	ldr	r4, [pc, #252]	; (1a000be8 <Create_And_Assign_Queue+0x184>)
1a000aea:	6862      	ldr	r2, [r4, #4]
1a000aec:	a923      	add	r1, sp, #140	; 0x8c
1a000aee:	f004 fa01 	bl	1a004ef4 <memcpy>
					switch (Datos.op)
1a000af2:	f994 3000 	ldrsb.w	r3, [r4]
1a000af6:	2b31      	cmp	r3, #49	; 0x31
1a000af8:	d05c      	beq.n	1a000bb4 <Create_And_Assign_Queue+0x150>
1a000afa:	2b34      	cmp	r3, #52	; 0x34
1a000afc:	d019      	beq.n	1a000b32 <Create_And_Assign_Queue+0xce>
1a000afe:	2b30      	cmp	r3, #48	; 0x30
1a000b00:	d1c8      	bne.n	1a000a94 <Create_And_Assign_Queue+0x30>
						if (queueMayusculizar != NULL)
1a000b02:	4b3e      	ldr	r3, [pc, #248]	; (1a000bfc <Create_And_Assign_Queue+0x198>)
1a000b04:	681b      	ldr	r3, [r3, #0]
1a000b06:	2b00      	cmp	r3, #0
1a000b08:	d0c4      	beq.n	1a000a94 <Create_And_Assign_Queue+0x30>
							xTaskCreate(write_Package_ToQueueMayus,
1a000b0a:	4c37      	ldr	r4, [pc, #220]	; (1a000be8 <Create_And_Assign_Queue+0x184>)
1a000b0c:	2600      	movs	r6, #0
1a000b0e:	9601      	str	r6, [sp, #4]
1a000b10:	2501      	movs	r5, #1
1a000b12:	9500      	str	r5, [sp, #0]
1a000b14:	4623      	mov	r3, r4
1a000b16:	22b4      	movs	r2, #180	; 0xb4
1a000b18:	4939      	ldr	r1, [pc, #228]	; (1a000c00 <Create_And_Assign_Queue+0x19c>)
1a000b1a:	483a      	ldr	r0, [pc, #232]	; (1a000c04 <Create_And_Assign_Queue+0x1a0>)
1a000b1c:	f001 fc40 	bl	1a0023a0 <xTaskCreate>
							xTaskCreate(read_process_Package_FromQueueMayus,
1a000b20:	9601      	str	r6, [sp, #4]
1a000b22:	9500      	str	r5, [sp, #0]
1a000b24:	4623      	mov	r3, r4
1a000b26:	22b4      	movs	r2, #180	; 0xb4
1a000b28:	4937      	ldr	r1, [pc, #220]	; (1a000c08 <Create_And_Assign_Queue+0x1a4>)
1a000b2a:	4838      	ldr	r0, [pc, #224]	; (1a000c0c <Create_And_Assign_Queue+0x1a8>)
1a000b2c:	f001 fc38 	bl	1a0023a0 <xTaskCreate>
1a000b30:	e7b0      	b.n	1a000a94 <Create_And_Assign_Queue+0x30>
						if (queueMedirPerformance != NULL) {
1a000b32:	4b37      	ldr	r3, [pc, #220]	; (1a000c10 <Create_And_Assign_Queue+0x1ac>)
1a000b34:	681b      	ldr	r3, [r3, #0]
1a000b36:	2b00      	cmp	r3, #0
1a000b38:	d0ac      	beq.n	1a000a94 <Create_And_Assign_Queue+0x30>
									&rx_uart.buff[Datos.tamanio + 3],
1a000b3a:	4b2b      	ldr	r3, [pc, #172]	; (1a000be8 <Create_And_Assign_Queue+0x184>)
1a000b3c:	685b      	ldr	r3, [r3, #4]
1a000b3e:	3303      	adds	r3, #3
1a000b40:	aa22      	add	r2, sp, #136	; 0x88
1a000b42:	4413      	add	r3, r2
							memcpy(&infoDriverRx,
1a000b44:	aa03      	add	r2, sp, #12
1a000b46:	f853 0f01 	ldr.w	r0, [r3, #1]!
1a000b4a:	6859      	ldr	r1, [r3, #4]
1a000b4c:	c203      	stmia	r2!, {r0, r1}
							if ((token = pvPortMalloc(sizeof(token_t))) == NULL) {//se aloca memoria para el token
1a000b4e:	2024      	movs	r0, #36	; 0x24
1a000b50:	f000 fdd6 	bl	1a001700 <pvPortMalloc>
1a000b54:	4b2f      	ldr	r3, [pc, #188]	; (1a000c14 <Create_And_Assign_Queue+0x1b0>)
1a000b56:	6018      	str	r0, [r3, #0]
1a000b58:	b320      	cbz	r0, 1a000ba4 <Create_And_Assign_Queue+0x140>
								token->datos = &Datos;
1a000b5a:	4a23      	ldr	r2, [pc, #140]	; (1a000be8 <Create_And_Assign_Queue+0x184>)
1a000b5c:	6202      	str	r2, [r0, #32]
								token->id_de_paquete = paqueteId++;
1a000b5e:	492e      	ldr	r1, [pc, #184]	; (1a000c18 <Create_And_Assign_Queue+0x1b4>)
1a000b60:	680b      	ldr	r3, [r1, #0]
1a000b62:	1c5c      	adds	r4, r3, #1
1a000b64:	600c      	str	r4, [r1, #0]
1a000b66:	6003      	str	r3, [r0, #0]
								token->largo_paquete = Datos.tamanio;
1a000b68:	6850      	ldr	r0, [r2, #4]
1a000b6a:	492a      	ldr	r1, [pc, #168]	; (1a000c14 <Create_And_Assign_Queue+0x1b0>)
1a000b6c:	680b      	ldr	r3, [r1, #0]
1a000b6e:	8098      	strh	r0, [r3, #4]
								token->memoria_alojada = Datos.tamanio;
1a000b70:	6852      	ldr	r2, [r2, #4]
1a000b72:	80da      	strh	r2, [r3, #6]
										infoDriverRx.tiempo_recepcion_STX;
1a000b74:	9a03      	ldr	r2, [sp, #12]
								token->tiempo_llegada =
1a000b76:	609a      	str	r2, [r3, #8]
										infoDriverRx.tiempo_recepcion_ETX;
1a000b78:	9a04      	ldr	r2, [sp, #16]
								token->tiempo_recepcion =
1a000b7a:	60da      	str	r2, [r3, #12]
							xStatus = xQueueSendToBack(queueMedirPerformance,
1a000b7c:	2300      	movs	r3, #0
1a000b7e:	f04f 32ff 	mov.w	r2, #4294967295	; 0xffffffff
1a000b82:	4823      	ldr	r0, [pc, #140]	; (1a000c10 <Create_And_Assign_Queue+0x1ac>)
1a000b84:	6800      	ldr	r0, [r0, #0]
1a000b86:	f000 ff73 	bl	1a001a70 <xQueueGenericSend>
							if (xStatus != pdPASS) {
1a000b8a:	2801      	cmp	r0, #1
1a000b8c:	d10e      	bne.n	1a000bac <Create_And_Assign_Queue+0x148>
							xTaskCreate(process_Package_FromQueuePerformance,
1a000b8e:	2300      	movs	r3, #0
1a000b90:	9301      	str	r3, [sp, #4]
1a000b92:	2301      	movs	r3, #1
1a000b94:	9300      	str	r3, [sp, #0]
1a000b96:	4b1f      	ldr	r3, [pc, #124]	; (1a000c14 <Create_And_Assign_Queue+0x1b0>)
1a000b98:	22b4      	movs	r2, #180	; 0xb4
1a000b9a:	4920      	ldr	r1, [pc, #128]	; (1a000c1c <Create_And_Assign_Queue+0x1b8>)
1a000b9c:	4820      	ldr	r0, [pc, #128]	; (1a000c20 <Create_And_Assign_Queue+0x1bc>)
1a000b9e:	f001 fbff 	bl	1a0023a0 <xTaskCreate>
1a000ba2:	e777      	b.n	1a000a94 <Create_And_Assign_Queue+0x30>
								printf("Error pvPortMalloc");
1a000ba4:	481f      	ldr	r0, [pc, #124]	; (1a000c24 <Create_And_Assign_Queue+0x1c0>)
1a000ba6:	f004 fa61 	bl	1a00506c <iprintf>
								break;
1a000baa:	e773      	b.n	1a000a94 <Create_And_Assign_Queue+0x30>
								printf(
1a000bac:	481e      	ldr	r0, [pc, #120]	; (1a000c28 <Create_And_Assign_Queue+0x1c4>)
1a000bae:	f004 fad1 	bl	1a005154 <puts>
1a000bb2:	e7ec      	b.n	1a000b8e <Create_And_Assign_Queue+0x12a>
						if (queueMinusculizar != NULL)
1a000bb4:	4b1d      	ldr	r3, [pc, #116]	; (1a000c2c <Create_And_Assign_Queue+0x1c8>)
1a000bb6:	681b      	ldr	r3, [r3, #0]
1a000bb8:	2b00      	cmp	r3, #0
1a000bba:	f43f af6b 	beq.w	1a000a94 <Create_And_Assign_Queue+0x30>
							xTaskCreate(write_Package_ToQueueMinus,
1a000bbe:	4c0a      	ldr	r4, [pc, #40]	; (1a000be8 <Create_And_Assign_Queue+0x184>)
1a000bc0:	2600      	movs	r6, #0
1a000bc2:	9601      	str	r6, [sp, #4]
1a000bc4:	2501      	movs	r5, #1
1a000bc6:	9500      	str	r5, [sp, #0]
1a000bc8:	4623      	mov	r3, r4
1a000bca:	22b4      	movs	r2, #180	; 0xb4
1a000bcc:	4918      	ldr	r1, [pc, #96]	; (1a000c30 <Create_And_Assign_Queue+0x1cc>)
1a000bce:	4819      	ldr	r0, [pc, #100]	; (1a000c34 <Create_And_Assign_Queue+0x1d0>)
1a000bd0:	f001 fbe6 	bl	1a0023a0 <xTaskCreate>
							xTaskCreate(read_process_Package_FromQueueMinus,
1a000bd4:	9601      	str	r6, [sp, #4]
1a000bd6:	9500      	str	r5, [sp, #0]
1a000bd8:	4623      	mov	r3, r4
1a000bda:	22b4      	movs	r2, #180	; 0xb4
1a000bdc:	4916      	ldr	r1, [pc, #88]	; (1a000c38 <Create_And_Assign_Queue+0x1d4>)
1a000bde:	4817      	ldr	r0, [pc, #92]	; (1a000c3c <Create_And_Assign_Queue+0x1d8>)
1a000be0:	f001 fbde 	bl	1a0023a0 <xTaskCreate>
1a000be4:	e756      	b.n	1a000a94 <Create_And_Assign_Queue+0x30>
1a000be6:	bf00      	nop
1a000be8:	10000334 	.word	0x10000334
1a000bec:	10002f28 	.word	0x10002f28
1a000bf0:	1a0060b8 	.word	0x1a0060b8
1a000bf4:	1a005fd8 	.word	0x1a005fd8
1a000bf8:	10002f94 	.word	0x10002f94
1a000bfc:	10002f98 	.word	0x10002f98
1a000c00:	1a006030 	.word	0x1a006030
1a000c04:	1a0005a9 	.word	0x1a0005a9
1a000c08:	1a00604c 	.word	0x1a00604c
1a000c0c:	1a000839 	.word	0x1a000839
1a000c10:	10002f24 	.word	0x10002f24
1a000c14:	100003b4 	.word	0x100003b4
1a000c18:	100003b0 	.word	0x100003b0
1a000c1c:	1a006010 	.word	0x1a006010
1a000c20:	1a0006c5 	.word	0x1a0006c5
1a000c24:	1a005ffc 	.word	0x1a005ffc
1a000c28:	1a00621c 	.word	0x1a00621c
1a000c2c:	10002f20 	.word	0x10002f20
1a000c30:	1a006074 	.word	0x1a006074
1a000c34:	1a0005dd 	.word	0x1a0005dd
1a000c38:	1a006090 	.word	0x1a006090
1a000c3c:	1a0008e9 	.word	0x1a0008e9

1a000c40 <EncolaNotificacion>:
static int estadoBroadcast = sBROADCAST_IDLE;
const char pulsadorApretado[] = "Pulsador Apretado:";
const char pulsadorLiberado[] = "Pulsador Liberado:";
const char tiempoPulsado[] = "Tiempo de Pulsado =";

void EncolaNotificacion(datos_t reporte, QueueHandle_t cola) {
1a000c40:	b530      	push	{r4, r5, lr}
1a000c42:	b0a3      	sub	sp, #140	; 0x8c
1a000c44:	ac01      	add	r4, sp, #4
1a000c46:	e884 0007 	stmia.w	r4, {r0, r1, r2}
1a000c4a:	461d      	mov	r5, r3
	uint8_t myStr[5];
	buff_t buff;
	buff.largo = reporte.tamanio + 3;
1a000c4c:	9a02      	ldr	r2, [sp, #8]
1a000c4e:	1cd3      	adds	r3, r2, #3
1a000c50:	f88d 3010 	strb.w	r3, [sp, #16]
	buff.buff[0] = reporte.op;
1a000c54:	f89d 3004 	ldrb.w	r3, [sp, #4]
1a000c58:	f88d 3011 	strb.w	r3, [sp, #17]
	sprintf(&myStr[0], "%2u", reporte.tamanio);
1a000c5c:	4912      	ldr	r1, [pc, #72]	; (1a000ca8 <EncolaNotificacion+0x68>)
1a000c5e:	a820      	add	r0, sp, #128	; 0x80
1a000c60:	f004 fa80 	bl	1a005164 <siprintf>

	if (myStr[0] == ' ')
1a000c64:	f89d 3080 	ldrb.w	r3, [sp, #128]	; 0x80
1a000c68:	2b20      	cmp	r3, #32
1a000c6a:	d019      	beq.n	1a000ca0 <EncolaNotificacion+0x60>
		buff.buff[1] = '0';
	else
		buff.buff[1] = myStr[0];
1a000c6c:	f88d 3012 	strb.w	r3, [sp, #18]
	buff.buff[2] = myStr[1];
1a000c70:	f89d 3081 	ldrb.w	r3, [sp, #129]	; 0x81
1a000c74:	f88d 3013 	strb.w	r3, [sp, #19]
	memcpy(&buff.buff[3], reporte.pDatos, buff.largo);
1a000c78:	ac22      	add	r4, sp, #136	; 0x88
1a000c7a:	f814 2d78 	ldrb.w	r2, [r4, #-120]!
1a000c7e:	9903      	ldr	r1, [sp, #12]
1a000c80:	a805      	add	r0, sp, #20
1a000c82:	f004 f937 	bl	1a004ef4 <memcpy>

	if (xQueueSend(cola, &buff, 1) != pdTRUE) {
1a000c86:	2300      	movs	r3, #0
1a000c88:	2201      	movs	r2, #1
1a000c8a:	4621      	mov	r1, r4
1a000c8c:	4628      	mov	r0, r5
1a000c8e:	f000 feef 	bl	1a001a70 <xQueueGenericSend>
1a000c92:	2801      	cmp	r0, #1
1a000c94:	d002      	beq.n	1a000c9c <EncolaNotificacion+0x5c>
		printf("error al enviar por cola queueRecieveUart");
1a000c96:	4805      	ldr	r0, [pc, #20]	; (1a000cac <EncolaNotificacion+0x6c>)
1a000c98:	f004 f9e8 	bl	1a00506c <iprintf>
	}
}
1a000c9c:	b023      	add	sp, #140	; 0x8c
1a000c9e:	bd30      	pop	{r4, r5, pc}
		buff.buff[1] = '0';
1a000ca0:	2330      	movs	r3, #48	; 0x30
1a000ca2:	f88d 3012 	strb.w	r3, [sp, #18]
1a000ca6:	e7e3      	b.n	1a000c70 <EncolaNotificacion+0x30>
1a000ca8:	1a006180 	.word	0x1a006180
1a000cac:	1a005fac 	.word	0x1a005fac

1a000cb0 <ManejadorEventosBroadcast>:
void ManejadorEventosBroadcast(Evento_t * evn) {

	char buf[100];
	datos_t datos;

	switch (estadoBroadcast) {
1a000cb0:	4b32      	ldr	r3, [pc, #200]	; (1a000d7c <ManejadorEventosBroadcast+0xcc>)
1a000cb2:	681b      	ldr	r3, [r3, #0]
1a000cb4:	b113      	cbz	r3, 1a000cbc <ManejadorEventosBroadcast+0xc>
1a000cb6:	2b01      	cmp	r3, #1
1a000cb8:	d007      	beq.n	1a000cca <ManejadorEventosBroadcast+0x1a>
1a000cba:	4770      	bx	lr
	//-----------------------------------------------------------------------------
	case sBROADCAST_IDLE:
		switch (evn->signal) {
1a000cbc:	6843      	ldr	r3, [r0, #4]
1a000cbe:	2b00      	cmp	r3, #0
1a000cc0:	d15b      	bne.n	1a000d7a <ManejadorEventosBroadcast+0xca>
		case SIG_MODULO_INICIAR:
			estadoBroadcast = sBROADCAST_NORMAL;
1a000cc2:	4b2e      	ldr	r3, [pc, #184]	; (1a000d7c <ManejadorEventosBroadcast+0xcc>)
1a000cc4:	2201      	movs	r2, #1
1a000cc6:	601a      	str	r2, [r3, #0]
			break;
1a000cc8:	4770      	bx	lr
void ManejadorEventosBroadcast(Evento_t * evn) {
1a000cca:	b510      	push	{r4, lr}
1a000ccc:	b09e      	sub	sp, #120	; 0x78
			break;
		}
		break;
		//-----------------------------------------------------------------------------
	case sBROADCAST_NORMAL:
		switch (evn->signal) {
1a000cce:	6843      	ldr	r3, [r0, #4]
1a000cd0:	3b02      	subs	r3, #2
1a000cd2:	2b03      	cmp	r3, #3
1a000cd4:	d849      	bhi.n	1a000d6a <ManejadorEventosBroadcast+0xba>
1a000cd6:	e8df f003 	tbb	[pc, r3]
1a000cda:	4a43      	.short	0x4a43
1a000cdc:	1e02      	.short	0x1e02

		case SIG_PULSADOR_APRETADO:
			datos.op = '6';
1a000cde:	2336      	movs	r3, #54	; 0x36
1a000ce0:	f88d 3008 	strb.w	r3, [sp, #8]
			datos.pDatos = buf;
1a000ce4:	ac05      	add	r4, sp, #20
1a000ce6:	9404      	str	r4, [sp, #16]
			if (sprintf(buf, "%s %d", pulsadorApretado, evn->valor) > 0) {
1a000ce8:	6883      	ldr	r3, [r0, #8]
1a000cea:	4a25      	ldr	r2, [pc, #148]	; (1a000d80 <ManejadorEventosBroadcast+0xd0>)
1a000cec:	4925      	ldr	r1, [pc, #148]	; (1a000d84 <ManejadorEventosBroadcast+0xd4>)
1a000cee:	4620      	mov	r0, r4
1a000cf0:	f004 fa38 	bl	1a005164 <siprintf>
1a000cf4:	2800      	cmp	r0, #0
1a000cf6:	dd0a      	ble.n	1a000d0e <ManejadorEventosBroadcast+0x5e>
				datos.tamanio = strlen(buf);
1a000cf8:	a805      	add	r0, sp, #20
1a000cfa:	f004 fa96 	bl	1a00522a <strlen>
1a000cfe:	9003      	str	r0, [sp, #12]
				EncolaNotificacion(datos, queueTransmitUart);
1a000d00:	4b21      	ldr	r3, [pc, #132]	; (1a000d88 <ManejadorEventosBroadcast+0xd8>)
1a000d02:	681b      	ldr	r3, [r3, #0]
1a000d04:	aa02      	add	r2, sp, #8
1a000d06:	ca07      	ldmia	r2, {r0, r1, r2}
1a000d08:	f7ff ff9a 	bl	1a000c40 <EncolaNotificacion>
1a000d0c:	e02d      	b.n	1a000d6a <ManejadorEventosBroadcast+0xba>
			} else
				printf("Error en sprintf\r\n");
1a000d0e:	481f      	ldr	r0, [pc, #124]	; (1a000d8c <ManejadorEventosBroadcast+0xdc>)
1a000d10:	f004 fa20 	bl	1a005154 <puts>
1a000d14:	e029      	b.n	1a000d6a <ManejadorEventosBroadcast+0xba>

			//ReenviarEvento	( ModuloPuertaControl, evn );
			break;

		case SIG_PULSADOR_LIBERADO:
			datos.op = '6';
1a000d16:	2336      	movs	r3, #54	; 0x36
1a000d18:	f88d 3008 	strb.w	r3, [sp, #8]
			datos.pDatos = buf;
1a000d1c:	ac05      	add	r4, sp, #20
1a000d1e:	9404      	str	r4, [sp, #16]
			if (sprintf(buf, "%s %d - %s %d", pulsadorLiberado, evn->valor, tiempoPulsado, vectorPulsadores[evn->valor].duracion ) > 0) {
1a000d20:	6883      	ldr	r3, [r0, #8]
1a000d22:	eb03 0243 	add.w	r2, r3, r3, lsl #1
1a000d26:	00d1      	lsls	r1, r2, #3
1a000d28:	4a19      	ldr	r2, [pc, #100]	; (1a000d90 <ManejadorEventosBroadcast+0xe0>)
1a000d2a:	440a      	add	r2, r1
1a000d2c:	68d2      	ldr	r2, [r2, #12]
1a000d2e:	9201      	str	r2, [sp, #4]
1a000d30:	4a18      	ldr	r2, [pc, #96]	; (1a000d94 <ManejadorEventosBroadcast+0xe4>)
1a000d32:	9200      	str	r2, [sp, #0]
1a000d34:	4a18      	ldr	r2, [pc, #96]	; (1a000d98 <ManejadorEventosBroadcast+0xe8>)
1a000d36:	4919      	ldr	r1, [pc, #100]	; (1a000d9c <ManejadorEventosBroadcast+0xec>)
1a000d38:	4620      	mov	r0, r4
1a000d3a:	f004 fa13 	bl	1a005164 <siprintf>
1a000d3e:	2800      	cmp	r0, #0
1a000d40:	dd0a      	ble.n	1a000d58 <ManejadorEventosBroadcast+0xa8>
				datos.tamanio = strlen(buf);
1a000d42:	a805      	add	r0, sp, #20
1a000d44:	f004 fa71 	bl	1a00522a <strlen>
1a000d48:	9003      	str	r0, [sp, #12]
				EncolaNotificacion(datos, queueTransmitUart);
1a000d4a:	4b0f      	ldr	r3, [pc, #60]	; (1a000d88 <ManejadorEventosBroadcast+0xd8>)
1a000d4c:	681b      	ldr	r3, [r3, #0]
1a000d4e:	aa02      	add	r2, sp, #8
1a000d50:	ca07      	ldmia	r2, {r0, r1, r2}
1a000d52:	f7ff ff75 	bl	1a000c40 <EncolaNotificacion>
1a000d56:	e008      	b.n	1a000d6a <ManejadorEventosBroadcast+0xba>
			} else
				printf("Error en sprintf\r\n");
1a000d58:	480c      	ldr	r0, [pc, #48]	; (1a000d8c <ManejadorEventosBroadcast+0xdc>)
1a000d5a:	f004 f9fb 	bl	1a005154 <puts>
1a000d5e:	e004      	b.n	1a000d6a <ManejadorEventosBroadcast+0xba>
			break;

		case SIG_LEDOFF:
			gpioWrite(evn->valor, FALSE);
1a000d60:	2100      	movs	r1, #0
1a000d62:	f990 0008 	ldrsb.w	r0, [r0, #8]
1a000d66:	f003 fcd1 	bl	1a00470c <gpioWrite>
		//-----------------------------------------------------------------------------
	default:
		break;
	}

}
1a000d6a:	b01e      	add	sp, #120	; 0x78
1a000d6c:	bd10      	pop	{r4, pc}
			gpioWrite(evn->valor, TRUE);
1a000d6e:	2101      	movs	r1, #1
1a000d70:	f990 0008 	ldrsb.w	r0, [r0, #8]
1a000d74:	f003 fcca 	bl	1a00470c <gpioWrite>
}
1a000d78:	e7f7      	b.n	1a000d6a <ManejadorEventosBroadcast+0xba>
1a000d7a:	4770      	bx	lr
1a000d7c:	100003b8 	.word	0x100003b8
1a000d80:	1a006274 	.word	0x1a006274
1a000d84:	1a00626c 	.word	0x1a00626c
1a000d88:	10002f28 	.word	0x10002f28
1a000d8c:	1a006250 	.word	0x1a006250
1a000d90:	10003034 	.word	0x10003034
1a000d94:	1a00629c 	.word	0x1a00629c
1a000d98:	1a006288 	.word	0x1a006288
1a000d9c:	1a006264 	.word	0x1a006264

1a000da0 <PulsadorInit>:

static int nPulsadores = 0;

static Modulo_t * mod;

void PulsadorInit(Pulsador * p, gpioMap_t Tecla) {
1a000da0:	b410      	push	{r4}
	p->idPulsador = nPulsadores;
1a000da2:	4a08      	ldr	r2, [pc, #32]	; (1a000dc4 <PulsadorInit+0x24>)
1a000da4:	6813      	ldr	r3, [r2, #0]
1a000da6:	6143      	str	r3, [r0, #20]
	nPulsadores++;
1a000da8:	1c5c      	adds	r4, r3, #1
1a000daa:	6014      	str	r4, [r2, #0]
	p->boton = Tecla;
1a000dac:	7001      	strb	r1, [r0, #0]
	p->estadoFSM = sPULSADOR_ESPERANDO_PULSACION;
1a000dae:	2201      	movs	r2, #1
1a000db0:	7042      	strb	r2, [r0, #1]
	p->ticksFiltrados = 0;
1a000db2:	2200      	movs	r2, #0
1a000db4:	6102      	str	r2, [r0, #16]
	p->led = vectorLeds[p->idPulsador].Led;
1a000db6:	4a04      	ldr	r2, [pc, #16]	; (1a000dc8 <PulsadorInit+0x28>)
1a000db8:	f912 3013 	ldrsb.w	r3, [r2, r3, lsl #1]
1a000dbc:	7083      	strb	r3, [r0, #2]
}
1a000dbe:	f85d 4b04 	ldr.w	r4, [sp], #4
1a000dc2:	4770      	bx	lr
1a000dc4:	100003c0 	.word	0x100003c0
1a000dc8:	100030c8 	.word	0x100030c8

1a000dcc <DriverPulsadoresInit>:

void DriverPulsadoresInit(Modulo_t * pModulo) {
1a000dcc:	b538      	push	{r3, r4, r5, lr}
1a000dce:	4605      	mov	r5, r0
	PulsadorInit(&vectorPulsadores[0], TEC1);
1a000dd0:	4c0b      	ldr	r4, [pc, #44]	; (1a000e00 <DriverPulsadoresInit+0x34>)
1a000dd2:	2124      	movs	r1, #36	; 0x24
1a000dd4:	4620      	mov	r0, r4
1a000dd6:	f7ff ffe3 	bl	1a000da0 <PulsadorInit>
	PulsadorInit(&vectorPulsadores[1], TEC2);
1a000dda:	2125      	movs	r1, #37	; 0x25
1a000ddc:	f104 0018 	add.w	r0, r4, #24
1a000de0:	f7ff ffde 	bl	1a000da0 <PulsadorInit>
	PulsadorInit(&vectorPulsadores[2], TEC3);
1a000de4:	2126      	movs	r1, #38	; 0x26
1a000de6:	f104 0030 	add.w	r0, r4, #48	; 0x30
1a000dea:	f7ff ffd9 	bl	1a000da0 <PulsadorInit>
	PulsadorInit(&vectorPulsadores[3], TEC4);
1a000dee:	2127      	movs	r1, #39	; 0x27
1a000df0:	f104 0048 	add.w	r0, r4, #72	; 0x48
1a000df4:	f7ff ffd4 	bl	1a000da0 <PulsadorInit>

	pModulo->periodo = 20;
1a000df8:	2314      	movs	r3, #20
1a000dfa:	606b      	str	r3, [r5, #4]
}
1a000dfc:	bd38      	pop	{r3, r4, r5, pc}
1a000dfe:	bf00      	nop
1a000e00:	10003034 	.word	0x10003034

1a000e04 <FSM_Pulsador>:
	}
}

void FSM_Pulsador(Pulsador * pulsador, Evento_t * evn) {
	Evento_t _evn;
	if (pulsador->ticksFiltrados > 0) {
1a000e04:	6903      	ldr	r3, [r0, #16]
1a000e06:	2b00      	cmp	r3, #0
1a000e08:	dd02      	ble.n	1a000e10 <FSM_Pulsador+0xc>
		pulsador->ticksFiltrados--;
1a000e0a:	3b01      	subs	r3, #1
1a000e0c:	6103      	str	r3, [r0, #16]
1a000e0e:	4770      	bx	lr
void FSM_Pulsador(Pulsador * pulsador, Evento_t * evn) {
1a000e10:	b570      	push	{r4, r5, r6, lr}
1a000e12:	4604      	mov	r4, r0
		return;
	}

	switch (pulsador->estadoFSM) {
1a000e14:	7843      	ldrb	r3, [r0, #1]
1a000e16:	3b01      	subs	r3, #1
1a000e18:	2b03      	cmp	r3, #3
1a000e1a:	d819      	bhi.n	1a000e50 <FSM_Pulsador+0x4c>
1a000e1c:	e8df f003 	tbb	[pc, r3]
1a000e20:	372a0f02 	.word	0x372a0f02
	//-----------------------------------------------------------------------------
	case sPULSADOR_ESPERANDO_PULSACION:
		if (gpioRead(pulsador->boton) == 0) {
1a000e24:	f990 0000 	ldrsb.w	r0, [r0]
1a000e28:	f003 fca5 	bl	1a004776 <gpioRead>
1a000e2c:	b920      	cbnz	r0, 1a000e38 <FSM_Pulsador+0x34>
			pulsador->estadoFSM = sPULSADOR_CONFIRMANDO_PULSACION;
1a000e2e:	2302      	movs	r3, #2
1a000e30:	7063      	strb	r3, [r4, #1]
			pulsador->ticksFiltrados = 0;
1a000e32:	2300      	movs	r3, #0
1a000e34:	6123      	str	r3, [r4, #16]
1a000e36:	e00b      	b.n	1a000e50 <FSM_Pulsador+0x4c>
		} else {
			pulsador->ticksFiltrados = 5;
1a000e38:	2305      	movs	r3, #5
1a000e3a:	6123      	str	r3, [r4, #16]
1a000e3c:	e008      	b.n	1a000e50 <FSM_Pulsador+0x4c>
		}
		break;
		//-----------------------------------------------------------------------------
	case sPULSADOR_CONFIRMANDO_PULSACION:
		if ((gpioRead(pulsador->boton) == 0)) {
1a000e3e:	f990 0000 	ldrsb.w	r0, [r0]
1a000e42:	f003 fc98 	bl	1a004776 <gpioRead>
1a000e46:	b120      	cbz	r0, 1a000e52 <FSM_Pulsador+0x4e>
			pulsador->ticksFiltrados = 5;
			EncolarEvento(ModuloBroadcast, SIG_PULSADOR_APRETADO,
					pulsador->idPulsador);
			EncolarEvento(ModuloBroadcast, SIG_LEDON, pulsador->led);
		} else {
			pulsador->estadoFSM = sPULSADOR_ESPERANDO_PULSACION;
1a000e48:	2301      	movs	r3, #1
1a000e4a:	7063      	strb	r3, [r4, #1]
			pulsador->ticksFiltrados = 0;
1a000e4c:	2300      	movs	r3, #0
1a000e4e:	6123      	str	r3, [r4, #16]
	default:
		// Se me fue de valor la variable de estado!
		// TODO: Reinicializar ESTE pulsador
		break;
	}
}
1a000e50:	bd70      	pop	{r4, r5, r6, pc}
			pulsador->estadoFSM = sPULSADOR_ESPERANDO_LIBERACION;
1a000e52:	2603      	movs	r6, #3
1a000e54:	7066      	strb	r6, [r4, #1]
			pulsador->ticksFiltrados = 5;
1a000e56:	2305      	movs	r3, #5
1a000e58:	6123      	str	r3, [r4, #16]
			EncolarEvento(ModuloBroadcast, SIG_PULSADOR_APRETADO,
1a000e5a:	4d18      	ldr	r5, [pc, #96]	; (1a000ebc <FSM_Pulsador+0xb8>)
1a000e5c:	6962      	ldr	r2, [r4, #20]
1a000e5e:	2104      	movs	r1, #4
1a000e60:	6828      	ldr	r0, [r5, #0]
1a000e62:	f000 fa8f 	bl	1a001384 <EncolarEvento>
			EncolarEvento(ModuloBroadcast, SIG_LEDON, pulsador->led);
1a000e66:	f994 2002 	ldrsb.w	r2, [r4, #2]
1a000e6a:	4631      	mov	r1, r6
1a000e6c:	6828      	ldr	r0, [r5, #0]
1a000e6e:	f000 fa89 	bl	1a001384 <EncolarEvento>
1a000e72:	e7ed      	b.n	1a000e50 <FSM_Pulsador+0x4c>
		if ((gpioRead(pulsador->boton) != 0)) {
1a000e74:	f990 0000 	ldrsb.w	r0, [r0]
1a000e78:	f003 fc7d 	bl	1a004776 <gpioRead>
1a000e7c:	b120      	cbz	r0, 1a000e88 <FSM_Pulsador+0x84>
			pulsador->estadoFSM = sPULSADOR_CONFIRMANDO_LIBERACION;
1a000e7e:	2304      	movs	r3, #4
1a000e80:	7063      	strb	r3, [r4, #1]
			pulsador->ticksFiltrados = 0;
1a000e82:	2300      	movs	r3, #0
1a000e84:	6123      	str	r3, [r4, #16]
1a000e86:	e7e3      	b.n	1a000e50 <FSM_Pulsador+0x4c>
			pulsador->ticksFiltrados = 5;
1a000e88:	2305      	movs	r3, #5
1a000e8a:	6123      	str	r3, [r4, #16]
1a000e8c:	e7e0      	b.n	1a000e50 <FSM_Pulsador+0x4c>
		if ((gpioRead(pulsador->boton) != 0)) {
1a000e8e:	f990 0000 	ldrsb.w	r0, [r0]
1a000e92:	f003 fc70 	bl	1a004776 <gpioRead>
1a000e96:	2800      	cmp	r0, #0
1a000e98:	d0da      	beq.n	1a000e50 <FSM_Pulsador+0x4c>
			pulsador->estadoFSM = sPULSADOR_ESPERANDO_PULSACION;
1a000e9a:	2301      	movs	r3, #1
1a000e9c:	7063      	strb	r3, [r4, #1]
			pulsador->ticksFiltrados = 5;
1a000e9e:	2105      	movs	r1, #5
1a000ea0:	6121      	str	r1, [r4, #16]
			EncolarEvento(ModuloBroadcast, SIG_PULSADOR_LIBERADO,
1a000ea2:	4d06      	ldr	r5, [pc, #24]	; (1a000ebc <FSM_Pulsador+0xb8>)
1a000ea4:	6962      	ldr	r2, [r4, #20]
1a000ea6:	6828      	ldr	r0, [r5, #0]
1a000ea8:	f000 fa6c 	bl	1a001384 <EncolarEvento>
			EncolarEvento(ModuloBroadcast, SIG_LEDOFF, pulsador->led);
1a000eac:	f994 2002 	ldrsb.w	r2, [r4, #2]
1a000eb0:	2102      	movs	r1, #2
1a000eb2:	6828      	ldr	r0, [r5, #0]
1a000eb4:	f000 fa66 	bl	1a001384 <EncolarEvento>
1a000eb8:	e7ca      	b.n	1a000e50 <FSM_Pulsador+0x4c>
1a000eba:	bf00      	nop
1a000ebc:	10003270 	.word	0x10003270

1a000ec0 <DriverPulsadores>:
void DriverPulsadores(Evento_t *evn) {
1a000ec0:	b538      	push	{r3, r4, r5, lr}
1a000ec2:	4605      	mov	r5, r0
	switch (evn->signal) {
1a000ec4:	6843      	ldr	r3, [r0, #4]
1a000ec6:	b113      	cbz	r3, 1a000ece <DriverPulsadores+0xe>
1a000ec8:	2b01      	cmp	r3, #1
1a000eca:	d018      	beq.n	1a000efe <DriverPulsadores+0x3e>
}
1a000ecc:	bd38      	pop	{r3, r4, r5, pc}
		mod = (Modulo_t *) evn->valor;
1a000ece:	6880      	ldr	r0, [r0, #8]
1a000ed0:	4c0c      	ldr	r4, [pc, #48]	; (1a000f04 <DriverPulsadores+0x44>)
1a000ed2:	6020      	str	r0, [r4, #0]
		DriverPulsadoresInit(mod);
1a000ed4:	f7ff ff7a 	bl	1a000dcc <DriverPulsadoresInit>
		TimerArmRepetitivo(mod, mod->periodo);
1a000ed8:	6820      	ldr	r0, [r4, #0]
1a000eda:	6841      	ldr	r1, [r0, #4]
1a000edc:	f000 f9dc 	bl	1a001298 <TimerArmRepetitivo>
		break;
1a000ee0:	e7f4      	b.n	1a000ecc <DriverPulsadores+0xc>
			FSM_Pulsador(&vectorPulsadores[i], evn);
1a000ee2:	eb04 0244 	add.w	r2, r4, r4, lsl #1
1a000ee6:	00d3      	lsls	r3, r2, #3
1a000ee8:	4629      	mov	r1, r5
1a000eea:	4807      	ldr	r0, [pc, #28]	; (1a000f08 <DriverPulsadores+0x48>)
1a000eec:	4418      	add	r0, r3
1a000eee:	f7ff ff89 	bl	1a000e04 <FSM_Pulsador>
		for (i = 0; i < nPulsadores; i++) {
1a000ef2:	3401      	adds	r4, #1
1a000ef4:	4b05      	ldr	r3, [pc, #20]	; (1a000f0c <DriverPulsadores+0x4c>)
1a000ef6:	681b      	ldr	r3, [r3, #0]
1a000ef8:	42a3      	cmp	r3, r4
1a000efa:	dcf2      	bgt.n	1a000ee2 <DriverPulsadores+0x22>
1a000efc:	e7e6      	b.n	1a000ecc <DriverPulsadores+0xc>
1a000efe:	2400      	movs	r4, #0
1a000f00:	e7f8      	b.n	1a000ef4 <DriverPulsadores+0x34>
1a000f02:	bf00      	nop
1a000f04:	100003bc 	.word	0x100003bc
1a000f08:	10003034 	.word	0x10003034
1a000f0c:	100003c0 	.word	0x100003c0

1a000f10 <My_IRQ_Init>:
//Definición de vector de estructuras de control
struct Buttons_SM_t Buttons_SM[CANT_TECLAS];

/*==================[definiciones de funciones internas]=====================*/
//Función de inicialización de IRQs
void My_IRQ_Init(void) {
1a000f10:	b5f0      	push	{r4, r5, r6, r7, lr}
 */
STATIC INLINE void Chip_SCU_GPIOIntPinSel(uint8_t PortSel, uint8_t PortNum, uint8_t PinNum)
{
	int32_t of = (PortSel & 3) << 3;
	uint32_t val = (((PortNum & 0x7) << 5) | (PinNum & 0x1F)) << of;
	LPC_SCU->PINTSEL[PortSel >> 2] = (LPC_SCU->PINTSEL[PortSel >> 2] & ~(0xFF << of)) | val;
1a000f12:	4a49      	ldr	r2, [pc, #292]	; (1a001038 <My_IRQ_Init+0x128>)
1a000f14:	f8d2 3e00 	ldr.w	r3, [r2, #3584]	; 0xe00
1a000f18:	f023 03ff 	bic.w	r3, r3, #255	; 0xff
1a000f1c:	f043 0304 	orr.w	r3, r3, #4
1a000f20:	f8c2 3e00 	str.w	r3, [r2, #3584]	; 0xe00
 * @param	pins	: Pins (ORed value of PININTCH*)
 * @return	Nothing
 */
STATIC INLINE void Chip_PININT_SetPinModeEdge(LPC_PIN_INT_T *pPININT, uint32_t pins)
{
	pPININT->ISEL &= ~pins;
1a000f24:	4b45      	ldr	r3, [pc, #276]	; (1a00103c <My_IRQ_Init+0x12c>)
1a000f26:	6819      	ldr	r1, [r3, #0]
1a000f28:	f021 0101 	bic.w	r1, r1, #1
1a000f2c:	6019      	str	r1, [r3, #0]
 * @param	pins	: Pins to enable (ORed value of PININTCH*)
 * @return	Nothing
 */
STATIC INLINE void Chip_PININT_EnableIntLow(LPC_PIN_INT_T *pPININT, uint32_t pins)
{
	pPININT->SIENF = pins;
1a000f2e:	f04f 0e01 	mov.w	lr, #1
1a000f32:	f8c3 e014 	str.w	lr, [r3, #20]
1a000f36:	f8d2 1e00 	ldr.w	r1, [r2, #3584]	; 0xe00
1a000f3a:	f421 417f 	bic.w	r1, r1, #65280	; 0xff00
1a000f3e:	f441 6180 	orr.w	r1, r1, #1024	; 0x400
1a000f42:	f8c2 1e00 	str.w	r1, [r2, #3584]	; 0xe00
	pPININT->ISEL &= ~pins;
1a000f46:	6819      	ldr	r1, [r3, #0]
1a000f48:	f021 0102 	bic.w	r1, r1, #2
1a000f4c:	6019      	str	r1, [r3, #0]
	pPININT->SIENR = pins;
1a000f4e:	f04f 0c02 	mov.w	ip, #2
1a000f52:	f8c3 c008 	str.w	ip, [r3, #8]
1a000f56:	f8d2 1e00 	ldr.w	r1, [r2, #3584]	; 0xe00
1a000f5a:	f421 017f 	bic.w	r1, r1, #16711680	; 0xff0000
1a000f5e:	f441 2100 	orr.w	r1, r1, #524288	; 0x80000
1a000f62:	f8c2 1e00 	str.w	r1, [r2, #3584]	; 0xe00
	pPININT->ISEL &= ~pins;
1a000f66:	6819      	ldr	r1, [r3, #0]
1a000f68:	f021 0104 	bic.w	r1, r1, #4
1a000f6c:	6019      	str	r1, [r3, #0]
	pPININT->SIENF = pins;
1a000f6e:	2704      	movs	r7, #4
1a000f70:	615f      	str	r7, [r3, #20]
1a000f72:	f8d2 1e00 	ldr.w	r1, [r2, #3584]	; 0xe00
1a000f76:	f021 417f 	bic.w	r1, r1, #4278190080	; 0xff000000
1a000f7a:	f041 6100 	orr.w	r1, r1, #134217728	; 0x8000000
1a000f7e:	f8c2 1e00 	str.w	r1, [r2, #3584]	; 0xe00
	pPININT->ISEL &= ~pins;
1a000f82:	6819      	ldr	r1, [r3, #0]
1a000f84:	f021 0108 	bic.w	r1, r1, #8
1a000f88:	6019      	str	r1, [r3, #0]
	pPININT->SIENR = pins;
1a000f8a:	2608      	movs	r6, #8
1a000f8c:	609e      	str	r6, [r3, #8]
1a000f8e:	f8d2 1e04 	ldr.w	r1, [r2, #3588]	; 0xe04
1a000f92:	f021 01ff 	bic.w	r1, r1, #255	; 0xff
1a000f96:	f041 0109 	orr.w	r1, r1, #9
1a000f9a:	f8c2 1e04 	str.w	r1, [r2, #3588]	; 0xe04
	pPININT->ISEL &= ~pins;
1a000f9e:	6819      	ldr	r1, [r3, #0]
1a000fa0:	f021 0110 	bic.w	r1, r1, #16
1a000fa4:	6019      	str	r1, [r3, #0]
	pPININT->SIENF = pins;
1a000fa6:	2510      	movs	r5, #16
1a000fa8:	615d      	str	r5, [r3, #20]
1a000faa:	f8d2 1e04 	ldr.w	r1, [r2, #3588]	; 0xe04
1a000fae:	f421 417f 	bic.w	r1, r1, #65280	; 0xff00
1a000fb2:	f441 6110 	orr.w	r1, r1, #2304	; 0x900
1a000fb6:	f8c2 1e04 	str.w	r1, [r2, #3588]	; 0xe04
	pPININT->ISEL &= ~pins;
1a000fba:	6819      	ldr	r1, [r3, #0]
1a000fbc:	f021 0120 	bic.w	r1, r1, #32
1a000fc0:	6019      	str	r1, [r3, #0]
	pPININT->SIENR = pins;
1a000fc2:	2420      	movs	r4, #32
1a000fc4:	609c      	str	r4, [r3, #8]
1a000fc6:	f8d2 1e04 	ldr.w	r1, [r2, #3588]	; 0xe04
1a000fca:	f421 017f 	bic.w	r1, r1, #16711680	; 0xff0000
1a000fce:	f441 1124 	orr.w	r1, r1, #2686976	; 0x290000
1a000fd2:	f8c2 1e04 	str.w	r1, [r2, #3588]	; 0xe04
	pPININT->ISEL &= ~pins;
1a000fd6:	6819      	ldr	r1, [r3, #0]
1a000fd8:	f021 0140 	bic.w	r1, r1, #64	; 0x40
1a000fdc:	6019      	str	r1, [r3, #0]
	pPININT->SIENF = pins;
1a000fde:	2140      	movs	r1, #64	; 0x40
1a000fe0:	6159      	str	r1, [r3, #20]
1a000fe2:	f8d2 0e04 	ldr.w	r0, [r2, #3588]	; 0xe04
1a000fe6:	f020 407f 	bic.w	r0, r0, #4278190080	; 0xff000000
1a000fea:	f040 5024 	orr.w	r0, r0, #687865856	; 0x29000000
1a000fee:	f8c2 0e04 	str.w	r0, [r2, #3588]	; 0xe04
	pPININT->ISEL &= ~pins;
1a000ff2:	681a      	ldr	r2, [r3, #0]
1a000ff4:	f022 0280 	bic.w	r2, r2, #128	; 0x80
1a000ff8:	601a      	str	r2, [r3, #0]
	pPININT->SIENR = pins;
1a000ffa:	2280      	movs	r2, #128	; 0x80
1a000ffc:	609a      	str	r2, [r3, #8]
 */
__STATIC_INLINE void __NVIC_SetPriority(IRQn_Type IRQn, uint32_t priority)
{
  if ((int32_t)(IRQn) >= 0)
  {
    NVIC->IP[((uint32_t)IRQn)]               = (uint8_t)((priority << (8U - __NVIC_PRIO_BITS)) & (uint32_t)0xFFUL);
1a000ffe:	4b10      	ldr	r3, [pc, #64]	; (1a001040 <My_IRQ_Init+0x130>)
1a001000:	f883 1320 	strb.w	r1, [r3, #800]	; 0x320
    NVIC->ISER[(((uint32_t)IRQn) >> 5UL)] = (uint32_t)(1UL << (((uint32_t)IRQn) & 0x1FUL));
1a001004:	f8c3 e004 	str.w	lr, [r3, #4]
    NVIC->IP[((uint32_t)IRQn)]               = (uint8_t)((priority << (8U - __NVIC_PRIO_BITS)) & (uint32_t)0xFFUL);
1a001008:	f883 1321 	strb.w	r1, [r3, #801]	; 0x321
    NVIC->ISER[(((uint32_t)IRQn) >> 5UL)] = (uint32_t)(1UL << (((uint32_t)IRQn) & 0x1FUL));
1a00100c:	f8c3 c004 	str.w	ip, [r3, #4]
    NVIC->IP[((uint32_t)IRQn)]               = (uint8_t)((priority << (8U - __NVIC_PRIO_BITS)) & (uint32_t)0xFFUL);
1a001010:	f883 1322 	strb.w	r1, [r3, #802]	; 0x322
    NVIC->ISER[(((uint32_t)IRQn) >> 5UL)] = (uint32_t)(1UL << (((uint32_t)IRQn) & 0x1FUL));
1a001014:	605f      	str	r7, [r3, #4]
    NVIC->IP[((uint32_t)IRQn)]               = (uint8_t)((priority << (8U - __NVIC_PRIO_BITS)) & (uint32_t)0xFFUL);
1a001016:	f883 1323 	strb.w	r1, [r3, #803]	; 0x323
    NVIC->ISER[(((uint32_t)IRQn) >> 5UL)] = (uint32_t)(1UL << (((uint32_t)IRQn) & 0x1FUL));
1a00101a:	605e      	str	r6, [r3, #4]
    NVIC->IP[((uint32_t)IRQn)]               = (uint8_t)((priority << (8U - __NVIC_PRIO_BITS)) & (uint32_t)0xFFUL);
1a00101c:	f883 1324 	strb.w	r1, [r3, #804]	; 0x324
    NVIC->ISER[(((uint32_t)IRQn) >> 5UL)] = (uint32_t)(1UL << (((uint32_t)IRQn) & 0x1FUL));
1a001020:	605d      	str	r5, [r3, #4]
    NVIC->IP[((uint32_t)IRQn)]               = (uint8_t)((priority << (8U - __NVIC_PRIO_BITS)) & (uint32_t)0xFFUL);
1a001022:	f883 1325 	strb.w	r1, [r3, #805]	; 0x325
    NVIC->ISER[(((uint32_t)IRQn) >> 5UL)] = (uint32_t)(1UL << (((uint32_t)IRQn) & 0x1FUL));
1a001026:	605c      	str	r4, [r3, #4]
    NVIC->IP[((uint32_t)IRQn)]               = (uint8_t)((priority << (8U - __NVIC_PRIO_BITS)) & (uint32_t)0xFFUL);
1a001028:	f883 1326 	strb.w	r1, [r3, #806]	; 0x326
    NVIC->ISER[(((uint32_t)IRQn) >> 5UL)] = (uint32_t)(1UL << (((uint32_t)IRQn) & 0x1FUL));
1a00102c:	6059      	str	r1, [r3, #4]
    NVIC->IP[((uint32_t)IRQn)]               = (uint8_t)((priority << (8U - __NVIC_PRIO_BITS)) & (uint32_t)0xFFUL);
1a00102e:	f883 1327 	strb.w	r1, [r3, #807]	; 0x327
    NVIC->ISER[(((uint32_t)IRQn) >> 5UL)] = (uint32_t)(1UL << (((uint32_t)IRQn) & 0x1FUL));
1a001032:	605a      	str	r2, [r3, #4]
	NVIC_SetPriority(PIN_INT6_IRQn, 2);
	NVIC_EnableIRQ(PIN_INT6_IRQn);
	NVIC_SetPriority(PIN_INT7_IRQn, 2);
	NVIC_EnableIRQ(PIN_INT7_IRQn);

}
1a001034:	bdf0      	pop	{r4, r5, r6, r7, pc}
1a001036:	bf00      	nop
1a001038:	40086000 	.word	0x40086000
1a00103c:	40087000 	.word	0x40087000
1a001040:	e000e100 	.word	0xe000e100

1a001044 <GPIO0_IRQHandler>:

void GPIO0_IRQHandler(void) {
1a001044:	b508      	push	{r3, lr}
 * @param	pPININT	: The base address of Pin interrupt block
 * @return	PININT states (bit n = high) with a latched rise state detected
 */
STATIC INLINE uint32_t Chip_PININT_GetFallStates(LPC_PIN_INT_T *pPININT)
{
	return pPININT->FALL;
1a001046:	4b07      	ldr	r3, [pc, #28]	; (1a001064 <GPIO0_IRQHandler+0x20>)
1a001048:	6a1b      	ldr	r3, [r3, #32]
	BaseType_t xHigherPriorityTaskWoken = pdFALSE; //Comenzamos definiendo la variable

	if (Chip_PININT_GetFallStates(LPC_GPIO_PIN_INT) & PININTCH0) { //Verificamos que la interrupción es la esperada
1a00104a:	f013 0f01 	tst.w	r3, #1
1a00104e:	d100      	bne.n	1a001052 <GPIO0_IRQHandler+0xe>
		//codigo a ejecutar si ocurrió la interrupción
		vectorPulsadores[0].tpulsado = xTaskGetTickCountFromISR();
	}

	portYIELD_FROM_ISR(xHigherPriorityTaskWoken);
}
1a001050:	bd08      	pop	{r3, pc}
 * @param	pins	: Pin interrupts to clear (ORed value of PININTCH*)
 * @return	Nothing
 */
STATIC INLINE void Chip_PININT_ClearIntStatus(LPC_PIN_INT_T *pPININT, uint32_t pins)
{
	pPININT->IST = pins;
1a001052:	4b04      	ldr	r3, [pc, #16]	; (1a001064 <GPIO0_IRQHandler+0x20>)
1a001054:	2201      	movs	r2, #1
1a001056:	625a      	str	r2, [r3, #36]	; 0x24
		vectorPulsadores[0].tpulsado = xTaskGetTickCountFromISR();
1a001058:	f001 faba 	bl	1a0025d0 <xTaskGetTickCountFromISR>
1a00105c:	4b02      	ldr	r3, [pc, #8]	; (1a001068 <GPIO0_IRQHandler+0x24>)
1a00105e:	6058      	str	r0, [r3, #4]
}
1a001060:	e7f6      	b.n	1a001050 <GPIO0_IRQHandler+0xc>
1a001062:	bf00      	nop
1a001064:	40087000 	.word	0x40087000
1a001068:	10003034 	.word	0x10003034

1a00106c <GPIO1_IRQHandler>:

void GPIO1_IRQHandler(void) {
1a00106c:	b508      	push	{r3, lr}
	return pPININT->RISE;
1a00106e:	4b08      	ldr	r3, [pc, #32]	; (1a001090 <GPIO1_IRQHandler+0x24>)
1a001070:	69db      	ldr	r3, [r3, #28]
	BaseType_t xHigherPriorityTaskWoken = pdFALSE;

	if (Chip_PININT_GetRiseStates(LPC_GPIO_PIN_INT) & PININTCH1) {
1a001072:	f013 0f02 	tst.w	r3, #2
1a001076:	d100      	bne.n	1a00107a <GPIO1_IRQHandler+0xe>
		vectorPulsadores[0].tsoltado = xTaskGetTickCountFromISR();
		vectorPulsadores[0].duracion = vectorPulsadores[0].tsoltado - vectorPulsadores[0].tpulsado;

	}
	portYIELD_FROM_ISR(xHigherPriorityTaskWoken);
}
1a001078:	bd08      	pop	{r3, pc}
	pPININT->IST = pins;
1a00107a:	4b05      	ldr	r3, [pc, #20]	; (1a001090 <GPIO1_IRQHandler+0x24>)
1a00107c:	2202      	movs	r2, #2
1a00107e:	625a      	str	r2, [r3, #36]	; 0x24
		vectorPulsadores[0].tsoltado = xTaskGetTickCountFromISR();
1a001080:	f001 faa6 	bl	1a0025d0 <xTaskGetTickCountFromISR>
1a001084:	4b03      	ldr	r3, [pc, #12]	; (1a001094 <GPIO1_IRQHandler+0x28>)
1a001086:	6098      	str	r0, [r3, #8]
		vectorPulsadores[0].duracion = vectorPulsadores[0].tsoltado - vectorPulsadores[0].tpulsado;
1a001088:	685a      	ldr	r2, [r3, #4]
1a00108a:	1a80      	subs	r0, r0, r2
1a00108c:	60d8      	str	r0, [r3, #12]
}
1a00108e:	e7f3      	b.n	1a001078 <GPIO1_IRQHandler+0xc>
1a001090:	40087000 	.word	0x40087000
1a001094:	10003034 	.word	0x10003034

1a001098 <GPIO2_IRQHandler>:

void GPIO2_IRQHandler(void) {
1a001098:	b508      	push	{r3, lr}
	return pPININT->FALL;
1a00109a:	4b07      	ldr	r3, [pc, #28]	; (1a0010b8 <GPIO2_IRQHandler+0x20>)
1a00109c:	6a1b      	ldr	r3, [r3, #32]
	BaseType_t xHigherPriorityTaskWoken = pdFALSE; //Comenzamos definiendo la variable

	if (Chip_PININT_GetFallStates(LPC_GPIO_PIN_INT) & PININTCH2) { //Verificamos que la interrupción es la esperada
1a00109e:	f013 0f04 	tst.w	r3, #4
1a0010a2:	d100      	bne.n	1a0010a6 <GPIO2_IRQHandler+0xe>
		//codigo a ejecutar si ocurrió la interrupción
		vectorPulsadores[1].tpulsado = xTaskGetTickCountFromISR();
	}

	portYIELD_FROM_ISR(xHigherPriorityTaskWoken);
}
1a0010a4:	bd08      	pop	{r3, pc}
	pPININT->IST = pins;
1a0010a6:	4b04      	ldr	r3, [pc, #16]	; (1a0010b8 <GPIO2_IRQHandler+0x20>)
1a0010a8:	2204      	movs	r2, #4
1a0010aa:	625a      	str	r2, [r3, #36]	; 0x24
		vectorPulsadores[1].tpulsado = xTaskGetTickCountFromISR();
1a0010ac:	f001 fa90 	bl	1a0025d0 <xTaskGetTickCountFromISR>
1a0010b0:	4b02      	ldr	r3, [pc, #8]	; (1a0010bc <GPIO2_IRQHandler+0x24>)
1a0010b2:	61d8      	str	r0, [r3, #28]
}
1a0010b4:	e7f6      	b.n	1a0010a4 <GPIO2_IRQHandler+0xc>
1a0010b6:	bf00      	nop
1a0010b8:	40087000 	.word	0x40087000
1a0010bc:	10003034 	.word	0x10003034

1a0010c0 <GPIO3_IRQHandler>:

void GPIO3_IRQHandler(void) {
1a0010c0:	b508      	push	{r3, lr}
	return pPININT->RISE;
1a0010c2:	4b08      	ldr	r3, [pc, #32]	; (1a0010e4 <GPIO3_IRQHandler+0x24>)
1a0010c4:	69db      	ldr	r3, [r3, #28]
	BaseType_t xHigherPriorityTaskWoken = pdFALSE;

	if (Chip_PININT_GetRiseStates(LPC_GPIO_PIN_INT) & PININTCH3) {
1a0010c6:	f013 0f08 	tst.w	r3, #8
1a0010ca:	d100      	bne.n	1a0010ce <GPIO3_IRQHandler+0xe>
		//codigo a ejecutar si ocurrió la interrupción
		vectorPulsadores[1].tsoltado = xTaskGetTickCountFromISR();
		vectorPulsadores[1].duracion = vectorPulsadores[1].tsoltado - vectorPulsadores[1].tpulsado;
	}
	portYIELD_FROM_ISR(xHigherPriorityTaskWoken);
}
1a0010cc:	bd08      	pop	{r3, pc}
	pPININT->IST = pins;
1a0010ce:	4b05      	ldr	r3, [pc, #20]	; (1a0010e4 <GPIO3_IRQHandler+0x24>)
1a0010d0:	2208      	movs	r2, #8
1a0010d2:	625a      	str	r2, [r3, #36]	; 0x24
		vectorPulsadores[1].tsoltado = xTaskGetTickCountFromISR();
1a0010d4:	f001 fa7c 	bl	1a0025d0 <xTaskGetTickCountFromISR>
1a0010d8:	4b03      	ldr	r3, [pc, #12]	; (1a0010e8 <GPIO3_IRQHandler+0x28>)
1a0010da:	6218      	str	r0, [r3, #32]
		vectorPulsadores[1].duracion = vectorPulsadores[1].tsoltado - vectorPulsadores[1].tpulsado;
1a0010dc:	69da      	ldr	r2, [r3, #28]
1a0010de:	1a80      	subs	r0, r0, r2
1a0010e0:	6258      	str	r0, [r3, #36]	; 0x24
}
1a0010e2:	e7f3      	b.n	1a0010cc <GPIO3_IRQHandler+0xc>
1a0010e4:	40087000 	.word	0x40087000
1a0010e8:	10003034 	.word	0x10003034

1a0010ec <GPIO4_IRQHandler>:

void GPIO4_IRQHandler(void) {
1a0010ec:	b508      	push	{r3, lr}
	return pPININT->FALL;
1a0010ee:	4b07      	ldr	r3, [pc, #28]	; (1a00110c <GPIO4_IRQHandler+0x20>)
1a0010f0:	6a1b      	ldr	r3, [r3, #32]
	BaseType_t xHigherPriorityTaskWoken = pdFALSE; //Comenzamos definiendo la variable

	if (Chip_PININT_GetFallStates(LPC_GPIO_PIN_INT) & PININTCH4) { //Verificamos que la interrupción es la esperada
1a0010f2:	f013 0f10 	tst.w	r3, #16
1a0010f6:	d100      	bne.n	1a0010fa <GPIO4_IRQHandler+0xe>
		//codigo a ejecutar si ocurrió la interrupción
		vectorPulsadores[2].tpulsado = xTaskGetTickCountFromISR();
	}

	portYIELD_FROM_ISR(xHigherPriorityTaskWoken);
}
1a0010f8:	bd08      	pop	{r3, pc}
	pPININT->IST = pins;
1a0010fa:	4b04      	ldr	r3, [pc, #16]	; (1a00110c <GPIO4_IRQHandler+0x20>)
1a0010fc:	2210      	movs	r2, #16
1a0010fe:	625a      	str	r2, [r3, #36]	; 0x24
		vectorPulsadores[2].tpulsado = xTaskGetTickCountFromISR();
1a001100:	f001 fa66 	bl	1a0025d0 <xTaskGetTickCountFromISR>
1a001104:	4b02      	ldr	r3, [pc, #8]	; (1a001110 <GPIO4_IRQHandler+0x24>)
1a001106:	6358      	str	r0, [r3, #52]	; 0x34
}
1a001108:	e7f6      	b.n	1a0010f8 <GPIO4_IRQHandler+0xc>
1a00110a:	bf00      	nop
1a00110c:	40087000 	.word	0x40087000
1a001110:	10003034 	.word	0x10003034

1a001114 <GPIO5_IRQHandler>:

void GPIO5_IRQHandler(void) {
1a001114:	b508      	push	{r3, lr}
	return pPININT->RISE;
1a001116:	4b08      	ldr	r3, [pc, #32]	; (1a001138 <GPIO5_IRQHandler+0x24>)
1a001118:	69db      	ldr	r3, [r3, #28]
	BaseType_t xHigherPriorityTaskWoken = pdFALSE;

	if (Chip_PININT_GetRiseStates(LPC_GPIO_PIN_INT) & PININTCH5) {
1a00111a:	f013 0f20 	tst.w	r3, #32
1a00111e:	d100      	bne.n	1a001122 <GPIO5_IRQHandler+0xe>
		//codigo a ejecutar si ocurrió la interrupción
		vectorPulsadores[2].tsoltado = xTaskGetTickCountFromISR();
		vectorPulsadores[2].duracion = vectorPulsadores[2].tsoltado - vectorPulsadores[2].tpulsado;
	}
	portYIELD_FROM_ISR(xHigherPriorityTaskWoken);
}
1a001120:	bd08      	pop	{r3, pc}
	pPININT->IST = pins;
1a001122:	4b05      	ldr	r3, [pc, #20]	; (1a001138 <GPIO5_IRQHandler+0x24>)
1a001124:	2220      	movs	r2, #32
1a001126:	625a      	str	r2, [r3, #36]	; 0x24
		vectorPulsadores[2].tsoltado = xTaskGetTickCountFromISR();
1a001128:	f001 fa52 	bl	1a0025d0 <xTaskGetTickCountFromISR>
1a00112c:	4b03      	ldr	r3, [pc, #12]	; (1a00113c <GPIO5_IRQHandler+0x28>)
1a00112e:	6398      	str	r0, [r3, #56]	; 0x38
		vectorPulsadores[2].duracion = vectorPulsadores[2].tsoltado - vectorPulsadores[2].tpulsado;
1a001130:	6b5a      	ldr	r2, [r3, #52]	; 0x34
1a001132:	1a80      	subs	r0, r0, r2
1a001134:	63d8      	str	r0, [r3, #60]	; 0x3c
}
1a001136:	e7f3      	b.n	1a001120 <GPIO5_IRQHandler+0xc>
1a001138:	40087000 	.word	0x40087000
1a00113c:	10003034 	.word	0x10003034

1a001140 <GPIO6_IRQHandler>:

void GPIO6_IRQHandler(void) {
1a001140:	b508      	push	{r3, lr}
	return pPININT->FALL;
1a001142:	4b07      	ldr	r3, [pc, #28]	; (1a001160 <GPIO6_IRQHandler+0x20>)
1a001144:	6a1b      	ldr	r3, [r3, #32]
	BaseType_t xHigherPriorityTaskWoken = pdFALSE; //Comenzamos definiendo la variable

	if (Chip_PININT_GetFallStates(LPC_GPIO_PIN_INT) & PININTCH6) { //Verificamos que la interrupción es la esperada
1a001146:	f013 0f40 	tst.w	r3, #64	; 0x40
1a00114a:	d100      	bne.n	1a00114e <GPIO6_IRQHandler+0xe>
		//codigo a ejecutar si ocurrió la interrupción
		vectorPulsadores[3].tpulsado = xTaskGetTickCountFromISR();
	}

	portYIELD_FROM_ISR(xHigherPriorityTaskWoken);
}
1a00114c:	bd08      	pop	{r3, pc}
	pPININT->IST = pins;
1a00114e:	4b04      	ldr	r3, [pc, #16]	; (1a001160 <GPIO6_IRQHandler+0x20>)
1a001150:	2240      	movs	r2, #64	; 0x40
1a001152:	625a      	str	r2, [r3, #36]	; 0x24
		vectorPulsadores[3].tpulsado = xTaskGetTickCountFromISR();
1a001154:	f001 fa3c 	bl	1a0025d0 <xTaskGetTickCountFromISR>
1a001158:	4b02      	ldr	r3, [pc, #8]	; (1a001164 <GPIO6_IRQHandler+0x24>)
1a00115a:	64d8      	str	r0, [r3, #76]	; 0x4c
}
1a00115c:	e7f6      	b.n	1a00114c <GPIO6_IRQHandler+0xc>
1a00115e:	bf00      	nop
1a001160:	40087000 	.word	0x40087000
1a001164:	10003034 	.word	0x10003034

1a001168 <GPIO7_IRQHandler>:

void GPIO7_IRQHandler(void) {
1a001168:	b508      	push	{r3, lr}
	return pPININT->RISE;
1a00116a:	4b08      	ldr	r3, [pc, #32]	; (1a00118c <GPIO7_IRQHandler+0x24>)
1a00116c:	69db      	ldr	r3, [r3, #28]
	BaseType_t xHigherPriorityTaskWoken = pdFALSE;

	if (Chip_PININT_GetRiseStates(LPC_GPIO_PIN_INT) & PININTCH7) {
1a00116e:	f013 0f80 	tst.w	r3, #128	; 0x80
1a001172:	d100      	bne.n	1a001176 <GPIO7_IRQHandler+0xe>
		//codigo a ejecutar si ocurrió la interrupción
		vectorPulsadores[3].tsoltado = xTaskGetTickCountFromISR();
		vectorPulsadores[3].duracion = vectorPulsadores[3].tsoltado - vectorPulsadores[3].tpulsado;
	}
	portYIELD_FROM_ISR(xHigherPriorityTaskWoken);
}
1a001174:	bd08      	pop	{r3, pc}
	pPININT->IST = pins;
1a001176:	4b05      	ldr	r3, [pc, #20]	; (1a00118c <GPIO7_IRQHandler+0x24>)
1a001178:	2280      	movs	r2, #128	; 0x80
1a00117a:	625a      	str	r2, [r3, #36]	; 0x24
		vectorPulsadores[3].tsoltado = xTaskGetTickCountFromISR();
1a00117c:	f001 fa28 	bl	1a0025d0 <xTaskGetTickCountFromISR>
1a001180:	4b03      	ldr	r3, [pc, #12]	; (1a001190 <GPIO7_IRQHandler+0x28>)
1a001182:	6518      	str	r0, [r3, #80]	; 0x50
		vectorPulsadores[3].duracion = vectorPulsadores[3].tsoltado - vectorPulsadores[3].tpulsado;
1a001184:	6cda      	ldr	r2, [r3, #76]	; 0x4c
1a001186:	1a80      	subs	r0, r0, r2
1a001188:	6558      	str	r0, [r3, #84]	; 0x54
}
1a00118a:	e7f3      	b.n	1a001174 <GPIO7_IRQHandler+0xc>
1a00118c:	40087000 	.word	0x40087000
1a001190:	10003034 	.word	0x10003034

1a001194 <LedInit>:
#define MAX_LEDS 4
Led_t vectorLeds[MAX_LEDS];
static Modulo_t * mod;


void LedInit(Led_t * pled, gpioMap_t led) {
1a001194:	b508      	push	{r3, lr}
1a001196:	460b      	mov	r3, r1
	pled->Led=led;
1a001198:	7001      	strb	r1, [r0, #0]
	pled->Estado=FALSE;
1a00119a:	2100      	movs	r1, #0
1a00119c:	7041      	strb	r1, [r0, #1]
	gpioWrite( pled->Led, pled->Estado);
1a00119e:	4618      	mov	r0, r3
1a0011a0:	f003 fab4 	bl	1a00470c <gpioWrite>
}
1a0011a4:	bd08      	pop	{r3, pc}
1a0011a6:	Address 0x000000001a0011a6 is out of bounds.


1a0011a8 <DriverLedsInit>:

void DriverLedsInit(Modulo_t * pModulo) {
1a0011a8:	b510      	push	{r4, lr}
	LedInit(&vectorLeds[0], LEDB);
1a0011aa:	4c09      	ldr	r4, [pc, #36]	; (1a0011d0 <DriverLedsInit+0x28>)
1a0011ac:	212a      	movs	r1, #42	; 0x2a
1a0011ae:	4620      	mov	r0, r4
1a0011b0:	f7ff fff0 	bl	1a001194 <LedInit>
	LedInit(&vectorLeds[1], LED1);
1a0011b4:	212b      	movs	r1, #43	; 0x2b
1a0011b6:	1ca0      	adds	r0, r4, #2
1a0011b8:	f7ff ffec 	bl	1a001194 <LedInit>
	LedInit(&vectorLeds[2], LED2);
1a0011bc:	212c      	movs	r1, #44	; 0x2c
1a0011be:	1d20      	adds	r0, r4, #4
1a0011c0:	f7ff ffe8 	bl	1a001194 <LedInit>
	LedInit(&vectorLeds[3], LED3);
1a0011c4:	212d      	movs	r1, #45	; 0x2d
1a0011c6:	1da0      	adds	r0, r4, #6
1a0011c8:	f7ff ffe4 	bl	1a001194 <LedInit>
}
1a0011cc:	bd10      	pop	{r4, pc}
1a0011ce:	bf00      	nop
1a0011d0:	100030c8 	.word	0x100030c8

1a0011d4 <LedOn>:

void LedOn(Evento_t *evn){
1a0011d4:	b508      	push	{r3, lr}
	gpioWrite(vectorLeds[evn->valor].Led,TRUE);
1a0011d6:	6882      	ldr	r2, [r0, #8]
1a0011d8:	2101      	movs	r1, #1
1a0011da:	4b03      	ldr	r3, [pc, #12]	; (1a0011e8 <LedOn+0x14>)
1a0011dc:	f913 0012 	ldrsb.w	r0, [r3, r2, lsl #1]
1a0011e0:	f003 fa94 	bl	1a00470c <gpioWrite>
}
1a0011e4:	bd08      	pop	{r3, pc}
1a0011e6:	bf00      	nop
1a0011e8:	100030c8 	.word	0x100030c8

1a0011ec <LedOff>:
void LedOff(Evento_t *evn){
1a0011ec:	b508      	push	{r3, lr}
	gpioWrite(vectorLeds[evn->valor].Led,FALSE);
1a0011ee:	6882      	ldr	r2, [r0, #8]
1a0011f0:	2100      	movs	r1, #0
1a0011f2:	4b03      	ldr	r3, [pc, #12]	; (1a001200 <LedOff+0x14>)
1a0011f4:	f913 0012 	ldrsb.w	r0, [r3, r2, lsl #1]
1a0011f8:	f003 fa88 	bl	1a00470c <gpioWrite>
}
1a0011fc:	bd08      	pop	{r3, pc}
1a0011fe:	bf00      	nop
1a001200:	100030c8 	.word	0x100030c8

1a001204 <DriverLeds>:


void DriverLeds(Evento_t *evn) {
1a001204:	b508      	push	{r3, lr}
	int i;
	switch (evn->signal) {
1a001206:	6843      	ldr	r3, [r0, #4]
1a001208:	2b02      	cmp	r3, #2
1a00120a:	d00a      	beq.n	1a001222 <DriverLeds+0x1e>
1a00120c:	2b03      	cmp	r3, #3
1a00120e:	d005      	beq.n	1a00121c <DriverLeds+0x18>
1a001210:	b103      	cbz	r3, 1a001214 <DriverLeds+0x10>
		break;

	default:	// Ignoro todas las otras seniales
		break;
	}
}
1a001212:	bd08      	pop	{r3, pc}
		DriverLedsInit(mod);
1a001214:	6880      	ldr	r0, [r0, #8]
1a001216:	f7ff ffc7 	bl	1a0011a8 <DriverLedsInit>
		break;
1a00121a:	e7fa      	b.n	1a001212 <DriverLeds+0xe>
		LedOn(evn);
1a00121c:	f7ff ffda 	bl	1a0011d4 <LedOn>
		break;
1a001220:	e7f7      	b.n	1a001212 <DriverLeds+0xe>
		LedOff(evn);
1a001222:	f7ff ffe3 	bl	1a0011ec <LedOff>
}
1a001226:	e7f4      	b.n	1a001212 <DriverLeds+0xe>

1a001228 <RegistrarModulo>:
xQueueHandle colaEventosPrioridadMedia;
xQueueHandle colaEventosPrioridadAlta;

Modulo_t * RegistrarModulo ( fsm_ptr manejadorEventos , int prioridad )
{
    if( ultimoModulo >= MAX_MODULOS )
1a001228:	4b0b      	ldr	r3, [pc, #44]	; (1a001258 <RegistrarModulo+0x30>)
1a00122a:	681b      	ldr	r3, [r3, #0]
1a00122c:	2b13      	cmp	r3, #19
1a00122e:	dc10      	bgt.n	1a001252 <RegistrarModulo+0x2a>
{
1a001230:	b430      	push	{r4, r5}
    {
        return NULL;
    }

    Modulo_t * pModulo 			= &modulos[ultimoModulo];
1a001232:	009a      	lsls	r2, r3, #2
1a001234:	441a      	add	r2, r3
1a001236:	0094      	lsls	r4, r2, #2
1a001238:	4d08      	ldr	r5, [pc, #32]	; (1a00125c <RegistrarModulo+0x34>)
1a00123a:	1962      	adds	r2, r4, r5
    pModulo->manejadorEventos	= manejadorEventos;
1a00123c:	5160      	str	r0, [r4, r5]
    pModulo->timeoutTick		= TIMER_DISABLED;
1a00123e:	f04f 30ff 	mov.w	r0, #4294967295	; 0xffffffff
1a001242:	6090      	str	r0, [r2, #8]
    pModulo->prioridad 			= prioridad;
1a001244:	6111      	str	r1, [r2, #16]

    ultimoModulo++;
1a001246:	3301      	adds	r3, #1
1a001248:	4903      	ldr	r1, [pc, #12]	; (1a001258 <RegistrarModulo+0x30>)
1a00124a:	600b      	str	r3, [r1, #0]
    return pModulo++;
}
1a00124c:	4610      	mov	r0, r2
1a00124e:	bc30      	pop	{r4, r5}
1a001250:	4770      	bx	lr
        return NULL;
1a001252:	2200      	movs	r2, #0
}
1a001254:	4610      	mov	r0, r2
1a001256:	4770      	bx	lr
1a001258:	100003c4 	.word	0x100003c4
1a00125c:	100030d8 	.word	0x100030d8

1a001260 <IniciarTodosLosModulos>:

void IniciarTodosLosModulos ( void )
{
1a001260:	b510      	push	{r4, lr}
1a001262:	b084      	sub	sp, #16
    int modulo;
    Evento_t evn;
    for ( modulo = 0; modulo < ultimoModulo; ++modulo )
1a001264:	2400      	movs	r4, #0
1a001266:	e00c      	b.n	1a001282 <IniciarTodosLosModulos+0x22>
    {
        //modulos[modulo].estado = 0;
        evn.signal 		= SIG_MODULO_INICIAR;
1a001268:	2300      	movs	r3, #0
1a00126a:	9302      	str	r3, [sp, #8]
        evn.receptor 	= &modulos[modulo];
1a00126c:	eb04 0284 	add.w	r2, r4, r4, lsl #2
1a001270:	0093      	lsls	r3, r2, #2
1a001272:	4a07      	ldr	r2, [pc, #28]	; (1a001290 <IniciarTodosLosModulos+0x30>)
1a001274:	4413      	add	r3, r2
1a001276:	9301      	str	r3, [sp, #4]
        evn.valor 		= ( int )evn.receptor;
1a001278:	9303      	str	r3, [sp, #12]
        DespacharEvento( &evn );
1a00127a:	a801      	add	r0, sp, #4
1a00127c:	f000 f8a9 	bl	1a0013d2 <DespacharEvento>
    for ( modulo = 0; modulo < ultimoModulo; ++modulo )
1a001280:	3401      	adds	r4, #1
1a001282:	4b04      	ldr	r3, [pc, #16]	; (1a001294 <IniciarTodosLosModulos+0x34>)
1a001284:	681b      	ldr	r3, [r3, #0]
1a001286:	42a3      	cmp	r3, r4
1a001288:	dcee      	bgt.n	1a001268 <IniciarTodosLosModulos+0x8>
    }
}
1a00128a:	b004      	add	sp, #16
1a00128c:	bd10      	pop	{r4, pc}
1a00128e:	bf00      	nop
1a001290:	100030d8 	.word	0x100030d8
1a001294:	100003c4 	.word	0x100003c4

1a001298 <TimerArmRepetitivo>:
}

void 		TimerArmRepetitivo		( Modulo_t * pModulo, unsigned int timeout )
{
    //portENTER_CRITICAL();
    pModulo->periodo 			= timeout;
1a001298:	6041      	str	r1, [r0, #4]
    pModulo->timeoutTick 		= timeout;
1a00129a:	6081      	str	r1, [r0, #8]
    pModulo->timeoutRepetitivo 	= 1;
1a00129c:	2301      	movs	r3, #1
1a00129e:	60c3      	str	r3, [r0, #12]
    //portEXIT_CRITICAL();
    return;
}
1a0012a0:	4770      	bx	lr

1a0012a2 <TimerDisarm>:


void 		TimerDisarm				( Modulo_t * pModulo )
{
1a0012a2:	b510      	push	{r4, lr}
1a0012a4:	4604      	mov	r4, r0
    portENTER_CRITICAL();
1a0012a6:	f001 ffbd 	bl	1a003224 <vPortEnterCritical>
    pModulo->timeoutTick 		= TIMER_DISABLED;
1a0012aa:	f04f 33ff 	mov.w	r3, #4294967295	; 0xffffffff
1a0012ae:	60a3      	str	r3, [r4, #8]
    pModulo->timeoutRepetitivo 	= 0;
1a0012b0:	2300      	movs	r3, #0
1a0012b2:	60e3      	str	r3, [r4, #12]
    portEXIT_CRITICAL();
1a0012b4:	f001 ffc6 	bl	1a003244 <vPortExitCritical>
    return;
}
1a0012b8:	bd10      	pop	{r4, pc}
1a0012ba:	Address 0x000000001a0012ba is out of bounds.


1a0012bc <vApplicationTickHook>:
{
1a0012bc:	b570      	push	{r4, r5, r6, lr}
    portBASE_TYPE cambiarCtx = pdFALSE;
1a0012be:	2600      	movs	r6, #0
    for ( modulo = 0; modulo < ultimoModulo; ++modulo )
1a0012c0:	4634      	mov	r4, r6
1a0012c2:	e003      	b.n	1a0012cc <vApplicationTickHook+0x10>
                    TimerDisarm( pModulo );
1a0012c4:	4628      	mov	r0, r5
1a0012c6:	f7ff ffec 	bl	1a0012a2 <TimerDisarm>
    for ( modulo = 0; modulo < ultimoModulo; ++modulo )
1a0012ca:	3401      	adds	r4, #1
1a0012cc:	4b14      	ldr	r3, [pc, #80]	; (1a001320 <vApplicationTickHook+0x64>)
1a0012ce:	681b      	ldr	r3, [r3, #0]
1a0012d0:	42a3      	cmp	r3, r4
1a0012d2:	dd1a      	ble.n	1a00130a <vApplicationTickHook+0x4e>
        pModulo = &modulos[modulo];
1a0012d4:	00a3      	lsls	r3, r4, #2
1a0012d6:	4423      	add	r3, r4
1a0012d8:	009a      	lsls	r2, r3, #2
1a0012da:	4d12      	ldr	r5, [pc, #72]	; (1a001324 <vApplicationTickHook+0x68>)
1a0012dc:	4415      	add	r5, r2
        if( pModulo->timeoutTick != TIMER_DISABLED )
1a0012de:	68ab      	ldr	r3, [r5, #8]
1a0012e0:	f1b3 3fff 	cmp.w	r3, #4294967295	; 0xffffffff
1a0012e4:	d0f1      	beq.n	1a0012ca <vApplicationTickHook+0xe>
            if( --pModulo->timeoutTick == 0 )
1a0012e6:	3b01      	subs	r3, #1
1a0012e8:	60ab      	str	r3, [r5, #8]
1a0012ea:	2b00      	cmp	r3, #0
1a0012ec:	d1ed      	bne.n	1a0012ca <vApplicationTickHook+0xe>
                cambiarCtx = EncolarEventoFromISR( pModulo, SIG_TIMEOUT, 0 );
1a0012ee:	2200      	movs	r2, #0
1a0012f0:	2101      	movs	r1, #1
1a0012f2:	4628      	mov	r0, r5
1a0012f4:	f000 f858 	bl	1a0013a8 <EncolarEventoFromISR>
1a0012f8:	4606      	mov	r6, r0
                if( pModulo->timeoutRepetitivo )
1a0012fa:	68eb      	ldr	r3, [r5, #12]
1a0012fc:	2b00      	cmp	r3, #0
1a0012fe:	d0e1      	beq.n	1a0012c4 <vApplicationTickHook+0x8>
                    TimerArmRepetitivo( pModulo, pModulo->periodo );
1a001300:	6869      	ldr	r1, [r5, #4]
1a001302:	4628      	mov	r0, r5
1a001304:	f7ff ffc8 	bl	1a001298 <TimerArmRepetitivo>
1a001308:	e7df      	b.n	1a0012ca <vApplicationTickHook+0xe>
    portEND_SWITCHING_ISR( cambiarCtx );
1a00130a:	b13e      	cbz	r6, 1a00131c <vApplicationTickHook+0x60>
1a00130c:	4b06      	ldr	r3, [pc, #24]	; (1a001328 <vApplicationTickHook+0x6c>)
1a00130e:	f04f 5280 	mov.w	r2, #268435456	; 0x10000000
1a001312:	601a      	str	r2, [r3, #0]
1a001314:	f3bf 8f4f 	dsb	sy
1a001318:	f3bf 8f6f 	isb	sy
}
1a00131c:	bd70      	pop	{r4, r5, r6, pc}
1a00131e:	bf00      	nop
1a001320:	100003c4 	.word	0x100003c4
1a001324:	100030d8 	.word	0x100030d8
1a001328:	e000ed04 	.word	0xe000ed04

1a00132c <getColaEventos>:
}

static xQueueHandle getColaEventos( int prioridad )
{
    xQueueHandle colaEventos;
    switch ( prioridad )
1a00132c:	2802      	cmp	r0, #2
1a00132e:	d008      	beq.n	1a001342 <getColaEventos+0x16>
1a001330:	2803      	cmp	r0, #3
1a001332:	d009      	beq.n	1a001348 <getColaEventos+0x1c>
1a001334:	2801      	cmp	r0, #1
1a001336:	d001      	beq.n	1a00133c <getColaEventos+0x10>
1a001338:	2000      	movs	r0, #0
            break;
        default:
            break;
    }
    return colaEventos;
}
1a00133a:	4770      	bx	lr
            colaEventos = colaEventosPrioridadBaja;
1a00133c:	4b04      	ldr	r3, [pc, #16]	; (1a001350 <getColaEventos+0x24>)
1a00133e:	6818      	ldr	r0, [r3, #0]
            break;
1a001340:	4770      	bx	lr
            colaEventos = colaEventosPrioridadMedia;
1a001342:	4b04      	ldr	r3, [pc, #16]	; (1a001354 <getColaEventos+0x28>)
1a001344:	6818      	ldr	r0, [r3, #0]
            break;
1a001346:	4770      	bx	lr
            colaEventos = colaEventosPrioridadAlta;
1a001348:	4b03      	ldr	r3, [pc, #12]	; (1a001358 <getColaEventos+0x2c>)
1a00134a:	6818      	ldr	r0, [r3, #0]
            break;
1a00134c:	4770      	bx	lr
1a00134e:	bf00      	nop
1a001350:	10003268 	.word	0x10003268
1a001354:	100030d4 	.word	0x100030d4
1a001358:	100030d0 	.word	0x100030d0

1a00135c <getManejadorEventos>:
    manejadorEventos( evento ); //Al receptor del evento le paso el evento
}

static fsm_ptr getManejadorEventos ( Evento_t * evento )
{
    return ( evento->receptor )->manejadorEventos;
1a00135c:	6803      	ldr	r3, [r0, #0]
}
1a00135e:	6818      	ldr	r0, [r3, #0]
1a001360:	4770      	bx	lr

1a001362 <EsperarEvento>:
{
1a001362:	b530      	push	{r4, r5, lr}
1a001364:	b085      	sub	sp, #20
1a001366:	4604      	mov	r4, r0
1a001368:	4608      	mov	r0, r1
    xQueueReceive( colaEventos, &evn, portMAX_DELAY );
1a00136a:	ad01      	add	r5, sp, #4
1a00136c:	f04f 32ff 	mov.w	r2, #4294967295	; 0xffffffff
1a001370:	4629      	mov	r1, r5
1a001372:	f000 fc73 	bl	1a001c5c <xQueueReceive>
    return evn;
1a001376:	e895 0007 	ldmia.w	r5, {r0, r1, r2}
1a00137a:	e884 0007 	stmia.w	r4, {r0, r1, r2}
}
1a00137e:	4620      	mov	r0, r4
1a001380:	b005      	add	sp, #20
1a001382:	bd30      	pop	{r4, r5, pc}

1a001384 <EncolarEvento>:
{
1a001384:	b570      	push	{r4, r5, r6, lr}
1a001386:	b084      	sub	sp, #16
1a001388:	4604      	mov	r4, r0
1a00138a:	460e      	mov	r6, r1
1a00138c:	4615      	mov	r5, r2
    xQueueHandle colaEventos = getColaEventos( receptor->prioridad );
1a00138e:	6900      	ldr	r0, [r0, #16]
1a001390:	f7ff ffcc 	bl	1a00132c <getColaEventos>
    evn.receptor	= receptor;
1a001394:	9401      	str	r4, [sp, #4]
    evn.signal		= senial;
1a001396:	9602      	str	r6, [sp, #8]
    evn.valor 		= valor;
1a001398:	9503      	str	r5, [sp, #12]
    xQueueSend( colaEventos, &evn, 0 );
1a00139a:	2300      	movs	r3, #0
1a00139c:	461a      	mov	r2, r3
1a00139e:	a901      	add	r1, sp, #4
1a0013a0:	f000 fb66 	bl	1a001a70 <xQueueGenericSend>
}
1a0013a4:	b004      	add	sp, #16
1a0013a6:	bd70      	pop	{r4, r5, r6, pc}

1a0013a8 <EncolarEventoFromISR>:
{
1a0013a8:	b5f0      	push	{r4, r5, r6, r7, lr}
1a0013aa:	b085      	sub	sp, #20
1a0013ac:	4605      	mov	r5, r0
1a0013ae:	460f      	mov	r7, r1
1a0013b0:	4616      	mov	r6, r2
    portBASE_TYPE cambiarCtx = pdFALSE;
1a0013b2:	2400      	movs	r4, #0
1a0013b4:	9400      	str	r4, [sp, #0]
    xQueueHandle colaEventos = getColaEventos( receptor->prioridad );
1a0013b6:	6900      	ldr	r0, [r0, #16]
1a0013b8:	f7ff ffb8 	bl	1a00132c <getColaEventos>
    evn.receptor	= receptor;
1a0013bc:	9501      	str	r5, [sp, #4]
    evn.signal 		= senial;
1a0013be:	9702      	str	r7, [sp, #8]
    evn.valor 		= valor;
1a0013c0:	9603      	str	r6, [sp, #12]
    xQueueSendFromISR( colaEventos, &evn, &cambiarCtx );
1a0013c2:	4623      	mov	r3, r4
1a0013c4:	466a      	mov	r2, sp
1a0013c6:	a901      	add	r1, sp, #4
1a0013c8:	f000 fbde 	bl	1a001b88 <xQueueGenericSendFromISR>
}
1a0013cc:	9800      	ldr	r0, [sp, #0]
1a0013ce:	b005      	add	sp, #20
1a0013d0:	bdf0      	pop	{r4, r5, r6, r7, pc}

1a0013d2 <DespacharEvento>:
{
1a0013d2:	b510      	push	{r4, lr}
1a0013d4:	4604      	mov	r4, r0
    fsm_ptr manejadorEventos = getManejadorEventos( evento );
1a0013d6:	f7ff ffc1 	bl	1a00135c <getManejadorEventos>
1a0013da:	4603      	mov	r3, r0
    manejadorEventos( evento ); //Al receptor del evento le paso el evento
1a0013dc:	4620      	mov	r0, r4
1a0013de:	4798      	blx	r3
}
1a0013e0:	bd10      	pop	{r4, pc}

1a0013e2 <TareaDespachadoraEventos>:
{
1a0013e2:	b530      	push	{r4, r5, lr}
1a0013e4:	b089      	sub	sp, #36	; 0x24
1a0013e6:	4605      	mov	r5, r0
        evn = EsperarEvento( colaEventos );
1a0013e8:	466c      	mov	r4, sp
1a0013ea:	4629      	mov	r1, r5
1a0013ec:	4620      	mov	r0, r4
1a0013ee:	f7ff ffb8 	bl	1a001362 <EsperarEvento>
1a0013f2:	ab05      	add	r3, sp, #20
1a0013f4:	e894 0007 	ldmia.w	r4, {r0, r1, r2}
1a0013f8:	e883 0007 	stmia.w	r3, {r0, r1, r2}
        DespacharEvento( &evn );
1a0013fc:	4618      	mov	r0, r3
1a0013fe:	f7ff ffe8 	bl	1a0013d2 <DespacharEvento>
1a001402:	e7f1      	b.n	1a0013e8 <TareaDespachadoraEventos+0x6>

1a001404 <main>:

/*=====================================[declaraciones de tareas]====================*/

/*========================================[Función principal]======================================*/

int main(void) {
1a001404:	b500      	push	{lr}
1a001406:	b083      	sub	sp, #12

	/* ------------- Configuraciones---------------------------------*/

	boardConfig();
1a001408:	f003 f9f8 	bl	1a0047fc <boardInit>
	My_IRQ_Init();
1a00140c:	f7ff fd80 	bl	1a000f10 <My_IRQ_Init>
	/* Esta tarea se encarga de inicializar la UART y las estructuras de las colas para envío y recepción de
	 * la información proveniente de las tareas restantes */

	/* Esta tarea se encarga de crear e inicializar las estructuras de las colas*/

	xTaskCreate(Initialize_Service, (const char *) "Initialize Service",
1a001410:	2400      	movs	r4, #0
1a001412:	9401      	str	r4, [sp, #4]
1a001414:	2501      	movs	r5, #1
1a001416:	9500      	str	r5, [sp, #0]
1a001418:	4623      	mov	r3, r4
1a00141a:	22b4      	movs	r2, #180	; 0xb4
1a00141c:	4921      	ldr	r1, [pc, #132]	; (1a0014a4 <main+0xa0>)
1a00141e:	4822      	ldr	r0, [pc, #136]	; (1a0014a8 <main+0xa4>)
1a001420:	f000 ffbe 	bl	1a0023a0 <xTaskCreate>
	configMINIMAL_STACK_SIZE * 2, 0, tskIDLE_PRIORITY + 1, 0);


	//Initialize_UART(0);
	xTaskCreate(Initialize_UART, (const char *) "Initialize UART",
1a001424:	9401      	str	r4, [sp, #4]
1a001426:	9500      	str	r5, [sp, #0]
1a001428:	4623      	mov	r3, r4
1a00142a:	22b4      	movs	r2, #180	; 0xb4
1a00142c:	491f      	ldr	r1, [pc, #124]	; (1a0014ac <main+0xa8>)
1a00142e:	4820      	ldr	r0, [pc, #128]	; (1a0014b0 <main+0xac>)
1a001430:	f000 ffb6 	bl	1a0023a0 <xTaskCreate>


	/* Esta tarea se encarga de la lectura de los paquetes provenientes de las colas y aplica las operaciones
	 * mayusculizar y minusculizar */

	xTaskCreate(Create_And_Assign_Queue, (const char *) "Assign Queue",
1a001434:	9401      	str	r4, [sp, #4]
1a001436:	9500      	str	r5, [sp, #0]
1a001438:	4623      	mov	r3, r4
1a00143a:	22b4      	movs	r2, #180	; 0xb4
1a00143c:	491d      	ldr	r1, [pc, #116]	; (1a0014b4 <main+0xb0>)
1a00143e:	481e      	ldr	r0, [pc, #120]	; (1a0014b8 <main+0xb4>)
1a001440:	f000 ffae 	bl	1a0023a0 <xTaskCreate>
	configMINIMAL_STACK_SIZE * 2, 0, tskIDLE_PRIORITY + 1, 0);

	/* Esta tarea se encarga de mostrar la información procesada por la UART*/

	xTaskCreate(Print_Queue, (const char *) "Print UART",
1a001444:	4b1d      	ldr	r3, [pc, #116]	; (1a0014bc <main+0xb8>)
1a001446:	9301      	str	r3, [sp, #4]
1a001448:	9500      	str	r5, [sp, #0]
1a00144a:	4623      	mov	r3, r4
1a00144c:	22b4      	movs	r2, #180	; 0xb4
1a00144e:	491c      	ldr	r1, [pc, #112]	; (1a0014c0 <main+0xbc>)
1a001450:	481c      	ldr	r0, [pc, #112]	; (1a0014c4 <main+0xc0>)
1a001452:	f000 ffa5 	bl	1a0023a0 <xTaskCreate>
	configMINIMAL_STACK_SIZE * 2, 0, tskIDLE_PRIORITY + 1, &xHandlePrintQueue);

	colaEventosPrioridadBaja = xQueueCreate(5, sizeof(Evento_t));
1a001456:	4622      	mov	r2, r4
1a001458:	210c      	movs	r1, #12
1a00145a:	2005      	movs	r0, #5
1a00145c:	f000 faea 	bl	1a001a34 <xQueueGenericCreate>
1a001460:	4603      	mov	r3, r0
1a001462:	4a19      	ldr	r2, [pc, #100]	; (1a0014c8 <main+0xc4>)
1a001464:	6010      	str	r0, [r2, #0]

	// Creo la tarea de baja prioridad
	xTaskCreate(TareaDespachadoraEventos, /* Pointer to the function that implements the task. */
1a001466:	9401      	str	r4, [sp, #4]
1a001468:	9400      	str	r4, [sp, #0]
1a00146a:	f44f 72e1 	mov.w	r2, #450	; 0x1c2
1a00146e:	4917      	ldr	r1, [pc, #92]	; (1a0014cc <main+0xc8>)
1a001470:	4817      	ldr	r0, [pc, #92]	; (1a0014d0 <main+0xcc>)
1a001472:	f000 ff95 	bl	1a0023a0 <xTaskCreate>
	5 * configMINIMAL_STACK_SIZE, /* Stack depth in words. */
	(void*) colaEventosPrioridadBaja, /* Parametro de la tarea */
	tskIDLE_PRIORITY, /* Prioridad */
	NULL); /* Task handle. */

	ModuloLeds = RegistrarModulo(DriverLeds,PRIORIDAD_BAJA);
1a001476:	4629      	mov	r1, r5
1a001478:	4816      	ldr	r0, [pc, #88]	; (1a0014d4 <main+0xd0>)
1a00147a:	f7ff fed5 	bl	1a001228 <RegistrarModulo>
1a00147e:	4b16      	ldr	r3, [pc, #88]	; (1a0014d8 <main+0xd4>)
1a001480:	6018      	str	r0, [r3, #0]
	ModuloDriverPulsadores = RegistrarModulo(DriverPulsadores, PRIORIDAD_BAJA);
1a001482:	4629      	mov	r1, r5
1a001484:	4815      	ldr	r0, [pc, #84]	; (1a0014dc <main+0xd8>)
1a001486:	f7ff fecf 	bl	1a001228 <RegistrarModulo>
1a00148a:	4b15      	ldr	r3, [pc, #84]	; (1a0014e0 <main+0xdc>)
1a00148c:	6018      	str	r0, [r3, #0]
	ModuloBroadcast = RegistrarModulo(ManejadorEventosBroadcast,PRIORIDAD_BAJA);
1a00148e:	4629      	mov	r1, r5
1a001490:	4814      	ldr	r0, [pc, #80]	; (1a0014e4 <main+0xe0>)
1a001492:	f7ff fec9 	bl	1a001228 <RegistrarModulo>
1a001496:	4b14      	ldr	r3, [pc, #80]	; (1a0014e8 <main+0xe4>)
1a001498:	6018      	str	r0, [r3, #0]

	IniciarTodosLosModulos();
1a00149a:	f7ff fee1 	bl	1a001260 <IniciarTodosLosModulos>


	/* Iniciar el scheduler*/

	vTaskStartScheduler();
1a00149e:	f001 f84b 	bl	1a002538 <vTaskStartScheduler>
1a0014a2:	e7fe      	b.n	1a0014a2 <main+0x9e>
1a0014a4:	1a0062b0 	.word	0x1a0062b0
1a0014a8:	1a0009e5 	.word	0x1a0009e5
1a0014ac:	1a0062c4 	.word	0x1a0062c4
1a0014b0:	1a00047d 	.word	0x1a00047d
1a0014b4:	1a0062d4 	.word	0x1a0062d4
1a0014b8:	1a000a65 	.word	0x1a000a65
1a0014bc:	100003c8 	.word	0x100003c8
1a0014c0:	1a0062e4 	.word	0x1a0062e4
1a0014c4:	1a00052d 	.word	0x1a00052d
1a0014c8:	10003268 	.word	0x10003268
1a0014cc:	1a0062f0 	.word	0x1a0062f0
1a0014d0:	1a0013e3 	.word	0x1a0013e3
1a0014d4:	1a001205 	.word	0x1a001205
1a0014d8:	1000326c 	.word	0x1000326c
1a0014dc:	1a000ec1 	.word	0x1a000ec1
1a0014e0:	10003274 	.word	0x10003274
1a0014e4:	1a000cb1 	.word	0x1a000cb1
1a0014e8:	10003270 	.word	0x10003270

1a0014ec <initialise_monitor_handles>:
}
1a0014ec:	4770      	bx	lr
1a0014ee:	Address 0x000000001a0014ee is out of bounds.


1a0014f0 <Reset_Handler>:
void Reset_Handler(void) {
1a0014f0:	b510      	push	{r4, lr}
    __asm__ volatile("cpsid i");
1a0014f2:	b672      	cpsid	i
    *(RESET_CONTROL + 0) = 0x10DF1000;
1a0014f4:	4b19      	ldr	r3, [pc, #100]	; (1a00155c <Reset_Handler+0x6c>)
1a0014f6:	4a1a      	ldr	r2, [pc, #104]	; (1a001560 <Reset_Handler+0x70>)
1a0014f8:	601a      	str	r2, [r3, #0]
    *(RESET_CONTROL + 1) = 0x01DFF7FF;
1a0014fa:	3304      	adds	r3, #4
1a0014fc:	4a19      	ldr	r2, [pc, #100]	; (1a001564 <Reset_Handler+0x74>)
1a0014fe:	601a      	str	r2, [r3, #0]
    for (irqpendloop = 0; irqpendloop < 8; irqpendloop++) {
1a001500:	2300      	movs	r3, #0
1a001502:	e005      	b.n	1a001510 <Reset_Handler+0x20>
        *(NVIC_ICPR + irqpendloop) = 0xFFFFFFFF;
1a001504:	4a18      	ldr	r2, [pc, #96]	; (1a001568 <Reset_Handler+0x78>)
1a001506:	f04f 31ff 	mov.w	r1, #4294967295	; 0xffffffff
1a00150a:	f842 1023 	str.w	r1, [r2, r3, lsl #2]
    for (irqpendloop = 0; irqpendloop < 8; irqpendloop++) {
1a00150e:	3301      	adds	r3, #1
1a001510:	2b07      	cmp	r3, #7
1a001512:	d9f7      	bls.n	1a001504 <Reset_Handler+0x14>
    __asm__ volatile("cpsie i");
1a001514:	b662      	cpsie	i
    SectionTableAddr = &__data_section_table;
1a001516:	4b15      	ldr	r3, [pc, #84]	; (1a00156c <Reset_Handler+0x7c>)
    while (SectionTableAddr < &__data_section_table_end) {
1a001518:	e007      	b.n	1a00152a <Reset_Handler+0x3a>
        SectionLen = *SectionTableAddr++;
1a00151a:	f103 040c 	add.w	r4, r3, #12
        data_init(LoadAddr, ExeAddr, SectionLen);
1a00151e:	689a      	ldr	r2, [r3, #8]
1a001520:	6859      	ldr	r1, [r3, #4]
1a001522:	6818      	ldr	r0, [r3, #0]
1a001524:	f7fe fe31 	bl	1a00018a <data_init>
        SectionLen = *SectionTableAddr++;
1a001528:	4623      	mov	r3, r4
    while (SectionTableAddr < &__data_section_table_end) {
1a00152a:	4a11      	ldr	r2, [pc, #68]	; (1a001570 <Reset_Handler+0x80>)
1a00152c:	4293      	cmp	r3, r2
1a00152e:	d3f4      	bcc.n	1a00151a <Reset_Handler+0x2a>
1a001530:	e006      	b.n	1a001540 <Reset_Handler+0x50>
        ExeAddr = *SectionTableAddr++;
1a001532:	461c      	mov	r4, r3
        bss_init(ExeAddr, SectionLen);
1a001534:	6859      	ldr	r1, [r3, #4]
1a001536:	f854 0b08 	ldr.w	r0, [r4], #8
1a00153a:	f7fe fe35 	bl	1a0001a8 <bss_init>
        SectionLen = *SectionTableAddr++;
1a00153e:	4623      	mov	r3, r4
    while (SectionTableAddr < &__bss_section_table_end) {
1a001540:	4a0c      	ldr	r2, [pc, #48]	; (1a001574 <Reset_Handler+0x84>)
1a001542:	4293      	cmp	r3, r2
1a001544:	d3f5      	bcc.n	1a001532 <Reset_Handler+0x42>
    SystemInit();
1a001546:	f002 fdc1 	bl	1a0040cc <SystemInit>
    __libc_init_array();
1a00154a:	f003 fc8b 	bl	1a004e64 <__libc_init_array>
    initialise_monitor_handles();
1a00154e:	f7ff ffcd 	bl	1a0014ec <initialise_monitor_handles>
    main();
1a001552:	f7ff ff57 	bl	1a001404 <main>
        __asm__ volatile("wfi");
1a001556:	bf30      	wfi
1a001558:	e7fd      	b.n	1a001556 <Reset_Handler+0x66>
1a00155a:	bf00      	nop
1a00155c:	40053100 	.word	0x40053100
1a001560:	10df1000 	.word	0x10df1000
1a001564:	01dff7ff 	.word	0x01dff7ff
1a001568:	e000e280 	.word	0xe000e280
1a00156c:	1a000114 	.word	0x1a000114
1a001570:	1a000150 	.word	0x1a000150
1a001574:	1a000178 	.word	0x1a000178

1a001578 <_fini>:
void _fini(void) {}
1a001578:	4770      	bx	lr

1a00157a <_init>:
void _init(void) {}
1a00157a:	4770      	bx	lr

1a00157c <_close_r>:
   (void) __params__;
}

int _close_r(struct _reent *r, int fd) {
   UNUSED(fd);
   SET_ERR(EBADF);
1a00157c:	2309      	movs	r3, #9
1a00157e:	6003      	str	r3, [r0, #0]
   return -1;
}
1a001580:	f04f 30ff 	mov.w	r0, #4294967295	; 0xffffffff
1a001584:	4770      	bx	lr

1a001586 <_fstat_r>:
}

int _fstat_r(struct _reent *r, int fd, struct stat *st) {
   UNUSED(fd);
   UNUSED(st);
   SET_ERR(ENOSYS);
1a001586:	2358      	movs	r3, #88	; 0x58
1a001588:	6003      	str	r3, [r0, #0]
   return -1;
}
1a00158a:	f04f 30ff 	mov.w	r0, #4294967295	; 0xffffffff
1a00158e:	4770      	bx	lr

1a001590 <_isatty_r>:
   UNUSED(r);
   return 1;
}

int _isatty_r(struct _reent *r, int fd) {
   switch (fd) {
1a001590:	2902      	cmp	r1, #2
1a001592:	d801      	bhi.n	1a001598 <_isatty_r+0x8>
   case 0:
   case 1:
   case 2:
       return 1;
1a001594:	2001      	movs	r0, #1
   default:
       SET_ERR(EBADF);
       return -1;
   }
}
1a001596:	4770      	bx	lr
       SET_ERR(EBADF);
1a001598:	2309      	movs	r3, #9
1a00159a:	6003      	str	r3, [r0, #0]
       return -1;
1a00159c:	f04f 30ff 	mov.w	r0, #4294967295	; 0xffffffff
1a0015a0:	4770      	bx	lr

1a0015a2 <_lseek_r>:

_off_t _lseek_r(struct _reent *r, int fd, _off_t off, int w) {
   UNUSED(fd);
   UNUSED(off);
   UNUSED(w);
   SET_ERR(ENOSYS);
1a0015a2:	2358      	movs	r3, #88	; 0x58
1a0015a4:	6003      	str	r3, [r0, #0]
   return -1;
}
1a0015a6:	f04f 30ff 	mov.w	r0, #4294967295	; 0xffffffff
1a0015aa:	4770      	bx	lr

1a0015ac <_read_r>:
   }
}
*/
_ssize_t _read_r(struct _reent *r, int fd, void *b, size_t n) {
  size_t i = 0;
  switch (fd) {
1a0015ac:	2902      	cmp	r1, #2
1a0015ae:	d81f      	bhi.n	1a0015f0 <_read_r+0x44>
_ssize_t _read_r(struct _reent *r, int fd, void *b, size_t n) {
1a0015b0:	e92d 41f0 	stmdb	sp!, {r4, r5, r6, r7, r8, lr}
1a0015b4:	461d      	mov	r5, r3
1a0015b6:	4617      	mov	r7, r2
1a0015b8:	4606      	mov	r6, r0
  size_t i = 0;
1a0015ba:	2400      	movs	r4, #0
  case 0:
  case 1:
  case 2:
      while( i < n ){
1a0015bc:	42ac      	cmp	r4, r5
1a0015be:	d211      	bcs.n	1a0015e4 <_read_r+0x38>
         int c = __stdio_getchar();
1a0015c0:	f001 ffd5 	bl	1a00356e <__stdio_getchar>
         if( c != -1 ){
1a0015c4:	f1b0 3fff 	cmp.w	r0, #4294967295	; 0xffffffff
1a0015c8:	d0f8      	beq.n	1a0015bc <_read_r+0x10>
            ((char*) b)[i++] = (char) c;
1a0015ca:	f104 0801 	add.w	r8, r4, #1
1a0015ce:	5538      	strb	r0, [r7, r4]
            if( c == '\r' || c == '\n' ){
1a0015d0:	280d      	cmp	r0, #13
1a0015d2:	d003      	beq.n	1a0015dc <_read_r+0x30>
1a0015d4:	280a      	cmp	r0, #10
1a0015d6:	d001      	beq.n	1a0015dc <_read_r+0x30>
            ((char*) b)[i++] = (char) c;
1a0015d8:	4644      	mov	r4, r8
1a0015da:	e7ef      	b.n	1a0015bc <_read_r+0x10>
               // read anotherone to prevent \r\n
               (void) __stdio_getchar();
1a0015dc:	f001 ffc7 	bl	1a00356e <__stdio_getchar>
               return i;
1a0015e0:	4640      	mov	r0, r8
1a0015e2:	e003      	b.n	1a0015ec <_read_r+0x40>
            }
         }
      }
      SET_ERR(ENODEV);
1a0015e4:	2313      	movs	r3, #19
1a0015e6:	6033      	str	r3, [r6, #0]
      return -1;
1a0015e8:	f04f 30ff 	mov.w	r0, #4294967295	; 0xffffffff
  default:
      SET_ERR(ENODEV);
      return -1;
  }
}
1a0015ec:	e8bd 81f0 	ldmia.w	sp!, {r4, r5, r6, r7, r8, pc}
      SET_ERR(ENODEV);
1a0015f0:	2313      	movs	r3, #19
1a0015f2:	6003      	str	r3, [r0, #0]
      return -1;
1a0015f4:	f04f 30ff 	mov.w	r0, #4294967295	; 0xffffffff
}
1a0015f8:	4770      	bx	lr

1a0015fa <_write_r>:
   return -1;
}

_ssize_t _write_r(struct _reent *r, int fd, const void *b, size_t n) {
   size_t i;
   switch (fd) {
1a0015fa:	2902      	cmp	r1, #2
1a0015fc:	d80c      	bhi.n	1a001618 <_write_r+0x1e>
_ssize_t _write_r(struct _reent *r, int fd, const void *b, size_t n) {
1a0015fe:	b570      	push	{r4, r5, r6, lr}
1a001600:	461d      	mov	r5, r3
1a001602:	4616      	mov	r6, r2
   case 0:
   case 1:
   case 2:
       for (i = 0; i < n; i++)
1a001604:	2400      	movs	r4, #0
1a001606:	e003      	b.n	1a001610 <_write_r+0x16>
           __stdio_putchar(((char*) b)[i]);
1a001608:	5d30      	ldrb	r0, [r6, r4]
1a00160a:	f001 ffab 	bl	1a003564 <__stdio_putchar>
       for (i = 0; i < n; i++)
1a00160e:	3401      	adds	r4, #1
1a001610:	42ac      	cmp	r4, r5
1a001612:	d3f9      	bcc.n	1a001608 <_write_r+0xe>
       return n;
1a001614:	4628      	mov	r0, r5
   default:
       SET_ERR(ENODEV);
       return -1;
   }
}
1a001616:	bd70      	pop	{r4, r5, r6, pc}
       SET_ERR(ENODEV);
1a001618:	2313      	movs	r3, #19
1a00161a:	6003      	str	r3, [r0, #0]
       return -1;
1a00161c:	f04f 30ff 	mov.w	r0, #4294967295	; 0xffffffff
}
1a001620:	4770      	bx	lr
1a001622:	Address 0x000000001a001622 is out of bounds.


1a001624 <_sbrk_r>:

void *_sbrk_r(struct _reent *r, ptrdiff_t incr) {
   extern int _pvHeapStart;
   static void *heap_end;
   void *prev_heap_end;
   if (heap_end == 0) {
1a001624:	4b05      	ldr	r3, [pc, #20]	; (1a00163c <_sbrk_r+0x18>)
1a001626:	681b      	ldr	r3, [r3, #0]
1a001628:	b123      	cbz	r3, 1a001634 <_sbrk_r+0x10>
       heap_end = &_pvHeapStart;
   }
   prev_heap_end = heap_end;
1a00162a:	4b04      	ldr	r3, [pc, #16]	; (1a00163c <_sbrk_r+0x18>)
1a00162c:	6818      	ldr	r0, [r3, #0]
   heap_end += incr;
1a00162e:	4401      	add	r1, r0
1a001630:	6019      	str	r1, [r3, #0]
   return prev_heap_end;
}
1a001632:	4770      	bx	lr
       heap_end = &_pvHeapStart;
1a001634:	4b01      	ldr	r3, [pc, #4]	; (1a00163c <_sbrk_r+0x18>)
1a001636:	4a02      	ldr	r2, [pc, #8]	; (1a001640 <_sbrk_r+0x1c>)
1a001638:	601a      	str	r2, [r3, #0]
1a00163a:	e7f6      	b.n	1a00162a <_sbrk_r+0x6>
1a00163c:	100003cc 	.word	0x100003cc
1a001640:	100032c0 	.word	0x100032c0

1a001644 <prvHeapInit>:
uint8_t *pucAlignedHeap;
size_t uxAddress;
size_t xTotalHeapSize = configTOTAL_HEAP_SIZE;

	/* Ensure the heap starts on a correctly aligned boundary. */
	uxAddress = ( size_t ) ucHeap;
1a001644:	4a12      	ldr	r2, [pc, #72]	; (1a001690 <prvHeapInit+0x4c>)

	if( ( uxAddress & portBYTE_ALIGNMENT_MASK ) != 0 )
1a001646:	f012 0f07 	tst.w	r2, #7
1a00164a:	d01e      	beq.n	1a00168a <prvHeapInit+0x46>
	{
		uxAddress += ( portBYTE_ALIGNMENT - 1 );
1a00164c:	1dd1      	adds	r1, r2, #7
		uxAddress &= ~( ( size_t ) portBYTE_ALIGNMENT_MASK );
1a00164e:	f021 0107 	bic.w	r1, r1, #7
		xTotalHeapSize -= uxAddress - ( size_t ) ucHeap;
1a001652:	f5c1 5300 	rsb	r3, r1, #8192	; 0x2000
1a001656:	4413      	add	r3, r2
		uxAddress &= ~( ( size_t ) portBYTE_ALIGNMENT_MASK );
1a001658:	460a      	mov	r2, r1

	pucAlignedHeap = ( uint8_t * ) uxAddress;

	/* xStart is used to hold a pointer to the first item in the list of free
	blocks.  The void cast is used to prevent compiler warnings. */
	xStart.pxNextFreeBlock = ( void * ) pucAlignedHeap;
1a00165a:	480e      	ldr	r0, [pc, #56]	; (1a001694 <prvHeapInit+0x50>)
1a00165c:	6002      	str	r2, [r0, #0]
	xStart.xBlockSize = ( size_t ) 0;
1a00165e:	2100      	movs	r1, #0
1a001660:	6041      	str	r1, [r0, #4]

	/* pxEnd is used to mark the end of the list of free blocks and is inserted
	at the end of the heap space. */
	uxAddress = ( ( size_t ) pucAlignedHeap ) + xTotalHeapSize;
1a001662:	4413      	add	r3, r2
	uxAddress -= xHeapStructSize;
1a001664:	3b08      	subs	r3, #8
	uxAddress &= ~( ( size_t ) portBYTE_ALIGNMENT_MASK );
1a001666:	f023 0307 	bic.w	r3, r3, #7
	pxEnd = ( void * ) uxAddress;
1a00166a:	480b      	ldr	r0, [pc, #44]	; (1a001698 <prvHeapInit+0x54>)
1a00166c:	6003      	str	r3, [r0, #0]
	pxEnd->xBlockSize = 0;
1a00166e:	6059      	str	r1, [r3, #4]
	pxEnd->pxNextFreeBlock = NULL;
1a001670:	6019      	str	r1, [r3, #0]

	/* To start with there is a single free block that is sized to take up the
	entire heap space, minus the space taken by pxEnd. */
	pxFirstFreeBlock = ( void * ) pucAlignedHeap;
	pxFirstFreeBlock->xBlockSize = uxAddress - ( size_t ) pxFirstFreeBlock;
1a001672:	1a99      	subs	r1, r3, r2
1a001674:	6051      	str	r1, [r2, #4]
	pxFirstFreeBlock->pxNextFreeBlock = pxEnd;
1a001676:	6013      	str	r3, [r2, #0]

	/* Only one block exists - and it covers the entire usable heap space. */
	xMinimumEverFreeBytesRemaining = pxFirstFreeBlock->xBlockSize;
1a001678:	4b08      	ldr	r3, [pc, #32]	; (1a00169c <prvHeapInit+0x58>)
1a00167a:	6019      	str	r1, [r3, #0]
	xFreeBytesRemaining = pxFirstFreeBlock->xBlockSize;
1a00167c:	4b08      	ldr	r3, [pc, #32]	; (1a0016a0 <prvHeapInit+0x5c>)
1a00167e:	6019      	str	r1, [r3, #0]

	/* Work out the position of the top bit in a size_t variable. */
	xBlockAllocatedBit = ( ( size_t ) 1 ) << ( ( sizeof( size_t ) * heapBITS_PER_BYTE ) - 1 );
1a001680:	4b08      	ldr	r3, [pc, #32]	; (1a0016a4 <prvHeapInit+0x60>)
1a001682:	f04f 4200 	mov.w	r2, #2147483648	; 0x80000000
1a001686:	601a      	str	r2, [r3, #0]
}
1a001688:	4770      	bx	lr
size_t xTotalHeapSize = configTOTAL_HEAP_SIZE;
1a00168a:	f44f 5300 	mov.w	r3, #8192	; 0x2000
1a00168e:	e7e4      	b.n	1a00165a <prvHeapInit+0x16>
1a001690:	100003d4 	.word	0x100003d4
1a001694:	100023e0 	.word	0x100023e0
1a001698:	100003d0 	.word	0x100003d0
1a00169c:	100023dc 	.word	0x100023dc
1a0016a0:	100023d8 	.word	0x100023d8
1a0016a4:	100023d4 	.word	0x100023d4

1a0016a8 <prvInsertBlockIntoFreeList>:
/*-----------------------------------------------------------*/

static void prvInsertBlockIntoFreeList( BlockLink_t *pxBlockToInsert )
{
1a0016a8:	b410      	push	{r4}
BlockLink_t *pxIterator;
uint8_t *puc;

	/* Iterate through the list until a block is found that has a higher address
	than the block being inserted. */
	for( pxIterator = &xStart; pxIterator->pxNextFreeBlock < pxBlockToInsert; pxIterator = pxIterator->pxNextFreeBlock )
1a0016aa:	4a13      	ldr	r2, [pc, #76]	; (1a0016f8 <prvInsertBlockIntoFreeList+0x50>)
1a0016ac:	e000      	b.n	1a0016b0 <prvInsertBlockIntoFreeList+0x8>
1a0016ae:	461a      	mov	r2, r3
1a0016b0:	6813      	ldr	r3, [r2, #0]
1a0016b2:	4283      	cmp	r3, r0
1a0016b4:	d3fb      	bcc.n	1a0016ae <prvInsertBlockIntoFreeList+0x6>
	}

	/* Do the block being inserted, and the block it is being inserted after
	make a contiguous block of memory? */
	puc = ( uint8_t * ) pxIterator;
	if( ( puc + pxIterator->xBlockSize ) == ( uint8_t * ) pxBlockToInsert )
1a0016b6:	6851      	ldr	r1, [r2, #4]
1a0016b8:	1854      	adds	r4, r2, r1
1a0016ba:	4284      	cmp	r4, r0
1a0016bc:	d00a      	beq.n	1a0016d4 <prvInsertBlockIntoFreeList+0x2c>
	}

	/* Do the block being inserted, and the block it is being inserted before
	make a contiguous block of memory? */
	puc = ( uint8_t * ) pxBlockToInsert;
	if( ( puc + pxBlockToInsert->xBlockSize ) == ( uint8_t * ) pxIterator->pxNextFreeBlock )
1a0016be:	6841      	ldr	r1, [r0, #4]
1a0016c0:	1844      	adds	r4, r0, r1
1a0016c2:	42a3      	cmp	r3, r4
1a0016c4:	d00b      	beq.n	1a0016de <prvInsertBlockIntoFreeList+0x36>
			pxBlockToInsert->pxNextFreeBlock = pxEnd;
		}
	}
	else
	{
		pxBlockToInsert->pxNextFreeBlock = pxIterator->pxNextFreeBlock;
1a0016c6:	6003      	str	r3, [r0, #0]

	/* If the block being inserted plugged a gab, so was merged with the block
	before and the block after, then it's pxNextFreeBlock pointer will have
	already been set, and should not be set here as that would make it point
	to itself. */
	if( pxIterator != pxBlockToInsert )
1a0016c8:	4290      	cmp	r0, r2
1a0016ca:	d000      	beq.n	1a0016ce <prvInsertBlockIntoFreeList+0x26>
	{
		pxIterator->pxNextFreeBlock = pxBlockToInsert;
1a0016cc:	6010      	str	r0, [r2, #0]
	}
	else
	{
		mtCOVERAGE_TEST_MARKER();
	}
}
1a0016ce:	f85d 4b04 	ldr.w	r4, [sp], #4
1a0016d2:	4770      	bx	lr
		pxIterator->xBlockSize += pxBlockToInsert->xBlockSize;
1a0016d4:	6840      	ldr	r0, [r0, #4]
1a0016d6:	4401      	add	r1, r0
1a0016d8:	6051      	str	r1, [r2, #4]
		pxBlockToInsert = pxIterator;
1a0016da:	4610      	mov	r0, r2
1a0016dc:	e7ef      	b.n	1a0016be <prvInsertBlockIntoFreeList+0x16>
		if( pxIterator->pxNextFreeBlock != pxEnd )
1a0016de:	4c07      	ldr	r4, [pc, #28]	; (1a0016fc <prvInsertBlockIntoFreeList+0x54>)
1a0016e0:	6824      	ldr	r4, [r4, #0]
1a0016e2:	42a3      	cmp	r3, r4
1a0016e4:	d006      	beq.n	1a0016f4 <prvInsertBlockIntoFreeList+0x4c>
			pxBlockToInsert->xBlockSize += pxIterator->pxNextFreeBlock->xBlockSize;
1a0016e6:	685b      	ldr	r3, [r3, #4]
1a0016e8:	4419      	add	r1, r3
1a0016ea:	6041      	str	r1, [r0, #4]
			pxBlockToInsert->pxNextFreeBlock = pxIterator->pxNextFreeBlock->pxNextFreeBlock;
1a0016ec:	6813      	ldr	r3, [r2, #0]
1a0016ee:	681b      	ldr	r3, [r3, #0]
1a0016f0:	6003      	str	r3, [r0, #0]
1a0016f2:	e7e9      	b.n	1a0016c8 <prvInsertBlockIntoFreeList+0x20>
			pxBlockToInsert->pxNextFreeBlock = pxEnd;
1a0016f4:	6004      	str	r4, [r0, #0]
1a0016f6:	e7e7      	b.n	1a0016c8 <prvInsertBlockIntoFreeList+0x20>
1a0016f8:	100023e0 	.word	0x100023e0
1a0016fc:	100003d0 	.word	0x100003d0

1a001700 <pvPortMalloc>:
{
1a001700:	b570      	push	{r4, r5, r6, lr}
1a001702:	4605      	mov	r5, r0
	vTaskSuspendAll();
1a001704:	f000 ff56 	bl	1a0025b4 <vTaskSuspendAll>
		if( pxEnd == NULL )
1a001708:	4b2e      	ldr	r3, [pc, #184]	; (1a0017c4 <pvPortMalloc+0xc4>)
1a00170a:	681b      	ldr	r3, [r3, #0]
1a00170c:	b19b      	cbz	r3, 1a001736 <pvPortMalloc+0x36>
		if( ( xWantedSize & xBlockAllocatedBit ) == 0 )
1a00170e:	4b2e      	ldr	r3, [pc, #184]	; (1a0017c8 <pvPortMalloc+0xc8>)
1a001710:	681b      	ldr	r3, [r3, #0]
1a001712:	421d      	tst	r5, r3
1a001714:	d112      	bne.n	1a00173c <pvPortMalloc+0x3c>
			if( xWantedSize > 0 )
1a001716:	b135      	cbz	r5, 1a001726 <pvPortMalloc+0x26>
				xWantedSize += xHeapStructSize;
1a001718:	3508      	adds	r5, #8
				if( ( xWantedSize & portBYTE_ALIGNMENT_MASK ) != 0x00 )
1a00171a:	f015 0f07 	tst.w	r5, #7
1a00171e:	d002      	beq.n	1a001726 <pvPortMalloc+0x26>
					xWantedSize += ( portBYTE_ALIGNMENT - ( xWantedSize & portBYTE_ALIGNMENT_MASK ) );
1a001720:	f025 0507 	bic.w	r5, r5, #7
1a001724:	3508      	adds	r5, #8
			if( ( xWantedSize > 0 ) && ( xWantedSize <= xFreeBytesRemaining ) )
1a001726:	b185      	cbz	r5, 1a00174a <pvPortMalloc+0x4a>
1a001728:	4b28      	ldr	r3, [pc, #160]	; (1a0017cc <pvPortMalloc+0xcc>)
1a00172a:	681b      	ldr	r3, [r3, #0]
1a00172c:	42ab      	cmp	r3, r5
1a00172e:	d310      	bcc.n	1a001752 <pvPortMalloc+0x52>
				pxBlock = xStart.pxNextFreeBlock;
1a001730:	4a27      	ldr	r2, [pc, #156]	; (1a0017d0 <pvPortMalloc+0xd0>)
1a001732:	6814      	ldr	r4, [r2, #0]
				while( ( pxBlock->xBlockSize < xWantedSize ) && ( pxBlock->pxNextFreeBlock != NULL ) )
1a001734:	e013      	b.n	1a00175e <pvPortMalloc+0x5e>
			prvHeapInit();
1a001736:	f7ff ff85 	bl	1a001644 <prvHeapInit>
1a00173a:	e7e8      	b.n	1a00170e <pvPortMalloc+0xe>
	( void ) xTaskResumeAll();
1a00173c:	f000 ffd6 	bl	1a0026ec <xTaskResumeAll>
void *pvReturn = NULL;
1a001740:	2600      	movs	r6, #0
			vApplicationMallocFailedHook();
1a001742:	f000 fc69 	bl	1a002018 <vApplicationMallocFailedHook>
}
1a001746:	4630      	mov	r0, r6
1a001748:	bd70      	pop	{r4, r5, r6, pc}
	( void ) xTaskResumeAll();
1a00174a:	f000 ffcf 	bl	1a0026ec <xTaskResumeAll>
void *pvReturn = NULL;
1a00174e:	2600      	movs	r6, #0
1a001750:	e7f7      	b.n	1a001742 <pvPortMalloc+0x42>
	( void ) xTaskResumeAll();
1a001752:	f000 ffcb 	bl	1a0026ec <xTaskResumeAll>
void *pvReturn = NULL;
1a001756:	2600      	movs	r6, #0
1a001758:	e7f3      	b.n	1a001742 <pvPortMalloc+0x42>
					pxPreviousBlock = pxBlock;
1a00175a:	4622      	mov	r2, r4
					pxBlock = pxBlock->pxNextFreeBlock;
1a00175c:	461c      	mov	r4, r3
				while( ( pxBlock->xBlockSize < xWantedSize ) && ( pxBlock->pxNextFreeBlock != NULL ) )
1a00175e:	6863      	ldr	r3, [r4, #4]
1a001760:	42ab      	cmp	r3, r5
1a001762:	d202      	bcs.n	1a00176a <pvPortMalloc+0x6a>
1a001764:	6823      	ldr	r3, [r4, #0]
1a001766:	2b00      	cmp	r3, #0
1a001768:	d1f7      	bne.n	1a00175a <pvPortMalloc+0x5a>
				if( pxBlock != pxEnd )
1a00176a:	4b16      	ldr	r3, [pc, #88]	; (1a0017c4 <pvPortMalloc+0xc4>)
1a00176c:	681b      	ldr	r3, [r3, #0]
1a00176e:	42a3      	cmp	r3, r4
1a001770:	d01d      	beq.n	1a0017ae <pvPortMalloc+0xae>
					pvReturn = ( void * ) ( ( ( uint8_t * ) pxPreviousBlock->pxNextFreeBlock ) + xHeapStructSize );
1a001772:	6816      	ldr	r6, [r2, #0]
1a001774:	3608      	adds	r6, #8
					pxPreviousBlock->pxNextFreeBlock = pxBlock->pxNextFreeBlock;
1a001776:	6823      	ldr	r3, [r4, #0]
1a001778:	6013      	str	r3, [r2, #0]
					if( ( pxBlock->xBlockSize - xWantedSize ) > heapMINIMUM_BLOCK_SIZE )
1a00177a:	6863      	ldr	r3, [r4, #4]
1a00177c:	1b5b      	subs	r3, r3, r5
1a00177e:	2b10      	cmp	r3, #16
1a001780:	d819      	bhi.n	1a0017b6 <pvPortMalloc+0xb6>
					xFreeBytesRemaining -= pxBlock->xBlockSize;
1a001782:	6862      	ldr	r2, [r4, #4]
1a001784:	4911      	ldr	r1, [pc, #68]	; (1a0017cc <pvPortMalloc+0xcc>)
1a001786:	680b      	ldr	r3, [r1, #0]
1a001788:	1a9b      	subs	r3, r3, r2
1a00178a:	600b      	str	r3, [r1, #0]
					if( xFreeBytesRemaining < xMinimumEverFreeBytesRemaining )
1a00178c:	4911      	ldr	r1, [pc, #68]	; (1a0017d4 <pvPortMalloc+0xd4>)
1a00178e:	6809      	ldr	r1, [r1, #0]
1a001790:	428b      	cmp	r3, r1
1a001792:	d201      	bcs.n	1a001798 <pvPortMalloc+0x98>
						xMinimumEverFreeBytesRemaining = xFreeBytesRemaining;
1a001794:	490f      	ldr	r1, [pc, #60]	; (1a0017d4 <pvPortMalloc+0xd4>)
1a001796:	600b      	str	r3, [r1, #0]
					pxBlock->xBlockSize |= xBlockAllocatedBit;
1a001798:	4b0b      	ldr	r3, [pc, #44]	; (1a0017c8 <pvPortMalloc+0xc8>)
1a00179a:	681b      	ldr	r3, [r3, #0]
1a00179c:	4313      	orrs	r3, r2
1a00179e:	6063      	str	r3, [r4, #4]
					pxBlock->pxNextFreeBlock = NULL;
1a0017a0:	2300      	movs	r3, #0
1a0017a2:	6023      	str	r3, [r4, #0]
	( void ) xTaskResumeAll();
1a0017a4:	f000 ffa2 	bl	1a0026ec <xTaskResumeAll>
		if( pvReturn == NULL )
1a0017a8:	2e00      	cmp	r6, #0
1a0017aa:	d1cc      	bne.n	1a001746 <pvPortMalloc+0x46>
1a0017ac:	e7c9      	b.n	1a001742 <pvPortMalloc+0x42>
	( void ) xTaskResumeAll();
1a0017ae:	f000 ff9d 	bl	1a0026ec <xTaskResumeAll>
void *pvReturn = NULL;
1a0017b2:	2600      	movs	r6, #0
1a0017b4:	e7c5      	b.n	1a001742 <pvPortMalloc+0x42>
						pxNewBlockLink = ( void * ) ( ( ( uint8_t * ) pxBlock ) + xWantedSize );
1a0017b6:	1960      	adds	r0, r4, r5
						pxNewBlockLink->xBlockSize = pxBlock->xBlockSize - xWantedSize;
1a0017b8:	6043      	str	r3, [r0, #4]
						pxBlock->xBlockSize = xWantedSize;
1a0017ba:	6065      	str	r5, [r4, #4]
						prvInsertBlockIntoFreeList( pxNewBlockLink );
1a0017bc:	f7ff ff74 	bl	1a0016a8 <prvInsertBlockIntoFreeList>
1a0017c0:	e7df      	b.n	1a001782 <pvPortMalloc+0x82>
1a0017c2:	bf00      	nop
1a0017c4:	100003d0 	.word	0x100003d0
1a0017c8:	100023d4 	.word	0x100023d4
1a0017cc:	100023d8 	.word	0x100023d8
1a0017d0:	100023e0 	.word	0x100023e0
1a0017d4:	100023dc 	.word	0x100023dc

1a0017d8 <vPortFree>:
	if( pv != NULL )
1a0017d8:	b1f8      	cbz	r0, 1a00181a <vPortFree+0x42>
{
1a0017da:	b538      	push	{r3, r4, r5, lr}
1a0017dc:	4604      	mov	r4, r0
		puc -= xHeapStructSize;
1a0017de:	f1a0 0508 	sub.w	r5, r0, #8
		if( ( pxLink->xBlockSize & xBlockAllocatedBit ) != 0 )
1a0017e2:	f850 2c04 	ldr.w	r2, [r0, #-4]
1a0017e6:	490d      	ldr	r1, [pc, #52]	; (1a00181c <vPortFree+0x44>)
1a0017e8:	6809      	ldr	r1, [r1, #0]
1a0017ea:	420a      	tst	r2, r1
1a0017ec:	d002      	beq.n	1a0017f4 <vPortFree+0x1c>
			if( pxLink->pxNextFreeBlock == NULL )
1a0017ee:	f850 0c08 	ldr.w	r0, [r0, #-8]
1a0017f2:	b100      	cbz	r0, 1a0017f6 <vPortFree+0x1e>
}
1a0017f4:	bd38      	pop	{r3, r4, r5, pc}
				pxLink->xBlockSize &= ~xBlockAllocatedBit;
1a0017f6:	ea22 0201 	bic.w	r2, r2, r1
1a0017fa:	f844 2c04 	str.w	r2, [r4, #-4]
				vTaskSuspendAll();
1a0017fe:	f000 fed9 	bl	1a0025b4 <vTaskSuspendAll>
					xFreeBytesRemaining += pxLink->xBlockSize;
1a001802:	f854 1c04 	ldr.w	r1, [r4, #-4]
1a001806:	4a06      	ldr	r2, [pc, #24]	; (1a001820 <vPortFree+0x48>)
1a001808:	6813      	ldr	r3, [r2, #0]
1a00180a:	440b      	add	r3, r1
1a00180c:	6013      	str	r3, [r2, #0]
					prvInsertBlockIntoFreeList( ( ( BlockLink_t * ) pxLink ) );
1a00180e:	4628      	mov	r0, r5
1a001810:	f7ff ff4a 	bl	1a0016a8 <prvInsertBlockIntoFreeList>
				( void ) xTaskResumeAll();
1a001814:	f000 ff6a 	bl	1a0026ec <xTaskResumeAll>
}
1a001818:	e7ec      	b.n	1a0017f4 <vPortFree+0x1c>
1a00181a:	4770      	bx	lr
1a00181c:	100023d4 	.word	0x100023d4
1a001820:	100023d8 	.word	0x100023d8

1a001824 <xPortGetFreeHeapSize>:
}
1a001824:	4b01      	ldr	r3, [pc, #4]	; (1a00182c <xPortGetFreeHeapSize+0x8>)
1a001826:	6818      	ldr	r0, [r3, #0]
1a001828:	4770      	bx	lr
1a00182a:	bf00      	nop
1a00182c:	100023d8 	.word	0x100023d8

1a001830 <prvGetDisinheritPriorityAfterTimeout>:
		priority, but the waiting task times out, then the holder should
		disinherit the priority - but only down to the highest priority of any
		other tasks that are waiting for the same mutex.  For this purpose,
		return the priority of the highest priority task that is waiting for the
		mutex. */
		if( listCURRENT_LIST_LENGTH( &( pxQueue->xTasksWaitingToReceive ) ) > 0 )
1a001830:	6a43      	ldr	r3, [r0, #36]	; 0x24
1a001832:	b123      	cbz	r3, 1a00183e <prvGetDisinheritPriorityAfterTimeout+0xe>
		{
			uxHighestPriorityOfWaitingTasks = configMAX_PRIORITIES - listGET_ITEM_VALUE_OF_HEAD_ENTRY( &( pxQueue->xTasksWaitingToReceive ) );
1a001834:	6b03      	ldr	r3, [r0, #48]	; 0x30
1a001836:	6818      	ldr	r0, [r3, #0]
1a001838:	f1c0 0007 	rsb	r0, r0, #7
1a00183c:	4770      	bx	lr
		}
		else
		{
			uxHighestPriorityOfWaitingTasks = tskIDLE_PRIORITY;
1a00183e:	2000      	movs	r0, #0
		}

		return uxHighestPriorityOfWaitingTasks;
	}
1a001840:	4770      	bx	lr

1a001842 <prvIsQueueFull>:
	return xReturn;
} /*lint !e818 xQueue could not be pointer to const because it is a typedef. */
/*-----------------------------------------------------------*/

static BaseType_t prvIsQueueFull( const Queue_t *pxQueue )
{
1a001842:	b510      	push	{r4, lr}
1a001844:	4604      	mov	r4, r0
BaseType_t xReturn;

	taskENTER_CRITICAL();
1a001846:	f001 fced 	bl	1a003224 <vPortEnterCritical>
	{
		if( pxQueue->uxMessagesWaiting == pxQueue->uxLength )
1a00184a:	6ba2      	ldr	r2, [r4, #56]	; 0x38
1a00184c:	6be3      	ldr	r3, [r4, #60]	; 0x3c
1a00184e:	429a      	cmp	r2, r3
1a001850:	d004      	beq.n	1a00185c <prvIsQueueFull+0x1a>
		{
			xReturn = pdTRUE;
		}
		else
		{
			xReturn = pdFALSE;
1a001852:	2400      	movs	r4, #0
		}
	}
	taskEXIT_CRITICAL();
1a001854:	f001 fcf6 	bl	1a003244 <vPortExitCritical>

	return xReturn;
}
1a001858:	4620      	mov	r0, r4
1a00185a:	bd10      	pop	{r4, pc}
			xReturn = pdTRUE;
1a00185c:	2401      	movs	r4, #1
1a00185e:	e7f9      	b.n	1a001854 <prvIsQueueFull+0x12>

1a001860 <prvIsQueueEmpty>:
{
1a001860:	b510      	push	{r4, lr}
1a001862:	4604      	mov	r4, r0
	taskENTER_CRITICAL();
1a001864:	f001 fcde 	bl	1a003224 <vPortEnterCritical>
		if( pxQueue->uxMessagesWaiting == ( UBaseType_t )  0 )
1a001868:	6ba3      	ldr	r3, [r4, #56]	; 0x38
1a00186a:	b123      	cbz	r3, 1a001876 <prvIsQueueEmpty+0x16>
			xReturn = pdFALSE;
1a00186c:	2400      	movs	r4, #0
	taskEXIT_CRITICAL();
1a00186e:	f001 fce9 	bl	1a003244 <vPortExitCritical>
}
1a001872:	4620      	mov	r0, r4
1a001874:	bd10      	pop	{r4, pc}
			xReturn = pdTRUE;
1a001876:	2401      	movs	r4, #1
1a001878:	e7f9      	b.n	1a00186e <prvIsQueueEmpty+0xe>

1a00187a <prvCopyDataToQueue>:
{
1a00187a:	b570      	push	{r4, r5, r6, lr}
1a00187c:	4604      	mov	r4, r0
1a00187e:	4616      	mov	r6, r2
	uxMessagesWaiting = pxQueue->uxMessagesWaiting;
1a001880:	6b85      	ldr	r5, [r0, #56]	; 0x38
	if( pxQueue->uxItemSize == ( UBaseType_t ) 0 )
1a001882:	6c02      	ldr	r2, [r0, #64]	; 0x40
1a001884:	b95a      	cbnz	r2, 1a00189e <prvCopyDataToQueue+0x24>
			if( pxQueue->uxQueueType == queueQUEUE_IS_MUTEX )
1a001886:	6803      	ldr	r3, [r0, #0]
1a001888:	b11b      	cbz	r3, 1a001892 <prvCopyDataToQueue+0x18>
BaseType_t xReturn = pdFALSE;
1a00188a:	2000      	movs	r0, #0
	pxQueue->uxMessagesWaiting = uxMessagesWaiting + ( UBaseType_t ) 1;
1a00188c:	3501      	adds	r5, #1
1a00188e:	63a5      	str	r5, [r4, #56]	; 0x38
}
1a001890:	bd70      	pop	{r4, r5, r6, pc}
				xReturn = xTaskPriorityDisinherit( ( void * ) pxQueue->pxMutexHolder );
1a001892:	6840      	ldr	r0, [r0, #4]
1a001894:	f001 f93c 	bl	1a002b10 <xTaskPriorityDisinherit>
				pxQueue->pxMutexHolder = NULL;
1a001898:	2300      	movs	r3, #0
1a00189a:	6063      	str	r3, [r4, #4]
1a00189c:	e7f6      	b.n	1a00188c <prvCopyDataToQueue+0x12>
	else if( xPosition == queueSEND_TO_BACK )
1a00189e:	b96e      	cbnz	r6, 1a0018bc <prvCopyDataToQueue+0x42>
		( void ) memcpy( ( void * ) pxQueue->pcWriteTo, pvItemToQueue, ( size_t ) pxQueue->uxItemSize ); /*lint !e961 !e418 MISRA exception as the casts are only redundant for some ports, plus previous logic ensures a null pointer can only be passed to memcpy() if the copy size is 0. */
1a0018a0:	6880      	ldr	r0, [r0, #8]
1a0018a2:	f003 fb27 	bl	1a004ef4 <memcpy>
		pxQueue->pcWriteTo += pxQueue->uxItemSize;
1a0018a6:	6c22      	ldr	r2, [r4, #64]	; 0x40
1a0018a8:	68a3      	ldr	r3, [r4, #8]
1a0018aa:	4413      	add	r3, r2
1a0018ac:	60a3      	str	r3, [r4, #8]
		if( pxQueue->pcWriteTo >= pxQueue->pcTail ) /*lint !e946 MISRA exception justified as comparison of pointers is the cleanest solution. */
1a0018ae:	6862      	ldr	r2, [r4, #4]
1a0018b0:	4293      	cmp	r3, r2
1a0018b2:	d319      	bcc.n	1a0018e8 <prvCopyDataToQueue+0x6e>
			pxQueue->pcWriteTo = pxQueue->pcHead;
1a0018b4:	6823      	ldr	r3, [r4, #0]
1a0018b6:	60a3      	str	r3, [r4, #8]
BaseType_t xReturn = pdFALSE;
1a0018b8:	2000      	movs	r0, #0
1a0018ba:	e7e7      	b.n	1a00188c <prvCopyDataToQueue+0x12>
		( void ) memcpy( ( void * ) pxQueue->u.pcReadFrom, pvItemToQueue, ( size_t ) pxQueue->uxItemSize ); /*lint !e961 MISRA exception as the casts are only redundant for some ports. */
1a0018bc:	68c0      	ldr	r0, [r0, #12]
1a0018be:	f003 fb19 	bl	1a004ef4 <memcpy>
		pxQueue->u.pcReadFrom -= pxQueue->uxItemSize;
1a0018c2:	6c22      	ldr	r2, [r4, #64]	; 0x40
1a0018c4:	4252      	negs	r2, r2
1a0018c6:	68e3      	ldr	r3, [r4, #12]
1a0018c8:	4413      	add	r3, r2
1a0018ca:	60e3      	str	r3, [r4, #12]
		if( pxQueue->u.pcReadFrom < pxQueue->pcHead ) /*lint !e946 MISRA exception justified as comparison of pointers is the cleanest solution. */
1a0018cc:	6821      	ldr	r1, [r4, #0]
1a0018ce:	428b      	cmp	r3, r1
1a0018d0:	d202      	bcs.n	1a0018d8 <prvCopyDataToQueue+0x5e>
			pxQueue->u.pcReadFrom = ( pxQueue->pcTail - pxQueue->uxItemSize );
1a0018d2:	6863      	ldr	r3, [r4, #4]
1a0018d4:	441a      	add	r2, r3
1a0018d6:	60e2      	str	r2, [r4, #12]
		if( xPosition == queueOVERWRITE )
1a0018d8:	2e02      	cmp	r6, #2
1a0018da:	d001      	beq.n	1a0018e0 <prvCopyDataToQueue+0x66>
BaseType_t xReturn = pdFALSE;
1a0018dc:	2000      	movs	r0, #0
1a0018de:	e7d5      	b.n	1a00188c <prvCopyDataToQueue+0x12>
			if( uxMessagesWaiting > ( UBaseType_t ) 0 )
1a0018e0:	b125      	cbz	r5, 1a0018ec <prvCopyDataToQueue+0x72>
				--uxMessagesWaiting;
1a0018e2:	3d01      	subs	r5, #1
BaseType_t xReturn = pdFALSE;
1a0018e4:	2000      	movs	r0, #0
1a0018e6:	e7d1      	b.n	1a00188c <prvCopyDataToQueue+0x12>
1a0018e8:	2000      	movs	r0, #0
1a0018ea:	e7cf      	b.n	1a00188c <prvCopyDataToQueue+0x12>
1a0018ec:	2000      	movs	r0, #0
1a0018ee:	e7cd      	b.n	1a00188c <prvCopyDataToQueue+0x12>

1a0018f0 <prvCopyDataFromQueue>:
	if( pxQueue->uxItemSize != ( UBaseType_t ) 0 )
1a0018f0:	6c02      	ldr	r2, [r0, #64]	; 0x40
1a0018f2:	b172      	cbz	r2, 1a001912 <prvCopyDataFromQueue+0x22>
{
1a0018f4:	b510      	push	{r4, lr}
		pxQueue->u.pcReadFrom += pxQueue->uxItemSize;
1a0018f6:	68c3      	ldr	r3, [r0, #12]
1a0018f8:	4413      	add	r3, r2
1a0018fa:	60c3      	str	r3, [r0, #12]
		if( pxQueue->u.pcReadFrom >= pxQueue->pcTail ) /*lint !e946 MISRA exception justified as use of the relational operator is the cleanest solutions. */
1a0018fc:	6844      	ldr	r4, [r0, #4]
1a0018fe:	42a3      	cmp	r3, r4
1a001900:	d301      	bcc.n	1a001906 <prvCopyDataFromQueue+0x16>
			pxQueue->u.pcReadFrom = pxQueue->pcHead;
1a001902:	6803      	ldr	r3, [r0, #0]
1a001904:	60c3      	str	r3, [r0, #12]
1a001906:	460c      	mov	r4, r1
		( void ) memcpy( ( void * ) pvBuffer, ( void * ) pxQueue->u.pcReadFrom, ( size_t ) pxQueue->uxItemSize ); /*lint !e961 !e418 MISRA exception as the casts are only redundant for some ports.  Also previous logic ensures a null pointer can only be passed to memcpy() when the count is 0. */
1a001908:	68c1      	ldr	r1, [r0, #12]
1a00190a:	4620      	mov	r0, r4
1a00190c:	f003 faf2 	bl	1a004ef4 <memcpy>
}
1a001910:	bd10      	pop	{r4, pc}
1a001912:	4770      	bx	lr

1a001914 <prvUnlockQueue>:
{
1a001914:	b538      	push	{r3, r4, r5, lr}
1a001916:	4605      	mov	r5, r0
	taskENTER_CRITICAL();
1a001918:	f001 fc84 	bl	1a003224 <vPortEnterCritical>
		int8_t cTxLock = pxQueue->cTxLock;
1a00191c:	f895 4045 	ldrb.w	r4, [r5, #69]	; 0x45
1a001920:	b264      	sxtb	r4, r4
		while( cTxLock > queueLOCKED_UNMODIFIED )
1a001922:	e003      	b.n	1a00192c <prvUnlockQueue+0x18>
						vTaskMissedYield();
1a001924:	f001 f840 	bl	1a0029a8 <vTaskMissedYield>
			--cTxLock;
1a001928:	3c01      	subs	r4, #1
1a00192a:	b264      	sxtb	r4, r4
		while( cTxLock > queueLOCKED_UNMODIFIED )
1a00192c:	2c00      	cmp	r4, #0
1a00192e:	dd08      	ble.n	1a001942 <prvUnlockQueue+0x2e>
				if( listLIST_IS_EMPTY( &( pxQueue->xTasksWaitingToReceive ) ) == pdFALSE )
1a001930:	6a6b      	ldr	r3, [r5, #36]	; 0x24
1a001932:	b133      	cbz	r3, 1a001942 <prvUnlockQueue+0x2e>
					if( xTaskRemoveFromEventList( &( pxQueue->xTasksWaitingToReceive ) ) != pdFALSE )
1a001934:	f105 0024 	add.w	r0, r5, #36	; 0x24
1a001938:	f000 ffc2 	bl	1a0028c0 <xTaskRemoveFromEventList>
1a00193c:	2800      	cmp	r0, #0
1a00193e:	d0f3      	beq.n	1a001928 <prvUnlockQueue+0x14>
1a001940:	e7f0      	b.n	1a001924 <prvUnlockQueue+0x10>
		pxQueue->cTxLock = queueUNLOCKED;
1a001942:	23ff      	movs	r3, #255	; 0xff
1a001944:	f885 3045 	strb.w	r3, [r5, #69]	; 0x45
	taskEXIT_CRITICAL();
1a001948:	f001 fc7c 	bl	1a003244 <vPortExitCritical>
	taskENTER_CRITICAL();
1a00194c:	f001 fc6a 	bl	1a003224 <vPortEnterCritical>
		int8_t cRxLock = pxQueue->cRxLock;
1a001950:	f895 4044 	ldrb.w	r4, [r5, #68]	; 0x44
1a001954:	b264      	sxtb	r4, r4
		while( cRxLock > queueLOCKED_UNMODIFIED )
1a001956:	e003      	b.n	1a001960 <prvUnlockQueue+0x4c>
					vTaskMissedYield();
1a001958:	f001 f826 	bl	1a0029a8 <vTaskMissedYield>
				--cRxLock;
1a00195c:	3c01      	subs	r4, #1
1a00195e:	b264      	sxtb	r4, r4
		while( cRxLock > queueLOCKED_UNMODIFIED )
1a001960:	2c00      	cmp	r4, #0
1a001962:	dd08      	ble.n	1a001976 <prvUnlockQueue+0x62>
			if( listLIST_IS_EMPTY( &( pxQueue->xTasksWaitingToSend ) ) == pdFALSE )
1a001964:	692b      	ldr	r3, [r5, #16]
1a001966:	b133      	cbz	r3, 1a001976 <prvUnlockQueue+0x62>
				if( xTaskRemoveFromEventList( &( pxQueue->xTasksWaitingToSend ) ) != pdFALSE )
1a001968:	f105 0010 	add.w	r0, r5, #16
1a00196c:	f000 ffa8 	bl	1a0028c0 <xTaskRemoveFromEventList>
1a001970:	2800      	cmp	r0, #0
1a001972:	d0f3      	beq.n	1a00195c <prvUnlockQueue+0x48>
1a001974:	e7f0      	b.n	1a001958 <prvUnlockQueue+0x44>
		pxQueue->cRxLock = queueUNLOCKED;
1a001976:	23ff      	movs	r3, #255	; 0xff
1a001978:	f885 3044 	strb.w	r3, [r5, #68]	; 0x44
	taskEXIT_CRITICAL();
1a00197c:	f001 fc62 	bl	1a003244 <vPortExitCritical>
}
1a001980:	bd38      	pop	{r3, r4, r5, pc}
1a001982:	Address 0x000000001a001982 is out of bounds.


1a001984 <xQueueGenericReset>:
{
1a001984:	b538      	push	{r3, r4, r5, lr}
1a001986:	4604      	mov	r4, r0
1a001988:	460d      	mov	r5, r1
	taskENTER_CRITICAL();
1a00198a:	f001 fc4b 	bl	1a003224 <vPortEnterCritical>
		pxQueue->pcTail = pxQueue->pcHead + ( pxQueue->uxLength * pxQueue->uxItemSize );
1a00198e:	6821      	ldr	r1, [r4, #0]
1a001990:	6be2      	ldr	r2, [r4, #60]	; 0x3c
1a001992:	6c23      	ldr	r3, [r4, #64]	; 0x40
1a001994:	fb03 1002 	mla	r0, r3, r2, r1
1a001998:	6060      	str	r0, [r4, #4]
		pxQueue->uxMessagesWaiting = ( UBaseType_t ) 0U;
1a00199a:	2000      	movs	r0, #0
1a00199c:	63a0      	str	r0, [r4, #56]	; 0x38
		pxQueue->pcWriteTo = pxQueue->pcHead;
1a00199e:	60a1      	str	r1, [r4, #8]
		pxQueue->u.pcReadFrom = pxQueue->pcHead + ( ( pxQueue->uxLength - ( UBaseType_t ) 1U ) * pxQueue->uxItemSize );
1a0019a0:	3a01      	subs	r2, #1
1a0019a2:	fb02 1303 	mla	r3, r2, r3, r1
1a0019a6:	60e3      	str	r3, [r4, #12]
		pxQueue->cRxLock = queueUNLOCKED;
1a0019a8:	23ff      	movs	r3, #255	; 0xff
1a0019aa:	f884 3044 	strb.w	r3, [r4, #68]	; 0x44
		pxQueue->cTxLock = queueUNLOCKED;
1a0019ae:	f884 3045 	strb.w	r3, [r4, #69]	; 0x45
		if( xNewQueue == pdFALSE )
1a0019b2:	b9a5      	cbnz	r5, 1a0019de <xQueueGenericReset+0x5a>
			if( listLIST_IS_EMPTY( &( pxQueue->xTasksWaitingToSend ) ) == pdFALSE )
1a0019b4:	6923      	ldr	r3, [r4, #16]
1a0019b6:	b91b      	cbnz	r3, 1a0019c0 <xQueueGenericReset+0x3c>
	taskEXIT_CRITICAL();
1a0019b8:	f001 fc44 	bl	1a003244 <vPortExitCritical>
}
1a0019bc:	2001      	movs	r0, #1
1a0019be:	bd38      	pop	{r3, r4, r5, pc}
				if( xTaskRemoveFromEventList( &( pxQueue->xTasksWaitingToSend ) ) != pdFALSE )
1a0019c0:	f104 0010 	add.w	r0, r4, #16
1a0019c4:	f000 ff7c 	bl	1a0028c0 <xTaskRemoveFromEventList>
1a0019c8:	2800      	cmp	r0, #0
1a0019ca:	d0f5      	beq.n	1a0019b8 <xQueueGenericReset+0x34>
					queueYIELD_IF_USING_PREEMPTION();
1a0019cc:	4b08      	ldr	r3, [pc, #32]	; (1a0019f0 <xQueueGenericReset+0x6c>)
1a0019ce:	f04f 5280 	mov.w	r2, #268435456	; 0x10000000
1a0019d2:	601a      	str	r2, [r3, #0]
1a0019d4:	f3bf 8f4f 	dsb	sy
1a0019d8:	f3bf 8f6f 	isb	sy
1a0019dc:	e7ec      	b.n	1a0019b8 <xQueueGenericReset+0x34>
			vListInitialise( &( pxQueue->xTasksWaitingToSend ) );
1a0019de:	f104 0010 	add.w	r0, r4, #16
1a0019e2:	f000 faa2 	bl	1a001f2a <vListInitialise>
			vListInitialise( &( pxQueue->xTasksWaitingToReceive ) );
1a0019e6:	f104 0024 	add.w	r0, r4, #36	; 0x24
1a0019ea:	f000 fa9e 	bl	1a001f2a <vListInitialise>
1a0019ee:	e7e3      	b.n	1a0019b8 <xQueueGenericReset+0x34>
1a0019f0:	e000ed04 	.word	0xe000ed04

1a0019f4 <prvInitialiseNewQueue>:
{
1a0019f4:	b538      	push	{r3, r4, r5, lr}
1a0019f6:	461d      	mov	r5, r3
1a0019f8:	9c04      	ldr	r4, [sp, #16]
	if( uxItemSize == ( UBaseType_t ) 0 )
1a0019fa:	460b      	mov	r3, r1
1a0019fc:	b149      	cbz	r1, 1a001a12 <prvInitialiseNewQueue+0x1e>
		pxNewQueue->pcHead = ( int8_t * ) pucQueueStorage;
1a0019fe:	6022      	str	r2, [r4, #0]
	pxNewQueue->uxLength = uxQueueLength;
1a001a00:	63e0      	str	r0, [r4, #60]	; 0x3c
	pxNewQueue->uxItemSize = uxItemSize;
1a001a02:	6423      	str	r3, [r4, #64]	; 0x40
	( void ) xQueueGenericReset( pxNewQueue, pdTRUE );
1a001a04:	2101      	movs	r1, #1
1a001a06:	4620      	mov	r0, r4
1a001a08:	f7ff ffbc 	bl	1a001984 <xQueueGenericReset>
		pxNewQueue->ucQueueType = ucQueueType;
1a001a0c:	f884 504c 	strb.w	r5, [r4, #76]	; 0x4c
}
1a001a10:	bd38      	pop	{r3, r4, r5, pc}
		pxNewQueue->pcHead = ( int8_t * ) pxNewQueue;
1a001a12:	6024      	str	r4, [r4, #0]
1a001a14:	e7f4      	b.n	1a001a00 <prvInitialiseNewQueue+0xc>

1a001a16 <xQueueGenericCreateStatic>:
	{
1a001a16:	b510      	push	{r4, lr}
1a001a18:	b082      	sub	sp, #8
		if( pxNewQueue != NULL )
1a001a1a:	461c      	mov	r4, r3
1a001a1c:	b13b      	cbz	r3, 1a001a2e <xQueueGenericCreateStatic+0x18>
				pxNewQueue->ucStaticallyAllocated = pdTRUE;
1a001a1e:	2301      	movs	r3, #1
1a001a20:	f884 3046 	strb.w	r3, [r4, #70]	; 0x46
			prvInitialiseNewQueue( uxQueueLength, uxItemSize, pucQueueStorage, ucQueueType, pxNewQueue );
1a001a24:	9400      	str	r4, [sp, #0]
1a001a26:	f89d 3010 	ldrb.w	r3, [sp, #16]
1a001a2a:	f7ff ffe3 	bl	1a0019f4 <prvInitialiseNewQueue>
	}
1a001a2e:	4620      	mov	r0, r4
1a001a30:	b002      	add	sp, #8
1a001a32:	bd10      	pop	{r4, pc}

1a001a34 <xQueueGenericCreate>:
	{
1a001a34:	b5f0      	push	{r4, r5, r6, r7, lr}
1a001a36:	b083      	sub	sp, #12
1a001a38:	4605      	mov	r5, r0
1a001a3a:	4617      	mov	r7, r2
		if( uxItemSize == ( UBaseType_t ) 0 )
1a001a3c:	460e      	mov	r6, r1
1a001a3e:	b1a1      	cbz	r1, 1a001a6a <xQueueGenericCreate+0x36>
			xQueueSizeInBytes = ( size_t ) ( uxQueueLength * uxItemSize ); /*lint !e961 MISRA exception as the casts are only redundant for some ports. */
1a001a40:	fb00 f001 	mul.w	r0, r0, r1
		pxNewQueue = ( Queue_t * ) pvPortMalloc( sizeof( Queue_t ) + xQueueSizeInBytes );
1a001a44:	3050      	adds	r0, #80	; 0x50
1a001a46:	f7ff fe5b 	bl	1a001700 <pvPortMalloc>
		if( pxNewQueue != NULL )
1a001a4a:	4604      	mov	r4, r0
1a001a4c:	b150      	cbz	r0, 1a001a64 <xQueueGenericCreate+0x30>
				pxNewQueue->ucStaticallyAllocated = pdFALSE;
1a001a4e:	2300      	movs	r3, #0
1a001a50:	f880 3046 	strb.w	r3, [r0, #70]	; 0x46
			prvInitialiseNewQueue( uxQueueLength, uxItemSize, pucQueueStorage, ucQueueType, pxNewQueue );
1a001a54:	9000      	str	r0, [sp, #0]
1a001a56:	463b      	mov	r3, r7
1a001a58:	f100 0250 	add.w	r2, r0, #80	; 0x50
1a001a5c:	4631      	mov	r1, r6
1a001a5e:	4628      	mov	r0, r5
1a001a60:	f7ff ffc8 	bl	1a0019f4 <prvInitialiseNewQueue>
	}
1a001a64:	4620      	mov	r0, r4
1a001a66:	b003      	add	sp, #12
1a001a68:	bdf0      	pop	{r4, r5, r6, r7, pc}
			xQueueSizeInBytes = ( size_t ) 0;
1a001a6a:	2000      	movs	r0, #0
1a001a6c:	e7ea      	b.n	1a001a44 <xQueueGenericCreate+0x10>
1a001a6e:	Address 0x000000001a001a6e is out of bounds.


1a001a70 <xQueueGenericSend>:
{
1a001a70:	b5f0      	push	{r4, r5, r6, r7, lr}
1a001a72:	b085      	sub	sp, #20
1a001a74:	4604      	mov	r4, r0
1a001a76:	460f      	mov	r7, r1
1a001a78:	9201      	str	r2, [sp, #4]
1a001a7a:	461e      	mov	r6, r3
BaseType_t xEntryTimeSet = pdFALSE, xYieldRequired;
1a001a7c:	2500      	movs	r5, #0
1a001a7e:	e039      	b.n	1a001af4 <xQueueGenericSend+0x84>
				xYieldRequired = prvCopyDataToQueue( pxQueue, pvItemToQueue, xCopyPosition );
1a001a80:	4632      	mov	r2, r6
1a001a82:	4639      	mov	r1, r7
1a001a84:	4620      	mov	r0, r4
1a001a86:	f7ff fef8 	bl	1a00187a <prvCopyDataToQueue>
					if( listLIST_IS_EMPTY( &( pxQueue->xTasksWaitingToReceive ) ) == pdFALSE )
1a001a8a:	6a63      	ldr	r3, [r4, #36]	; 0x24
1a001a8c:	b96b      	cbnz	r3, 1a001aaa <xQueueGenericSend+0x3a>
					else if( xYieldRequired != pdFALSE )
1a001a8e:	b138      	cbz	r0, 1a001aa0 <xQueueGenericSend+0x30>
						queueYIELD_IF_USING_PREEMPTION();
1a001a90:	4b3c      	ldr	r3, [pc, #240]	; (1a001b84 <xQueueGenericSend+0x114>)
1a001a92:	f04f 5280 	mov.w	r2, #268435456	; 0x10000000
1a001a96:	601a      	str	r2, [r3, #0]
1a001a98:	f3bf 8f4f 	dsb	sy
1a001a9c:	f3bf 8f6f 	isb	sy
				taskEXIT_CRITICAL();
1a001aa0:	f001 fbd0 	bl	1a003244 <vPortExitCritical>
				return pdPASS;
1a001aa4:	2001      	movs	r0, #1
}
1a001aa6:	b005      	add	sp, #20
1a001aa8:	bdf0      	pop	{r4, r5, r6, r7, pc}
